{
  "transactions": [
    {
      "hash": "0xd9be96cecd7cf30958b6dddeb71b42e0884974da8631981b1a41a82f1d98ae33",
      "transactionType": "CALL",
      "contractName": null,
      "contractAddress": "0xec14f30b4b606ab57537ba5de5392b13029fb860",
      "function": "createCircle(string,address[])",
      "arguments": [
        "DebugCLPoolTest",
        "[0xAFA9CF6c504Ca060B31626879635c049E2De9E1c]"
      ],
      "transaction": {
        "from": "0xafa9cf6c504ca060b31626879635c049e2de9e1c",
        "to": "0xec14f30b4b606ab57537ba5de5392b13029fb860",
        "gas": "0x9e8d6",
        "value": "0x0",
        "input": "0xd1d4f3da00000000000000000000000000000000000000000000000000000000000000400000000000000000000000000000000000000000000000000000000000000080000000000000000000000000000000000000000000000000000000000000000f4465627567434c506f6f6c5465737400000000000000000000000000000000000000000000000000000000000000000000000000000000000000000000000001000000000000000000000000afa9cf6c504ca060b31626879635c049e2de9e1c",
        "nonce": "0xfa",
        "chainId": "0x46f"
      },
      "additionalContracts": [
        {
          "transactionType": "CREATE2",
          "address": "0x038c52e47ae67460355394582ae0bdb7439b5612",
          "initCode": "0x3d602d80600a3d3981f3363d3d373d3d3d363d734a96dafcee20e4e383840e07c95646a3f4cf82425af43d82803e903d91602b57fd5bf3"
        }
      ],
      "isFixedGasLimit": false
    }
  ],
  "receipts": [
    {
      "status": "0x1",
      "cumulativeGasUsed": "0x7e0ec",
      "logs": [
        {
          "address": "0xfee77c6b5649f9019e0e37dae9f46ef72dd239f3",
          "topics": [
            "0xb251eb052afc73ffd02ffe85ad79990a8b3fed60d76dbc2fa2fdd7123dffd914",
            "0x000000000000000000000000afa9cf6c504ca060b31626879635c049e2de9e1c"
          ],
          "data": "0x",
          "blockHash": "0x585b7645a89e8847404e08c09814443bc7bddf6473c12659a8f0ab7b2c3a1e1c",
          "blockNumber": "0x12b865a",
          "transactionHash": "0xd9be96cecd7cf30958b6dddeb71b42e0884974da8631981b1a41a82f1d98ae33",
          "transactionIndex": "0x1",
          "logIndex": "0x0",
          "removed": false
        },
        {
          "address": "0xf4b3da4676064d1a98de8e3759b9d0a1231835bc",
          "topics": [
            "0x82ca5d1c3e8b70d734650837732d4db8ca0877240d905a367d27cba08be3b87a",
            "0x000000000000000000000000fee77c6b5649f9019e0e37dae9f46ef72dd239f3",
            "0x000000000000000000000000ec14f30b4b606ab57537ba5de5392b13029fb860"
          ],
          "data": "0x0000000000000000000000000000000000000000000000000000000000000020000000000000000000000000000000000000000000000000000000000000000f4465627567434c506f6f6c546573740000000000000000000000000000000000",
          "blockHash": "0x585b7645a89e8847404e08c09814443bc7bddf6473c12659a8f0ab7b2c3a1e1c",
          "blockNumber": "0x12b865a",
          "transactionHash": "0xd9be96cecd7cf30958b6dddeb71b42e0884974da8631981b1a41a82f1d98ae33",
          "transactionIndex": "0x1",
          "logIndex": "0x1",
          "removed": false
        },
        {
          "address": "0xec14f30b4b606ab57537ba5de5392b13029fb860",
          "topics": [
            "0x15e639cb5334ee5b47e49005d0ff7b1c2f39098dd2da49668b9085d0659757cc",
            "0x000000000000000000000000fee77c6b5649f9019e0e37dae9f46ef72dd239f3",
            "0x000000000000000000000000afa9cf6c504ca060b31626879635c049e2de9e1c"
          ],
          "data": "0x0000000000000000000000000000000000000000000000000000000000000020000000000000000000000000000000000000000000000000000000000000000f4465627567434c506f6f6c546573740000000000000000000000000000000000",
          "blockHash": "0x585b7645a89e8847404e08c09814443bc7bddf6473c12659a8f0ab7b2c3a1e1c",
          "blockNumber": "0x12b865a",
          "transactionHash": "0xd9be96cecd7cf30958b6dddeb71b42e0884974da8631981b1a41a82f1d98ae33",
          "transactionIndex": "0x1",
          "logIndex": "0x2",
          "removed": false
        }
      ],
      "logsBloom": "0x00000400000100008000000000000000000000000000000000000000000000000000000020000000000000000000000008000000000000010000100000000000080000000040000000000004000000040000000000000000000000000000000000000040000000000000000000000000000004000000000000000000080000000000080000080000000000000000000000000000000001000000000000000000000000200080000000000100000000008000000020080000000000000000000000001000000000000000000000000000000000008000000000000000000000000000000004000000000000000000000000000000000000100000000000000000",
      "type": "0x2",
      "transactionHash": "0xd9be96cecd7cf30958b6dddeb71b42e0884974da8631981b1a41a82f1d98ae33",
      "transactionIndex": "0x1",
      "blockHash": "0x585b7645a89e8847404e08c09814443bc7bddf6473c12659a8f0ab7b2c3a1e1c",
      "blockNumber": "0x12b865a",
      "gasUsed": "0x72ca0",
      "effectiveGasPrice": "0x32b0",
      "from": "0xafa9cf6c504ca060b31626879635c049e2de9e1c",
      "to": "0xec14f30b4b606ab57537ba5de5392b13029fb860",
      "contractAddress": null,
      "l1BaseFeeScalar": "0x90f6",
      "l1BlobBaseFee": "0x1",
      "l1BlobBaseFeeScalar": "0x125749",
      "l1Fee": "0xd281ae73d",
      "l1GasPrice": "0x32926d71",
      "l1GasUsed": "0x702"
    }
  ],
  "libraries": [],
  "pending": [],
  "returns": {},
  "timestamp": 1753988107,
  "chain": 1135,
  "commit": "4809a7c"
}