{
  "transactions": [
    {
      "hash": "0x260ade339967eb267fde4079b68b14017944901d6cdcf271b6f811499527c343",
      "transactionType": "CALL",
      "contractName": null,
      "contractAddress": "0xa047746a7c7d0b92bcd239b086448ce080fb2ae7",
      "function": "authorizeCircle(address)",
      "arguments": [
        "0x6d700698e29CBc7D93523E7C9a68DdBEC87E20D3"
      ],
      "transaction": {
        "from": "0xafa9cf6c504ca060b31626879635c049e2de9e1c",
        "to": "0xa047746a7c7d0b92bcd239b086448ce080fb2ae7",
        "gas": "0x1077b",
        "value": "0x0",
        "input": "0x4a81067d0000000000000000000000006d700698e29cbc7d93523e7c9a68ddbec87e20d3",
        "nonce": "0x101",
        "chainId": "0x46f"
      },
      "additionalContracts": [],
      "isFixedGasLimit": false
    },
    {
      "hash": "0xfc98b9db10d854b11dbd6f68a1030d6a7597dc9ae04891adf4c8668d9e7052ad",
      "transactionType": "CALL",
      "contractName": null,
      "contractAddress": "0xbdad2615bb45d81c9b172d3393ecfddc89c277a8",
      "function": "authorizeCircle(address)",
      "arguments": [
        "0x6d700698e29CBc7D93523E7C9a68DdBEC87E20D3"
      ],
      "transaction": {
        "from": "0xafa9cf6c504ca060b31626879635c049e2de9e1c",
        "to": "0xbdad2615bb45d81c9b172d3393ecfddc89c277a8",
        "gas": "0x10764",
        "value": "0x0",
        "input": "0x4a81067d0000000000000000000000006d700698e29cbc7d93523e7c9a68ddbec87e20d3",
        "nonce": "0x102",
        "chainId": "0x46f"
      },
      "additionalContracts": [],
      "isFixedGasLimit": false
    }
  ],
  "receipts": [
    {
      "status": "0x1",
      "cumulativeGasUsed": "0x1eeb9",
      "logs": [],
      "logsBloom": "0x00000000000000000000000000000000000000000000000000000000000000000000000000000000000000000000000000000000000000000000000000000000000000000000000000000000000000000000000000000000000000000000000000000000000000000000000000000000000000000000000000000000000000000000000000000000000000000000000000000000000000000000000000000000000000000000000000000000000000000000000000000000000000000000000000000000000000000000000000000000000000000000000000000000000000000000000000000000000000000000000000000000000000000000000000000000",
      "type": "0x2",
      "transactionHash": "0x260ade339967eb267fde4079b68b14017944901d6cdcf271b6f811499527c343",
      "transactionIndex": "0x2",
      "blockHash": "0xf5b9527fd501a946d18843831df46118592a351fafbc5f2bf9c134e38722ddbc",
      "blockNumber": "0x12b9cb8",
      "gasUsed": "0xb429",
      "effectiveGasPrice": "0xbaba",
      "from": "0xafa9cf6c504ca060b31626879635c049e2de9e1c",
      "to": "0xa047746a7c7d0b92bcd239b086448ce080fb2ae7",
      "contractAddress": null,
      "l1BaseFeeScalar": "0x90f6",
      "l1BlobBaseFee": "0x1",
      "l1BlobBaseFeeScalar": "0x125749",
      "l1Fee": "0xa5de42341",
      "l1GasPrice": "0x2cb244be",
      "l1GasUsed": "0x640"
    },
    {
      "status": "0x1",
      "cumulativeGasUsed": "0x2a2d2",
      "logs": [],
      "logsBloom": "0x00000000000000000000000000000000000000000000000000000000000000000000000000000000000000000000000000000000000000000000000000000000000000000000000000000000000000000000000000000000000000000000000000000000000000000000000000000000000000000000000000000000000000000000000000000000000000000000000000000000000000000000000000000000000000000000000000000000000000000000000000000000000000000000000000000000000000000000000000000000000000000000000000000000000000000000000000000000000000000000000000000000000000000000000000000000",
      "type": "0x2",
      "transactionHash": "0xfc98b9db10d854b11dbd6f68a1030d6a7597dc9ae04891adf4c8668d9e7052ad",
      "transactionIndex": "0x3",
      "blockHash": "0xf5b9527fd501a946d18843831df46118592a351fafbc5f2bf9c134e38722ddbc",
      "blockNumber": "0x12b9cb8",
      "gasUsed": "0xb419",
      "effectiveGasPrice": "0xbaba",
      "from": "0xafa9cf6c504ca060b31626879635c049e2de9e1c",
      "to": "0xbdad2615bb45d81c9b172d3393ecfddc89c277a8",
      "contractAddress": null,
      "l1BaseFeeScalar": "0x90f6",
      "l1BlobBaseFee": "0x1",
      "l1BlobBaseFeeScalar": "0x125749",
      "l1Fee": "0xa5de42341",
      "l1GasPrice": "0x2cb244be",
      "l1GasUsed": "0x640"
    }
  ],
  "libraries": [],
  "pending": [],
  "returns": {},
  "timestamp": 1753999561,
  "chain": 1135,
  "commit": "4809a7c"
}