{
  "transactions": [
    {
      "hash": "0xcf4353c27eb8fb8bbcfed655257f56007850b2584c710cb5a947b6cf6d525e58",
      "transactionType": "CREATE",
      "contractName": "CircleRegistry",
      "contractAddress": "0x0a0504ad9277bb43a5c23226fe8bea270f2ac931",
      "function": null,
      "arguments": null,
      "transaction": {
        "from": "0xafa9cf6c504ca060b31626879635c049e2de9e1c",
        "gas": "0xc1835",
        "value": "0x0",
        "input": "0x608060405234801561000f575f80fd5b50610a0e8061001d5f395ff3fe608060405234801561000f575f80fd5b5060043610610090575f3560e01c806388e81d8a1161006357806388e81d8a1461013f578063a1015a091461015f578063e1908c6e1461018a578063e1f2dfce1461019d578063e8ba43bf146101ad575f80fd5b80630950dc1f146100945780631d5660a9146100c45780633db2d826146100f65780636393b4f41461012a575b5f80fd5b6100a76100a23660046106be565b6101c0565b6040516001600160a01b0390911681526020015b60405180910390f35b6100e66100d23660046106e6565b60026020525f908152604090205460ff1681565b60405190151581526020016100bb565b6100a76101043660046107b7565b80516020818301810180516003825292820191909301209152546001600160a01b031681565b61013d6101383660046107f1565b6101f4565b005b61015261014d3660046106e6565b610517565b6040516100bb91906108ce565b6100e661016d3660046106e6565b6001600160a01b03165f9081526002602052604090205460ff1690565b6100a761019836600461091a565b61058a565b5f546040519081526020016100bb565b61013d6101bb3660046106e6565b6105b1565b6001602052815f5260405f2081815481106101d9575f80fd5b5f918252602090912001546001600160a01b03169150829050565b6001600160a01b0383166102485760405162461bcd60e51b8152602060048201526016602482015275496e76616c696420636972636c65206164647265737360501b60448201526064015b60405180910390fd5b6001600160a01b0383165f9081526002602052604090205460ff16156102b05760405162461bcd60e51b815260206004820152601960248201527f436972636c6520616c7265616479207265676973746572656400000000000000604482015260640161023f565b5f6001600160a01b03166003836040516102ca9190610953565b908152604051908190036020019020546001600160a01b0316146103255760405162461bcd60e51b81526020600482015260126024820152712730b6b29030b63932b0b23c903a30b5b2b760711b604482015260640161023f565b5f825111801561033757506032825111155b6103725760405162461bcd60e51b815260206004820152600c60248201526b496e76616c6964206e616d6560a01b604482015260640161023f565b5f8054600180820183557f290decd9548b62a8d60345a988386fc84ba6bc95484008f6362f93160ef3e56390910180546001600160a01b0319166001600160a01b03871690811790915582526002602052604091829020805460ff191690911790555183906003906103e5908590610953565b90815260405190819003602001902080546001600160a01b03929092166001600160a01b03199092169190911790555f5b81518110156104c6575f6001600160a01b031682828151811061043b5761043b61096e565b60200260200101516001600160a01b0316146104b45760015f8383815181106104665761046661096e565b6020908102919091018101516001600160a01b0390811683528282019390935260409091015f90812080546001810182559082529190200180546001600160a01b0319169186169190911790555b806104be81610982565b915050610416565b50336001600160a01b0316836001600160a01b03167f82ca5d1c3e8b70d734650837732d4db8ca0877240d905a367d27cba08be3b87a8460405161050a91906109a6565b60405180910390a3505050565b6001600160a01b0381165f9081526001602090815260409182902080548351818402810184019094528084526060939283018282801561057e57602002820191905f5260205f20905b81546001600160a01b03168152600190910190602001808311610560575b50505050509050919050565b5f8181548110610598575f80fd5b5f918252602090912001546001600160a01b0316905081565b335f9081526002602052604090205460ff1661060f5760405162461bcd60e51b815260206004820152601760248201527f4f6e6c79207265676973746572656420636972636c6573000000000000000000604482015260640161023f565b6001600160a01b0381165f908152600160205260408120905b815481101561067d57336001600160a01b031682828154811061064d5761064d61096e565b5f918252602090912001546001600160a01b03160361066b57505050565b8061067581610982565b915050610628565b5080546001810182555f91825260209091200180546001600160a01b0319163317905550565b80356001600160a01b03811681146106b9575f80fd5b919050565b5f80604083850312156106cf575f80fd5b6106d8836106a3565b946020939093013593505050565b5f602082840312156106f6575f80fd5b6106ff826106a3565b9392505050565b634e487b7160e01b5f52604160045260245ffd5b604051601f8201601f1916810167ffffffffffffffff8111828210171561074357610743610706565b604052919050565b5f82601f83011261075a575f80fd5b813567ffffffffffffffff81111561077457610774610706565b610787601f8201601f191660200161071a565b81815284602083860101111561079b575f80fd5b816020850160208301375f918101602001919091529392505050565b5f602082840312156107c7575f80fd5b813567ffffffffffffffff8111156107dd575f80fd5b6107e98482850161074b565b949350505050565b5f805f60608486031215610803575f80fd5b61080c846106a3565b925060208085013567ffffffffffffffff80821115610829575f80fd5b6108358883890161074b565b9450604087013591508082111561084a575f80fd5b818701915087601f83011261085d575f80fd5b81358181111561086f5761086f610706565b8060051b915061088084830161071a565b818152918301840191848101908a841115610899575f80fd5b938501935b838510156108be576108af856106a3565b8252938501939085019061089e565b8096505050505050509250925092565b602080825282518282018190525f9190848201906040850190845b8181101561090e5783516001600160a01b0316835292840192918401916001016108e9565b50909695505050505050565b5f6020828403121561092a575f80fd5b5035919050565b5f5b8381101561094b578181015183820152602001610933565b50505f910152565b5f8251610964818460208701610931565b9190910192915050565b634e487b7160e01b5f52603260045260245ffd5b5f6001820161099f57634e487b7160e01b5f52601160045260245ffd5b5060010190565b602081525f82518060208401526109c4816040850160208701610931565b601f01601f1916919091016040019291505056fea26469706673582212201d8dd44cf08e54f285120a028c6e38b0aa2d82293926caed5e518657afbe244e64736f6c63430008140033",
        "nonce": "0x42",
        "chainId": "0x46f"
      },
      "additionalContracts": [],
      "isFixedGasLimit": false
    },
    {
      "hash": "0xff8c173e2656c32f72e69efe466bb2d58db051b6bcaee941460cc61f4b903591",
      "transactionType": "CALL",
      "contractName": "CircleRegistry",
      "contractAddress": "0x0a0504ad9277bb43a5c23226fe8bea270f2ac931",
      "function": "registerCircle(address,string,address[])",
      "arguments": [
        "0xdfEfcC48487e2eB501e378D0263eCC3B10B02959",
        "Fresh Circle with Morpho",
        "[0xAFA9CF6c504Ca060B31626879635c049E2De9E1c]"
      ],
      "transaction": {
        "from": "0xafa9cf6c504ca060b31626879635c049e2de9e1c",
        "to": "0x0a0504ad9277bb43a5c23226fe8bea270f2ac931",
        "gas": "0x365a8",
        "value": "0x0",
        "input": "0x6393b4f4000000000000000000000000dfefcc48487e2eb501e378d0263ecc3b10b02959000000000000000000000000000000000000000000000000000000000000006000000000000000000000000000000000000000000000000000000000000000a00000000000000000000000000000000000000000000000000000000000000018467265736820436972636c652077697468204d6f7270686f00000000000000000000000000000000000000000000000000000000000000000000000000000001000000000000000000000000afa9cf6c504ca060b31626879635c049e2de9e1c",
        "nonce": "0x43",
        "chainId": "0x46f"
      },
      "additionalContracts": [],
      "isFixedGasLimit": false
    }
  ],
  "receipts": [
    {
      "status": "0x1",
      "cumulativeGasUsed": "0xa01ff",
      "logs": [],
      "logsBloom": "0x00000000000000000000000000000000000000000000000000000000000000000000000000000000000000000000000000000000000000000000000000000000000000000000000000000000000000000000000000000000000000000000000000000000000000000000000000000000000000000000000000000000000000000000000000000000000000000000000000000000000000000000000000000000000000000000000000000000000000000000000000000000000000000000000000000000000000000000000000000000000000000000000000000000000000000000000000000000000000000000000000000000000000000000000000000000",
      "type": "0x2",
      "transactionHash": "0xcf4353c27eb8fb8bbcfed655257f56007850b2584c710cb5a947b6cf6d525e58",
      "transactionIndex": "0x1",
      "blockHash": "0x63f2b45630a880a24bc726629751f026e190aefadcff1ec871a89fe448a51e04",
      "blockNumber": "0x1279b65",
      "gasUsed": "0x94db3",
      "effectiveGasPrice": "0xf4637",
      "from": "0xafa9cf6c504ca060b31626879635c049e2de9e1c",
      "to": null,
      "contractAddress": "0x0a0504ad9277bb43a5c23226fe8bea270f2ac931",
      "l1BaseFeeScalar": "0x90f6",
      "l1BlobBaseFee": "0x1",
      "l1BlobBaseFeeScalar": "0x125749",
      "l1Fee": "0x39602312f2",
      "l1GasPrice": "0xf1e440f",
      "l1GasUsed": "0x6644"
    },
    {
      "status": "0x1",
      "cumulativeGasUsed": "0x34aaf",
      "logs": [
        {
          "address": "0x0a0504ad9277bb43a5c23226fe8bea270f2ac931",
          "topics": [
            "0x82ca5d1c3e8b70d734650837732d4db8ca0877240d905a367d27cba08be3b87a",
            "0x000000000000000000000000dfefcc48487e2eb501e378d0263ecc3b10b02959",
            "0x000000000000000000000000afa9cf6c504ca060b31626879635c049e2de9e1c"
          ],
          "data": "0x00000000000000000000000000000000000000000000000000000000000000200000000000000000000000000000000000000000000000000000000000000018467265736820436972636c652077697468204d6f7270686f0000000000000000",
          "blockHash": "0x2c4b38519f14db932b55615886aa8d97da797e435ed272cef8f05cafa8cd7edd",
          "blockNumber": "0x1279b68",
          "transactionHash": "0xff8c173e2656c32f72e69efe466bb2d58db051b6bcaee941460cc61f4b903591",
          "transactionIndex": "0x1",
          "logIndex": "0x0",
          "removed": false
        }
      ],
      "logsBloom": "0x00000000000000000000000000000000000000000000000000000000000000000000000000000000000000000000000000000000000000000000000000010000000000000000000000000000000000040000000000000000000000000000000000000000000000000000000000000000000000000000000000000000000000080000000000000000000000000000000000000000000000000000000000000000000000200080840000000100000000000000000020000000000000000000000000000000000000000000000000000000000000000000000000000000000000000000000000000000000000000000000000000000000001100000000000000008",
      "type": "0x2",
      "transactionHash": "0xff8c173e2656c32f72e69efe466bb2d58db051b6bcaee941460cc61f4b903591",
      "transactionIndex": "0x1",
      "blockHash": "0x2c4b38519f14db932b55615886aa8d97da797e435ed272cef8f05cafa8cd7edd",
      "blockNumber": "0x1279b68",
      "gasUsed": "0x2759f",
      "effectiveGasPrice": "0xf4637",
      "from": "0xafa9cf6c504ca060b31626879635c049e2de9e1c",
      "to": "0x0a0504ad9277bb43a5c23226fe8bea270f2ac931",
      "contractAddress": null,
      "l1BaseFeeScalar": "0x90f6",
      "l1BlobBaseFee": "0x1",
      "l1BlobBaseFeeScalar": "0x125749",
      "l1Fee": "0x59a2cc2d2",
      "l1GasPrice": "0x10ae9fcd",
      "l1GasUsed": "0x90c"
    }
  ],
  "libraries": [],
  "pending": [],
  "returns": {},
  "timestamp": 1753474600,
  "chain": 1135,
  "commit": "4809a7c"
}