{
  "transactions": [
    {
      "hash": "0x196f2a456ffa9cbf4b3348b4df8a0089c7dd097e0c2f625bd17295d300cee363",
      "transactionType": "CREATE",
      "contractName": "SwapModule",
      "contractAddress": "0x6b70ce2682db41510d39992a8f72ab1a7b26b4d6",
      "function": null,
      "arguments": null,
      "transaction": {
        "from": "0xafa9cf6c504ca060b31626879635c049e2de9e1c",
        "gas": "0xc46dc",
        "value": "0x0",
        "input": "0x60c060405234801561000f575f80fd5b50734200000000000000000000000000000000000006608052739c69e0b64a63aa7daa0b5dc61df3cc77ea05bcb360a052600180546001600160a01b0319163317905560805160a0516109d461008d5f395f8181608301528181610389015261048e01525f818160c70152818161031301526106d701526109d45ff3fe608060405234801561000f575f80fd5b506004361061007a575f3560e01c8063536fff6c11610058578063536fff6c146100fe5780638da5cb5b14610130578063eb84d05a14610143578063fa461e3314610164575f80fd5b806316f0115b1461007e5780633fc8cef3146100c25780634a81067d146100e9575b5f80fd5b6100a57f000000000000000000000000000000000000000000000000000000000000000081565b6040516001600160a01b0390911681526020015b60405180910390f35b6100a57f000000000000000000000000000000000000000000000000000000000000000081565b6100fc6100f7366004610768565b610177565b005b61012061010c366004610768565b5f6020819052908152604090205460ff1681565b60405190151581526020016100b9565b6001546100a5906001600160a01b031681565b61015661015136600461078a565b6101e6565b6040519081526020016100b9565b6100fc6101723660046107a1565b610649565b6001546001600160a01b031633146101c35760405162461bcd60e51b815260206004820152600a60248201526927b7363c9037bbb732b960b11b60448201526064015b60405180910390fd5b6001600160a01b03165f908152602081905260409020805460ff19166001179055565b335f9081526020819052604081205460ff166102335760405162461bcd60e51b815260206004820152600c60248201526b155b985d5d1a1bdc9a5e995960a21b60448201526064016101ba565b6040516323b872dd60e01b8152336004820152306024820152604481018390526006602160991b01906323b872dd906064016020604051808303815f875af1158015610281573d5f803e3d5ffd5b505050506040513d601f19601f820116820180604052508101906102a5919061082e565b6102e35760405162461bcd60e51b815260206004820152600f60248201526e151c985b9cd9995c8819985a5b1959608a1b60448201526064016101ba565b60405163095ea7b360e01b8152739c69e0b64a63aa7daa0b5dc61df3cc77ea05bcb36004820152602481018390527f00000000000000000000000000000000000000000000000000000000000000006001600160a01b03169063095ea7b3906044016020604051808303815f875af1158015610361573d5f803e3d5ffd5b505050506040513d601f19601f82011682018060405250810190610385919061082e565b505f7f00000000000000000000000000000000000000000000000000000000000000006001600160a01b0316633850c7bd6040518163ffffffff1660e01b815260040160e060405180830381865afa1580156103e3573d5f803e3d5ffd5b505050506040513d601f19601f820116820180604052508101906104079190610858565b50505050505090505f603290505f61271082846001600160a01b031661042d91906108ff565b610437919061091c565b905060015f610446838661093b565b604051630251596160e31b81523060048201528315156024820152604481018990526001600160a01b03828116606483015260a060848301525f60a4830181905292935082917f00000000000000000000000000000000000000000000000000000000000000009091169063128acb089060c40160408051808303815f875af11580156104d5573d5f803e3d5ffd5b505050506040513d601f19601f820116820180604052508101906104f99190610962565b915091508061050790610984565b97505f88116105465760405162461bcd60e51b815260206004820152600b60248201526a14ddd85c0819985a5b195960aa1b60448201526064016101ba565b60405163a9059cbb60e01b8152336004820152602481018990527376d8de471f54aaa87784119c60df1bbfc852c4159063a9059cbb906044016020604051808303815f875af115801561059b573d5f803e3d5ffd5b505050506040513d601f19601f820116820180604052508101906105bf919061082e565b6106045760405162461bcd60e51b81526020600482015260166024820152751ddcdd115512081d1c985b9cd9995c8819985a5b195960521b60448201526064016101ba565b604080518a8152602081018a90527f4f73e5828387c436ef01a51b03853873e76d7a5551556837d452cbeb6f285cb5910160405180910390a150505050505050919050565b33739c69e0b64a63aa7daa0b5dc61df3cc77ea05bcb31461069f5760405162461bcd60e51b815260206004820152601060248201526f496e76616c69642063616c6c6261636b60801b60448201526064016101ba565b5f84131561074b5760405163a9059cbb60e01b8152739c69e0b64a63aa7daa0b5dc61df3cc77ea05bcb36004820152602481018590527f00000000000000000000000000000000000000000000000000000000000000006001600160a01b03169063a9059cbb906044016020604051808303815f875af1158015610725573d5f803e3d5ffd5b505050506040513d601f19601f82011682018060405250810190610749919061082e565b505b50505050565b6001600160a01b0381168114610765575f80fd5b50565b5f60208284031215610778575f80fd5b813561078381610751565b9392505050565b5f6020828403121561079a575f80fd5b5035919050565b5f805f80606085870312156107b4575f80fd5b8435935060208501359250604085013567ffffffffffffffff808211156107d9575f80fd5b818701915087601f8301126107ec575f80fd5b8135818111156107fa575f80fd5b88602082850101111561080b575f80fd5b95989497505060200194505050565b80518015158114610829575f80fd5b919050565b5f6020828403121561083e575f80fd5b6107838261081a565b805161ffff81168114610829575f80fd5b5f805f805f805f60e0888a03121561086e575f80fd5b875161087981610751565b8097505060208801518060020b8114610890575f80fd5b955061089e60408901610847565b94506108ac60608901610847565b93506108ba60808901610847565b925060a088015160ff811681146108cf575f80fd5b91506108dd60c0890161081a565b905092959891949750929550565b634e487b7160e01b5f52601160045260245ffd5b8082028115828204841417610916576109166108eb565b92915050565b5f8261093657634e487b7160e01b5f52601260045260245ffd5b500490565b6001600160a01b0382811682821603908082111561095b5761095b6108eb565b5092915050565b5f8060408385031215610973575f80fd5b505080516020909101519092909150565b5f600160ff1b8201610998576109986108eb565b505f039056fea264697066735822122021d47d8acc2e7c024db382666363ce79e088222dc529b915d131ba35bb9ef9ee64736f6c63430008140033",
        "nonce": "0x12d",
        "chainId": "0x46f"
      },
      "additionalContracts": [],
      "isFixedGasLimit": false
    },
    {
      "hash": "0x729b92faf08a87bd8bfb6d8d041763fe0fbaba9bfa3e2f37d0ab2186b32ed0c6",
      "transactionType": "CREATE",
      "contractName": "LendingModule",
      "contractAddress": "0x692c477caa49309fd47ce3500fd3cc81f2928347",
      "function": null,
      "arguments": null,
      "transaction": {
        "from": "0xafa9cf6c504ca060b31626879635c049e2de9e1c",
        "gas": "0xa5b90",
        "value": "0x0",
        "input": "0x60e060405234801561000f575f80fd5b507342000000000000000000000000000000000000066080527376d8de471f54aaa87784119c60df1bbfc852c41560a05273fbd7b8e2fc0ac7a43c70d96b903f4a5dadfa4d6660c052600180546001600160a01b0319163317905560805160a05160c0516108146100ae5f395f81816101bb0152818161044f015261054801525f818160fe015261038601525f8181608d01526105d101526108145ff3fe608060405260043610610071575f3560e01c8063536fff6c1161004c578063536fff6c146101205780638da5cb5b1461015e57806390c0d5961461017d578063d8fbc833146101aa575f80fd5b80633fc8cef31461007c5780634a81067d146100cc5780634aa07e64146100ed575f80fd5b3661007857005b5f80fd5b348015610087575f80fd5b506100af7f000000000000000000000000000000000000000000000000000000000000000081565b6040516001600160a01b0390911681526020015b60405180910390f35b3480156100d7575f80fd5b506100eb6100e636600461074b565b6101dd565b005b3480156100f8575f80fd5b506100af7f000000000000000000000000000000000000000000000000000000000000000081565b34801561012b575f80fd5b5061014e61013a36600461074b565b5f6020819052908152604090205460ff1681565b60405190151581526020016100c3565b348015610169575f80fd5b506001546100af906001600160a01b031681565b348015610188575f80fd5b5061019c61019736600461076b565b61024c565b6040519081526020016100c3565b3480156101b5575f80fd5b506100af7f000000000000000000000000000000000000000000000000000000000000000081565b6001546001600160a01b031633146102295760405162461bcd60e51b815260206004820152600a60248201526927b7363c9037bbb732b960b11b60448201526064015b60405180910390fd5b6001600160a01b03165f908152602081905260409020805460ff19166001179055565b335f9081526020819052604081205460ff166102995760405162461bcd60e51b815260206004820152600c60248201526b155b985d5d1a1bdc9a5e995960a21b6044820152606401610220565b6040516323b872dd60e01b8152336004820152306024820152604481018590527376d8de471f54aaa87784119c60df1bbfc852c415906323b872dd906064016020604051808303815f875af11580156102f4573d5f803e3d5ffd5b505050506040513d601f19601f82011682018060405250810190610318919061079d565b6103565760405162461bcd60e51b815260206004820152600f60248201526e151c985b9cd9995c8819985a5b1959608a1b6044820152606401610220565b60405163095ea7b360e01b815273fbd7b8e2fc0ac7a43c70d96b903f4a5dadfa4d666004820152602481018590527f00000000000000000000000000000000000000000000000000000000000000006001600160a01b03169063095ea7b3906044016020604051808303815f875af11580156103d4573d5f803e3d5ffd5b505050506040513d601f19601f820116820180604052508101906103f8919061079d565b506040516374c6881f60e11b81527fd1cf8c315f54e808c89be488b51ad2a6949bc8a5f83f62d30e0ab0290e3260f06004820152602481018590525f6044820181905233606483015260a0608483015260a48201527f00000000000000000000000000000000000000000000000000000000000000006001600160a01b03169063e98d103e9060c40160408051808303815f875af115801561049c573d5f803e3d5ffd5b505050506040513d601f19601f820116820180604052508101906104c091906107bc565b5050604080518581523360208201527fc746ea777b1da0310da2ae713c73990a15d4b72d2e723fcb283b8b9e81f79d80910160405180910390a1604051633809a9cf60e01b81527fd1cf8c315f54e808c89be488b51ad2a6949bc8a5f83f62d30e0ab0290e3260f06004820152602481018490525f60448201523360648201523060848201527f00000000000000000000000000000000000000000000000000000000000000006001600160a01b031690633809a9cf9060a40160408051808303815f875af1158015610595573d5f803e3d5ffd5b505050506040513d601f19601f820116820180604052508101906105b991906107bc565b5050604051632e1a7d4d60e01b8152600481018490527f00000000000000000000000000000000000000000000000000000000000000006001600160a01b031690632e1a7d4d906024015f604051808303815f87803b15801561061a575f80fd5b505af115801561062c573d5f803e3d5ffd5b505050505f826001600160a01b0316846040515f6040518083038185875af1925050503d805f8114610679576040519150601f19603f3d011682016040523d82523d5f602084013e61067e565b606091505b50509050806106c55760405162461bcd60e51b8152602060048201526013602482015272115512081d1c985b9cd9995c8819985a5b1959606a1b6044820152606401610220565b604080518581526001600160a01b03851660208201527f6e02acee5001c9c48e033cce6e7193e2717a4dc1d239424dcf41e995471f6385910160405180910390a1507fd1cf8c315f54e808c89be488b51ad2a6949bc8a5f83f62d30e0ab0290e3260f0949350505050565b80356001600160a01b0381168114610746575f80fd5b919050565b5f6020828403121561075b575f80fd5b61076482610730565b9392505050565b5f805f6060848603121561077d575f80fd5b833592506020840135915061079460408501610730565b90509250925092565b5f602082840312156107ad575f80fd5b81518015158114610764575f80fd5b5f80604083850312156107cd575f80fd5b50508051602090910151909290915056fea26469706673582212204249fadeafd856f5f2a30d5f7508862388a85d0861fe12eb6eb60ae88c94fb0d64736f6c63430008140033",
        "nonce": "0x12e",
        "chainId": "0x46f"
      },
      "additionalContracts": [],
      "isFixedGasLimit": false
    },
    {
      "hash": "0x3454bf2456ecde914948e8099173574f980ee8020c5e47822799b0e52606142b",
      "transactionType": "CALL",
      "contractName": "SwapModule",
      "contractAddress": "0x6b70ce2682db41510d39992a8f72ab1a7b26b4d6",
      "function": "authorizeCircle(address)",
      "arguments": [
        "0x278Bd6D9858993C8F6C0f458fDE5Cb74A9989b4B"
      ],
      "transaction": {
        "from": "0xafa9cf6c504ca060b31626879635c049e2de9e1c",
        "to": "0x6b70ce2682db41510d39992a8f72ab1a7b26b4d6",
        "gas": "0x1077b",
        "value": "0x0",
        "input": "0x4a81067d000000000000000000000000278bd6d9858993c8f6c0f458fde5cb74a9989b4b",
        "nonce": "0x12f",
        "chainId": "0x46f"
      },
      "additionalContracts": [],
      "isFixedGasLimit": false
    },
    {
      "hash": "0x3f1afd5f70a2b826297487dbd1182a47c1fbdddd5d739f884cd2e7afdef5d872",
      "transactionType": "CALL",
      "contractName": "SwapModule",
      "contractAddress": "0x6b70ce2682db41510d39992a8f72ab1a7b26b4d6",
      "function": "authorizeCircle(address)",
      "arguments": [
        "0x42763dE10Cc0fAE0DA120F046cC3834d5AccDBF9"
      ],
      "transaction": {
        "from": "0xafa9cf6c504ca060b31626879635c049e2de9e1c",
        "to": "0x6b70ce2682db41510d39992a8f72ab1a7b26b4d6",
        "gas": "0x1077b",
        "value": "0x0",
        "input": "0x4a81067d00000000000000000000000042763de10cc0fae0da120f046cc3834d5accdbf9",
        "nonce": "0x130",
        "chainId": "0x46f"
      },
      "additionalContracts": [],
      "isFixedGasLimit": false
    },
    {
      "hash": "0xcf699afdee32f9190b27f0bce93dc4a9ce448a6a1739c1decd25b99ae2cb5ee2",
      "transactionType": "CALL",
      "contractName": "LendingModule",
      "contractAddress": "0x692c477caa49309fd47ce3500fd3cc81f2928347",
      "function": "authorizeCircle(address)",
      "arguments": [
        "0x278Bd6D9858993C8F6C0f458fDE5Cb74A9989b4B"
      ],
      "transaction": {
        "from": "0xafa9cf6c504ca060b31626879635c049e2de9e1c",
        "to": "0x692c477caa49309fd47ce3500fd3cc81f2928347",
        "gas": "0x10764",
        "value": "0x0",
        "input": "0x4a81067d000000000000000000000000278bd6d9858993c8f6c0f458fde5cb74a9989b4b",
        "nonce": "0x131",
        "chainId": "0x46f"
      },
      "additionalContracts": [],
      "isFixedGasLimit": false
    },
    {
      "hash": "0xbdb638a8c9937384798e145eda7931feb426dbc36b726d318fb5d0d3be68aeb4",
      "transactionType": "CALL",
      "contractName": "LendingModule",
      "contractAddress": "0x692c477caa49309fd47ce3500fd3cc81f2928347",
      "function": "authorizeCircle(address)",
      "arguments": [
        "0x42763dE10Cc0fAE0DA120F046cC3834d5AccDBF9"
      ],
      "transaction": {
        "from": "0xafa9cf6c504ca060b31626879635c049e2de9e1c",
        "to": "0x692c477caa49309fd47ce3500fd3cc81f2928347",
        "gas": "0x10764",
        "value": "0x0",
        "input": "0x4a81067d00000000000000000000000042763de10cc0fae0da120f046cc3834d5accdbf9",
        "nonce": "0x132",
        "chainId": "0x46f"
      },
      "additionalContracts": [],
      "isFixedGasLimit": false
    }
  ],
  "receipts": [
    {
      "status": "0x1",
      "cumulativeGasUsed": "0xa25d6",
      "logs": [],
      "logsBloom": "0x00000000000000000000000000000000000000000000000000000000000000000000000000000000000000000000000000000000000000000000000000000000000000000000000000000000000000000000000000000000000000000000000000000000000000000000000000000000000000000000000000000000000000000000000000000000000000000000000000000000000000000000000000000000000000000000000000000000000000000000000000000000000000000000000000000000000000000000000000000000000000000000000000000000000000000000000000000000000000000000000000000000000000000000000000000000",
      "type": "0x2",
      "transactionHash": "0x196f2a456ffa9cbf4b3348b4df8a0089c7dd097e0c2f625bd17295d300cee363",
      "transactionIndex": "0x1",
      "blockHash": "0xae644ed2236444e5050693530357df42dd818868cc8323e6fc215a6c0e0c48be",
      "blockNumber": "0x12c039b",
      "gasUsed": "0x97196",
      "effectiveGasPrice": "0x2b07",
      "from": "0xafa9cf6c504ca060b31626879635c049e2de9e1c",
      "to": null,
      "contractAddress": "0x6b70ce2682db41510d39992a8f72ab1a7b26b4d6",
      "l1BaseFeeScalar": "0x90f6",
      "l1BlobBaseFee": "0x1",
      "l1BlobBaseFeeScalar": "0x125749",
      "l1Fee": "0xa97e27ef5b",
      "l1GasPrice": "0x31cdc448",
      "l1GasUsed": "0x5bb4"
    },
    {
      "status": "0x1",
      "cumulativeGasUsed": "0x121d80",
      "logs": [],
      "logsBloom": "0x00000000000000000000000000000000000000000000000000000000000000000000000000000000000000000000000000000000000000000000000000000000000000000000000000000000000000000000000000000000000000000000000000000000000000000000000000000000000000000000000000000000000000000000000000000000000000000000000000000000000000000000000000000000000000000000000000000000000000000000000000000000000000000000000000000000000000000000000000000000000000000000000000000000000000000000000000000000000000000000000000000000000000000000000000000000",
      "type": "0x2",
      "transactionHash": "0x729b92faf08a87bd8bfb6d8d041763fe0fbaba9bfa3e2f37d0ab2186b32ed0c6",
      "transactionIndex": "0x2",
      "blockHash": "0xae644ed2236444e5050693530357df42dd818868cc8323e6fc215a6c0e0c48be",
      "blockNumber": "0x12c039b",
      "gasUsed": "0x7f7aa",
      "effectiveGasPrice": "0x2b07",
      "from": "0xafa9cf6c504ca060b31626879635c049e2de9e1c",
      "to": null,
      "contractAddress": "0x692c477caa49309fd47ce3500fd3cc81f2928347",
      "l1BaseFeeScalar": "0x90f6",
      "l1BlobBaseFee": "0x1",
      "l1BlobBaseFeeScalar": "0x125749",
      "l1Fee": "0x89e54dba10",
      "l1GasPrice": "0x31cdc448",
      "l1GasUsed": "0x4a9c"
    },
    {
      "status": "0x1",
      "cumulativeGasUsed": "0x12d1a9",
      "logs": [],
      "logsBloom": "0x00000000000000000000000000000000000000000000000000000000000000000000000000000000000000000000000000000000000000000000000000000000000000000000000000000000000000000000000000000000000000000000000000000000000000000000000000000000000000000000000000000000000000000000000000000000000000000000000000000000000000000000000000000000000000000000000000000000000000000000000000000000000000000000000000000000000000000000000000000000000000000000000000000000000000000000000000000000000000000000000000000000000000000000000000000000",
      "type": "0x2",
      "transactionHash": "0x3454bf2456ecde914948e8099173574f980ee8020c5e47822799b0e52606142b",
      "transactionIndex": "0x3",
      "blockHash": "0xae644ed2236444e5050693530357df42dd818868cc8323e6fc215a6c0e0c48be",
      "blockNumber": "0x12c039b",
      "gasUsed": "0xb429",
      "effectiveGasPrice": "0x2b07",
      "from": "0xafa9cf6c504ca060b31626879635c049e2de9e1c",
      "to": "0x6b70ce2682db41510d39992a8f72ab1a7b26b4d6",
      "contractAddress": null,
      "l1BaseFeeScalar": "0x90f6",
      "l1BlobBaseFee": "0x1",
      "l1BlobBaseFeeScalar": "0x125749",
      "l1Fee": "0xb8d26269b",
      "l1GasPrice": "0x31cdc448",
      "l1GasUsed": "0x640"
    },
    {
      "status": "0x1",
      "cumulativeGasUsed": "0x1385d2",
      "logs": [],
      "logsBloom": "0x00000000000000000000000000000000000000000000000000000000000000000000000000000000000000000000000000000000000000000000000000000000000000000000000000000000000000000000000000000000000000000000000000000000000000000000000000000000000000000000000000000000000000000000000000000000000000000000000000000000000000000000000000000000000000000000000000000000000000000000000000000000000000000000000000000000000000000000000000000000000000000000000000000000000000000000000000000000000000000000000000000000000000000000000000000000",
      "type": "0x2",
      "transactionHash": "0x3f1afd5f70a2b826297487dbd1182a47c1fbdddd5d739f884cd2e7afdef5d872",
      "transactionIndex": "0x4",
      "blockHash": "0xae644ed2236444e5050693530357df42dd818868cc8323e6fc215a6c0e0c48be",
      "blockNumber": "0x12c039b",
      "gasUsed": "0xb429",
      "effectiveGasPrice": "0x2b07",
      "from": "0xafa9cf6c504ca060b31626879635c049e2de9e1c",
      "to": "0x6b70ce2682db41510d39992a8f72ab1a7b26b4d6",
      "contractAddress": null,
      "l1BaseFeeScalar": "0x90f6",
      "l1BlobBaseFee": "0x1",
      "l1BlobBaseFeeScalar": "0x125749",
      "l1Fee": "0xb8d26269b",
      "l1GasPrice": "0x31cdc448",
      "l1GasUsed": "0x640"
    },
    {
      "status": "0x1",
      "cumulativeGasUsed": "0x1439eb",
      "logs": [],
      "logsBloom": "0x00000000000000000000000000000000000000000000000000000000000000000000000000000000000000000000000000000000000000000000000000000000000000000000000000000000000000000000000000000000000000000000000000000000000000000000000000000000000000000000000000000000000000000000000000000000000000000000000000000000000000000000000000000000000000000000000000000000000000000000000000000000000000000000000000000000000000000000000000000000000000000000000000000000000000000000000000000000000000000000000000000000000000000000000000000000",
      "type": "0x2",
      "transactionHash": "0xcf699afdee32f9190b27f0bce93dc4a9ce448a6a1739c1decd25b99ae2cb5ee2",
      "transactionIndex": "0x5",
      "blockHash": "0xae644ed2236444e5050693530357df42dd818868cc8323e6fc215a6c0e0c48be",
      "blockNumber": "0x12c039b",
      "gasUsed": "0xb419",
      "effectiveGasPrice": "0x2b07",
      "from": "0xafa9cf6c504ca060b31626879635c049e2de9e1c",
      "to": "0x692c477caa49309fd47ce3500fd3cc81f2928347",
      "contractAddress": null,
      "l1BaseFeeScalar": "0x90f6",
      "l1BlobBaseFee": "0x1",
      "l1BlobBaseFeeScalar": "0x125749",
      "l1Fee": "0xb8d26269b",
      "l1GasPrice": "0x31cdc448",
      "l1GasUsed": "0x640"
    },
    {
      "status": "0x1",
      "cumulativeGasUsed": "0x14ee04",
      "logs": [],
      "logsBloom": "0x00000000000000000000000000000000000000000000000000000000000000000000000000000000000000000000000000000000000000000000000000000000000000000000000000000000000000000000000000000000000000000000000000000000000000000000000000000000000000000000000000000000000000000000000000000000000000000000000000000000000000000000000000000000000000000000000000000000000000000000000000000000000000000000000000000000000000000000000000000000000000000000000000000000000000000000000000000000000000000000000000000000000000000000000000000000",
      "type": "0x2",
      "transactionHash": "0xbdb638a8c9937384798e145eda7931feb426dbc36b726d318fb5d0d3be68aeb4",
      "transactionIndex": "0x6",
      "blockHash": "0xae644ed2236444e5050693530357df42dd818868cc8323e6fc215a6c0e0c48be",
      "blockNumber": "0x12c039b",
      "gasUsed": "0xb419",
      "effectiveGasPrice": "0x2b07",
      "from": "0xafa9cf6c504ca060b31626879635c049e2de9e1c",
      "to": "0x692c477caa49309fd47ce3500fd3cc81f2928347",
      "contractAddress": null,
      "l1BaseFeeScalar": "0x90f6",
      "l1BlobBaseFee": "0x1",
      "l1BlobBaseFeeScalar": "0x125749",
      "l1Fee": "0xb8d26269b",
      "l1GasPrice": "0x31cdc448",
      "l1GasUsed": "0x640"
    }
  ],
  "libraries": [],
  "pending": [],
  "returns": {},
  "timestamp": 1754052239,
  "chain": 1135,
  "commit": "4809a7c"
}