{
  "transactions": [
    {
      "hash": "0xa922830654002258633cc950e252676604da228a20b32e73da63dd8f0f8fcb67",
      "transactionType": "CALL",
      "contractName": null,
      "contractAddress": "0x0a0504ad9277bb43a5c23226fe8bea270f2ac931",
      "function": "registerCircle(address,string,address[])",
      "arguments": [
        "0x596f9D57b937d61988308e316AB203629f4563CF",
        "Working Circle",
        "[0xAFA9CF6c504Ca060B31626879635c049E2De9E1c]"
      ],
      "transaction": {
        "from": "0xafa9cf6c504ca060b31626879635c049e2de9e1c",
        "to": "0x0a0504ad9277bb43a5c23226fe8bea270f2ac931",
        "gas": "0x2ac7c",
        "value": "0x0",
        "input": "0x6393b4f4000000000000000000000000596f9d57b937d61988308e316ab203629f4563cf000000000000000000000000000000000000000000000000000000000000006000000000000000000000000000000000000000000000000000000000000000a0000000000000000000000000000000000000000000000000000000000000000e576f726b696e6720436972636c650000000000000000000000000000000000000000000000000000000000000000000000000000000000000000000000000001000000000000000000000000afa9cf6c504ca060b31626879635c049e2de9e1c",
        "nonce": "0x58",
        "chainId": "0x46f"
      },
      "additionalContracts": [],
      "isFixedGasLimit": false
    }
  ],
  "receipts": [
    {
      "status": "0x1",
      "cumulativeGasUsed": "0x2a3cf",
      "logs": [
        {
          "address": "0x0a0504ad9277bb43a5c23226fe8bea270f2ac931",
          "topics": [
            "0x82ca5d1c3e8b70d734650837732d4db8ca0877240d905a367d27cba08be3b87a",
            "0x000000000000000000000000596f9d57b937d61988308e316ab203629f4563cf",
            "0x000000000000000000000000afa9cf6c504ca060b31626879635c049e2de9e1c"
          ],
          "data": "0x0000000000000000000000000000000000000000000000000000000000000020000000000000000000000000000000000000000000000000000000000000000e576f726b696e6720436972636c65000000000000000000000000000000000000",
          "blockHash": "0x01f5d5875fe7e4d835e30383f491b1f5dbd31b04b9a5605b5f238fcadf0e70e4",
          "blockNumber": "0x1294680",
          "transactionHash": "0xa922830654002258633cc950e252676604da228a20b32e73da63dd8f0f8fcb67",
          "transactionIndex": "0x1",
          "logIndex": "0x0",
          "removed": false
        }
      ],
      "logsBloom": "0x00000000000000000000000000000000000000000000000000000000000000000000000000000000000000000000000000000000000000000000000000010000000000000000000000000000000000040000000000000000000000000000000000000000000000000000000000000000000000800000000000000000000000000000000000000000000000000000000000000000000000000000000000000000000000200080040000000100000000000000000020000000000000000000000000000000040000000000000000000000000000000000000000000000000000000000000000000000000000000040000000000000000001100000000000000000",
      "type": "0x2",
      "transactionHash": "0xa922830654002258633cc950e252676604da228a20b32e73da63dd8f0f8fcb67",
      "transactionIndex": "0x1",
      "blockHash": "0x01f5d5875fe7e4d835e30383f491b1f5dbd31b04b9a5605b5f238fcadf0e70e4",
      "blockNumber": "0x1294680",
      "gasUsed": "0x1ef8f",
      "effectiveGasPrice": "0x7b89f",
      "from": "0xafa9cf6c504ca060b31626879635c049e2de9e1c",
      "to": "0x0a0504ad9277bb43a5c23226fe8bea270f2ac931",
      "contractAddress": null,
      "l1BaseFeeScalar": "0x90f6",
      "l1BlobBaseFee": "0x1",
      "l1BlobBaseFeeScalar": "0x125749",
      "l1Fee": "0x5a2d0f582",
      "l1GasPrice": "0x11b40061",
      "l1GasUsed": "0x894"
    }
  ],
  "libraries": [],
  "pending": [],
  "returns": {},
  "timestamp": 1753693272,
  "chain": 1135,
  "commit": "4809a7c"
}