{
  "transactions": [
    {
      "hash": "0xf48e0d9383e1dd0166823b3cf15d64a489250394fcd4235991f854a8ef375903",
      "transactionType": "CALL",
      "contractName": null,
      "contractAddress": "0x0a0504ad9277bb43a5c23226fe8bea270f2ac931",
      "function": "registerCircle(address,string,address[])",
      "arguments": [
        "0x80E56b0223929820A3648608c7f761D65c7D2DEE",
        "Test Circle",
        "[0xAFA9CF6c504Ca060B31626879635c049E2De9E1c]"
      ],
      "transaction": {
        "from": "0xafa9cf6c504ca060b31626879635c049e2de9e1c",
        "to": "0x0a0504ad9277bb43a5c23226fe8bea270f2ac931",
        "gas": "0x2d48c",
        "value": "0x0",
        "input": "0x6393b4f400000000000000000000000080e56b0223929820a3648608c7f761d65c7d2dee000000000000000000000000000000000000000000000000000000000000006000000000000000000000000000000000000000000000000000000000000000a0000000000000000000000000000000000000000000000000000000000000000b5465737420436972636c650000000000000000000000000000000000000000000000000000000000000000000000000000000000000000000000000000000001000000000000000000000000afa9cf6c504ca060b31626879635c049e2de9e1c",
        "nonce": "0x56",
        "chainId": "0x46f"
      },
      "additionalContracts": [],
      "isFixedGasLimit": false
    }
  ],
  "receipts": [
    {
      "status": "0x1",
      "cumulativeGasUsed": "0x2a3b7",
      "logs": [
        {
          "address": "0x0a0504ad9277bb43a5c23226fe8bea270f2ac931",
          "topics": [
            "0x82ca5d1c3e8b70d734650837732d4db8ca0877240d905a367d27cba08be3b87a",
            "0x00000000000000000000000080e56b0223929820a3648608c7f761d65c7d2dee",
            "0x000000000000000000000000afa9cf6c504ca060b31626879635c049e2de9e1c"
          ],
          "data": "0x0000000000000000000000000000000000000000000000000000000000000020000000000000000000000000000000000000000000000000000000000000000b5465737420436972636c65000000000000000000000000000000000000000000",
          "blockHash": "0x66ee60c2773e73f511a61e19321da28e33a2c7982743dc8030bd7cfb7060029a",
          "blockNumber": "0x1294418",
          "transactionHash": "0xf48e0d9383e1dd0166823b3cf15d64a489250394fcd4235991f854a8ef375903",
          "transactionIndex": "0x1",
          "logIndex": "0x0",
          "removed": false
        }
      ],
      "logsBloom": "0x00000000000000000000000000000000000000000000000000000000000000000000000000000000000000000000000000000000000000000000000000010000000000000000000000000000000000040000000000000000000000000000000000000000000000000000000000000000000000000000000002000000000000000000000000000000000000000000000000000000000000010000008000000000000000200080040000000100000000000000000020000000000000000000000000000000000000000000000000000000000000000000000000000000000000000000000000000000000000000000000000000000000001100000000000000000",
      "type": "0x2",
      "transactionHash": "0xf48e0d9383e1dd0166823b3cf15d64a489250394fcd4235991f854a8ef375903",
      "transactionIndex": "0x1",
      "blockHash": "0x66ee60c2773e73f511a61e19321da28e33a2c7982743dc8030bd7cfb7060029a",
      "blockNumber": "0x1294418",
      "gasUsed": "0x1ef6b",
      "effectiveGasPrice": "0x2b07",
      "from": "0xafa9cf6c504ca060b31626879635c049e2de9e1c",
      "to": "0x0a0504ad9277bb43a5c23226fe8bea270f2ac931",
      "contractAddress": null,
      "l1BaseFeeScalar": "0x90f6",
      "l1BlobBaseFee": "0x1",
      "l1BlobBaseFeeScalar": "0x125749",
      "l1Fee": "0x5ef7ce048",
      "l1GasPrice": "0x133ad622",
      "l1GasUsed": "0x851"
    }
  ],
  "libraries": [],
  "pending": [],
  "returns": {},
  "timestamp": 1753692041,
  "chain": 1135,
  "commit": "4809a7c"
}