{
  "transactions": [
    {
      "hash": "0x8624c447596ef926b634c3e17a1ef12401b436c1a04ffa5ed5445263fe0a9718",
      "transactionType": "CALL",
      "contractName": null,
      "contractAddress": "0x0a0504ad9277bb43a5c23226fe8bea270f2ac931",
      "function": "registerCircle(address,string,address[])",
      "arguments": [
        "0x5c3e8347AbBe71E38d26bB53d602ebdB5c33d673",
        "Fresh Morpho Circle",
        "[0xAFA9CF6c504Ca060B31626879635c049E2De9E1c]"
      ],
      "transaction": {
        "from": "0xafa9cf6c504ca060b31626879635c049e2de9e1c",
        "to": "0x0a0504ad9277bb43a5c23226fe8bea270f2ac931",
        "gas": "0x2d518",
        "value": "0x0",
        "input": "0x6393b4f40000000000000000000000005c3e8347abbe71e38d26bb53d602ebdb5c33d673000000000000000000000000000000000000000000000000000000000000006000000000000000000000000000000000000000000000000000000000000000a000000000000000000000000000000000000000000000000000000000000000134672657368204d6f7270686f20436972636c65000000000000000000000000000000000000000000000000000000000000000000000000000000000000000001000000000000000000000000afa9cf6c504ca060b31626879635c049e2de9e1c",
        "nonce": "0x4d",
        "chainId": "0x46f"
      },
      "additionalContracts": [],
      "isFixedGasLimit": false
    }
  ],
  "receipts": [
    {
      "status": "0x1",
      "cumulativeGasUsed": "0x2a417",
      "logs": [
        {
          "address": "0x0a0504ad9277bb43a5c23226fe8bea270f2ac931",
          "topics": [
            "0x82ca5d1c3e8b70d734650837732d4db8ca0877240d905a367d27cba08be3b87a",
            "0x0000000000000000000000005c3e8347abbe71e38d26bb53d602ebdb5c33d673",
            "0x000000000000000000000000afa9cf6c504ca060b31626879635c049e2de9e1c"
          ],
          "data": "0x000000000000000000000000000000000000000000000000000000000000002000000000000000000000000000000000000000000000000000000000000000134672657368204d6f7270686f20436972636c6500000000000000000000000000",
          "blockHash": "0xf02d63ff0e617b67320cd7ece3b235eb6cce9eaaa037361f5faef79ed641c8ec",
          "blockNumber": "0x1293f9c",
          "transactionHash": "0x8624c447596ef926b634c3e17a1ef12401b436c1a04ffa5ed5445263fe0a9718",
          "transactionIndex": "0x1",
          "logIndex": "0x0",
          "removed": false
        }
      ],
      "logsBloom": "0x00000000000000000000000000000000000000000000000000000000000000000000000000000000000000000000000000000200000000000000000000010000000000000000000000000000000000040000800000000000000000000000000000000000000000000000000000000000000000000000000000000000000000000000000000000000000000000000000000000000000000000000000000000000000000200180040000000100000000000000000020000000000000000000000000000000000000000000000000000000000000000000000000000000000000000000000000000000000000000000000000000000000001100000000000000000",
      "type": "0x2",
      "transactionHash": "0x8624c447596ef926b634c3e17a1ef12401b436c1a04ffa5ed5445263fe0a9718",
      "transactionIndex": "0x1",
      "blockHash": "0xf02d63ff0e617b67320cd7ece3b235eb6cce9eaaa037361f5faef79ed641c8ec",
      "blockNumber": "0x1293f9c",
      "gasUsed": "0x1efcb",
      "effectiveGasPrice": "0xf4637",
      "from": "0xafa9cf6c504ca060b31626879635c049e2de9e1c",
      "to": "0x0a0504ad9277bb43a5c23226fe8bea270f2ac931",
      "contractAddress": null,
      "l1BaseFeeScalar": "0x90f6",
      "l1BlobBaseFee": "0x1",
      "l1BlobBaseFeeScalar": "0x125749",
      "l1Fee": "0x5ab71fc6e",
      "l1GasPrice": "0x11484b22",
      "l1GasUsed": "0x8d7"
    }
  ],
  "libraries": [],
  "pending": [],
  "returns": {},
  "timestamp": 1753689743,
  "chain": 1135,
  "commit": "4809a7c"
}