{
  "transactions": [
    {
      "hash": "0x245a443f2a6bc3b6f1cca360250df8992aefce3da28a915899923b92993c3a48",
      "transactionType": "CALL",
      "contractName": null,
      "contractAddress": "0x503c9eab64ee36af23e2d4801b0495a5804e5392",
      "function": "registerCircle(address,string,address[])",
      "arguments": [
        "0x46b6EEAc59639f3e58eEDB014223c5C675A0a0D9",
        "Test Circle - Low Min",
        "[0xAFA9CF6c504Ca060B31626879635c049E2De9E1c]"
      ],
      "transaction": {
        "from": "0xafa9cf6c504ca060b31626879635c049e2de9e1c",
        "to": "0x503c9eab64ee36af23e2d4801b0495a5804e5392",
        "gas": "0x2d53b",
        "value": "0x0",
        "input": "0x6393b4f400000000000000000000000046b6eeac59639f3e58eedb014223c5c675a0a0d9000000000000000000000000000000000000000000000000000000000000006000000000000000000000000000000000000000000000000000000000000000a000000000000000000000000000000000000000000000000000000000000000155465737420436972636c65202d204c6f77204d696e00000000000000000000000000000000000000000000000000000000000000000000000000000000000001000000000000000000000000afa9cf6c504ca060b31626879635c049e2de9e1c",
        "nonce": "0x6e",
        "chainId": "0x46f"
      },
      "additionalContracts": [],
      "isFixedGasLimit": false
    }
  ],
  "receipts": [
    {
      "status": "0x1",
      "cumulativeGasUsed": "0x2a42f",
      "logs": [
        {
          "address": "0x503c9eab64ee36af23e2d4801b0495a5804e5392",
          "topics": [
            "0x82ca5d1c3e8b70d734650837732d4db8ca0877240d905a367d27cba08be3b87a",
            "0x00000000000000000000000046b6eeac59639f3e58eedb014223c5c675a0a0d9",
            "0x000000000000000000000000afa9cf6c504ca060b31626879635c049e2de9e1c"
          ],
          "data": "0x000000000000000000000000000000000000000000000000000000000000002000000000000000000000000000000000000000000000000000000000000000155465737420436972636c65202d204c6f77204d696e0000000000000000000000",
          "blockHash": "0x831d0f5dd2ab0b03d7d32baa256bed7e633abbf5de549733977c0898f25e283b",
          "blockNumber": "0x12a29f2",
          "transactionHash": "0x245a443f2a6bc3b6f1cca360250df8992aefce3da28a915899923b92993c3a48",
          "transactionIndex": "0x1",
          "logIndex": "0x0",
          "removed": false
        }
      ],
      "logsBloom": "0x00000000000000000000000000000000000000000000000000000000000000000000000000000000000000000000000000000000000000000000000000000000002000000000000000000000000000040000000000000000000000000000000000000000000000000000000000400000000000000000000000000000000000000000000000000000000000000000000000000000000000000000000001000000000000200080001000000100000000000000000020000000000000000000000000004000000000000000000000000000000000000000000000000000000000000000000000000000000000000000000000000000000004100000000000000000",
      "type": "0x2",
      "transactionHash": "0x245a443f2a6bc3b6f1cca360250df8992aefce3da28a915899923b92993c3a48",
      "transactionIndex": "0x1",
      "blockHash": "0x831d0f5dd2ab0b03d7d32baa256bed7e633abbf5de549733977c0898f25e283b",
      "blockNumber": "0x12a29f2",
      "gasUsed": "0x1efe3",
      "effectiveGasPrice": "0xf4637",
      "from": "0xafa9cf6c504ca060b31626879635c049e2de9e1c",
      "to": "0x503c9eab64ee36af23e2d4801b0495a5804e5392",
      "contractAddress": null,
      "l1BaseFeeScalar": "0x90f6",
      "l1BlobBaseFee": "0x1",
      "l1BlobBaseFeeScalar": "0x125749",
      "l1Fee": "0x316e1f42d0",
      "l1GasPrice": "0x94e96139",
      "l1GasUsed": "0x8f1"
    }
  ],
  "libraries": [],
  "pending": [],
  "returns": {},
  "timestamp": 1753809725,
  "chain": 1135,
  "commit": "4809a7c"
}