{
  "transactions": [
    {
      "hash": "0xf76335cc34916c0b84dc9c9888d84a2237a7d03ccefa39db927c8f3d5274a684",
      "transactionType": "CALL",
      "contractName": null,
      "contractAddress": "0x0a0504ad9277bb43a5c23226fe8bea270f2ac931",
      "function": "registerCircle(address,string,address[])",
      "arguments": [
        "0x59E82B6d13e93845af151cF06FDdA8D713813296",
        "Fixed Morpho Circle",
        "[0xAFA9CF6c504Ca060B31626879635c049E2De9E1c]"
      ],
      "transaction": {
        "from": "0xafa9cf6c504ca060b31626879635c049e2de9e1c",
        "to": "0x0a0504ad9277bb43a5c23226fe8bea270f2ac931",
        "gas": "0x2d518",
        "value": "0x0",
        "input": "0x6393b4f400000000000000000000000059e82b6d13e93845af151cf06fdda8d713813296000000000000000000000000000000000000000000000000000000000000006000000000000000000000000000000000000000000000000000000000000000a000000000000000000000000000000000000000000000000000000000000000134669786564204d6f7270686f20436972636c65000000000000000000000000000000000000000000000000000000000000000000000000000000000000000001000000000000000000000000afa9cf6c504ca060b31626879635c049e2de9e1c",
        "nonce": "0x50",
        "chainId": "0x46f"
      },
      "additionalContracts": [],
      "isFixedGasLimit": false
    }
  ],
  "receipts": [
    {
      "status": "0x1",
      "cumulativeGasUsed": "0x2a417",
      "logs": [
        {
          "address": "0x0a0504ad9277bb43a5c23226fe8bea270f2ac931",
          "topics": [
            "0x82ca5d1c3e8b70d734650837732d4db8ca0877240d905a367d27cba08be3b87a",
            "0x00000000000000000000000059e82b6d13e93845af151cf06fdda8d713813296",
            "0x000000000000000000000000afa9cf6c504ca060b31626879635c049e2de9e1c"
          ],
          "data": "0x000000000000000000000000000000000000000000000000000000000000002000000000000000000000000000000000000000000000000000000000000000134669786564204d6f7270686f20436972636c6500000000000000000000000000",
          "blockHash": "0xc8139266f61eba4e64e9ebd9104ab04536f1681f0341548d3724f8d003c738f8",
          "blockNumber": "0x12942ea",
          "transactionHash": "0xf76335cc34916c0b84dc9c9888d84a2237a7d03ccefa39db927c8f3d5274a684",
          "transactionIndex": "0x1",
          "logIndex": "0x0",
          "removed": false
        }
      ],
      "logsBloom": "0x00000000000000000000000000000000000000000000000000000000000000000000000000000000000000000000000000000000000000000000000000010000000000000000000000000000000000040000000000000000000000000000000000000000000000000000000000000000000000000000000000000000000000000000000000000000000000000000000000200000000000000000000000000000000000200080040000010100000000000000000020000000000000000000000000000000000000000000000000000000000000000000000020000000000000000000000000000000000000000000000000000000000001100000000000000000",
      "type": "0x2",
      "transactionHash": "0xf76335cc34916c0b84dc9c9888d84a2237a7d03ccefa39db927c8f3d5274a684",
      "transactionIndex": "0x1",
      "blockHash": "0xc8139266f61eba4e64e9ebd9104ab04536f1681f0341548d3724f8d003c738f8",
      "blockNumber": "0x12942ea",
      "gasUsed": "0x1efcb",
      "effectiveGasPrice": "0x2b07",
      "from": "0xafa9cf6c504ca060b31626879635c049e2de9e1c",
      "to": "0x0a0504ad9277bb43a5c23226fe8bea270f2ac931",
      "contractAddress": null,
      "l1BaseFeeScalar": "0x90f6",
      "l1BlobBaseFee": "0x1",
      "l1BlobBaseFeeScalar": "0x125749",
      "l1Fee": "0x50c2450c7",
      "l1GasPrice": "0xf91d97e",
      "l1GasUsed": "0x8bc"
    }
  ],
  "libraries": [],
  "pending": [],
  "returns": {},
  "timestamp": 1753691437,
  "chain": 1135,
  "commit": "4809a7c"
}