{
  "transactions": [
    {
      "hash": "0xb3bad46547417cc5cbcc630008448feeaaf29e991acfcd4da0e52eb29832ed9c",
      "transactionType": "CREATE",
      "contractName": "LendingModuleSimplified",
      "contractAddress": "0x238f962e638ea58f4a7a5a6cc517733f02645e56",
      "function": null,
      "arguments": null,
      "transaction": {
        "from": "0xafa9cf6c504ca060b31626879635c049e2de9e1c",
        "gas": "0x9a587",
        "value": "0x2d79883d2000",
        "input": "0x60806040818152600180546001600160a01b031916331790558152601f60c0527f4c656e64696e674d6f64756c65206465706c6f7965642077697468204554480060e0523460a0527f3c5ad147104e56be34a9176a6692f7df8d2f4b29a5af06bc6b98970d329d65779080a161075e806100785f395ff3fe60806040526004361061004c575f3560e01c806312065fe01461008f5780634a81067d146100b0578063536fff6c146100d15780638da5cb5b1461010f57806390c0d59614610146575f80fd5b3661008b57604080513381523460208201527fbfe611b001dfcd411432f7bf0d79b82b4b2ee81511edac123a3403c357fb972a910160405180910390a1005b5f80fd5b34801561009a575f80fd5b50475b6040519081526020015b60405180910390f35b3480156100bb575f80fd5b506100cf6100ca366004610697565b610165565b005b3480156100dc575f80fd5b506100ff6100eb366004610697565b5f6020819052908152604090205460ff1681565b60405190151581526020016100a7565b34801561011a575f80fd5b5060015461012e906001600160a01b031681565b6040516001600160a01b0390911681526020016100a7565b348015610151575f80fd5b5061009d6101603660046106b7565b6101d4565b6001546001600160a01b031633146101b15760405162461bcd60e51b815260206004820152600a60248201526927b7363c9037bbb732b960b11b60448201526064015b60405180910390fd5b6001600160a01b03165f908152602081905260409020805460ff19166001179055565b335f9081526020819052604081205460ff166102215760405162461bcd60e51b815260206004820152600c60248201526b155b985d5d1a1bdc9a5e995960a21b60448201526064016101a8565b6040805181815260208183018190527f737570706c79436f6c6c61746572616c416e64426f72726f772063616c6c65646060830152810185905290515f805160206107098339815191529181900360800190a1604080518181526010818301526f426f72726f776572206164647265737360801b60608201526001600160a01b038416602082015290515f805160206107098339815191529181900360800190a16040805181815260148183015273436f6e7472616374204554482062616c616e636560601b606082015247602082015290515f805160206107098339815191529181900360800190a16040516323b872dd60e01b8152336004820152306024820152604481018590527376d8de471f54aaa87784119c60df1bbfc852c415906323b872dd906064016020604051808303815f875af1158015610366573d5f803e3d5ffd5b505050506040513d601f19601f8201168201806040525081019061038a91906106e9565b6103cf5760405162461bcd60e51b81526020600482015260166024820152751ddcdd115512081d1c985b9cd9995c8819985a5b195960521b60448201526064016101a8565b60408051818152601281830152711ddcdd115512081d1c985b9cd9995c9c995960721b60608201526020810186905290515f805160206107098339815191529181900360800190a18247106105a357604080518181526017818301527f53656e64696e672045544820746f20626f72726f77657200000000000000000060608201526020810185905290515f805160206107098339815191529181900360800190a15f826001600160a01b0316846040515f6040518083038185875af1925050503d805f81146104ba576040519150601f19603f3d011682016040523d82523d5f602084013e6104bf565b606091505b5050604080516001600160a01b0386168152602081018790528215158183015290519192507fbb949ed3b2032cdcc299b87fdf9b6ffc926c78e704c08da2ae56b4f1fdca9f2d919081900360600190a1806105525760405162461bcd60e51b8152602060048201526013602482015272115512081d1c985b9cd9995c8819985a5b1959606a1b60448201526064016101a8565b60408051818152601581830152744554482073656e74207375636365737366756c6c7960581b60608201526020810186905290515f805160206107098339815191529181900360800190a150610648565b604080518181526018818301527f496e73756666696369656e74204554482062616c616e63650000000000000000606082015247602082015290515f805160206107098339815191529181900360800190a160405162461bcd60e51b815260206004820152602260248201527f496e73756666696369656e742045544820696e206c656e64696e67206d6f64756044820152616c6560f01b60648201526084016101a8565b6040805133602082015242918101919091526060016040516020818303038152906040528051906020012090509392505050565b80356001600160a01b0381168114610692575f80fd5b919050565b5f602082840312156106a7575f80fd5b6106b08261067c565b9392505050565b5f805f606084860312156106c9575f80fd5b83359250602084013591506106e06040850161067c565b90509250925092565b5f602082840312156106f9575f80fd5b815180151581146106b0575f80fdfe3c5ad147104e56be34a9176a6692f7df8d2f4b29a5af06bc6b98970d329d6577a26469706673582212208475c245e42fc4ec8fda3ef820b70b314f94678c2ffe0bea8edd03e0efa9356e64736f6c63430008140033",
        "nonce": "0x150",
        "chainId": "0x46f"
      },
      "additionalContracts": [],
      "isFixedGasLimit": false
    },
    {
      "hash": "0xbb804be637f8bd631200367d0e00c53ca9e411032d11b378d860f0f5f599a564",
      "transactionType": "CREATE2",
      "contractName": null,
      "contractAddress": "0x387b6478299d37f76667f4e56889278b85cc389d",
      "function": null,
      "arguments": null,
      "transaction": {
        "from": "0xafa9cf6c504ca060b31626879635c049e2de9e1c",
        "to": "0x4e59b44847b379578588920ca78fbf26c0b4956c",
        "gas": "0x156c8",
        "value": "0x0",
        "input": "0x49a6793a65e05ee2bb8d3c2b6f2008b599635361b6d3221e1022e6d64be8d6813d602d80600a3d3981f3363d3d373d3d3d363d73c4af1079184d99c44ba299ab11b1c7d11fa4ec485af43d82803e903d91602b57fd5bf3",
        "nonce": "0x151",
        "chainId": "0x46f"
      },
      "additionalContracts": [],
      "isFixedGasLimit": false
    },
    {
      "hash": "0x01910913494850fca69fa539e9e89d863f05070f68e78d09e1158a0c959fc06f",
      "transactionType": "CALL",
      "contractName": null,
      "contractAddress": "0x387b6478299d37f76667f4e56889278b85cc389d",
      "function": "initialize(string,address[],address,address,address)",
      "arguments": [
        "WORKING_TEST",
        "[0xAFA9CF6c504Ca060B31626879635c049E2De9E1c]",
        "0x68Dc6FeBA312BF9B7BfBe096EA5e7ccb61a522dE",
        "0xd336fB4dbFCB2a1Dc06b1c7297a7B8bD4059EeaD",
        "0x238f962e638eA58F4A7a5a6Cc517733F02645e56"
      ],
      "transaction": {
        "from": "0xafa9cf6c504ca060b31626879635c049e2de9e1c",
        "to": "0x387b6478299d37f76667f4e56889278b85cc389d",
        "gas": "0x2f4b4",
        "value": "0x0",
        "input": "0xe821fd2f00000000000000000000000000000000000000000000000000000000000000a000000000000000000000000000000000000000000000000000000000000000e000000000000000000000000068dc6feba312bf9b7bfbe096ea5e7ccb61a522de000000000000000000000000d336fb4dbfcb2a1dc06b1c7297a7b8bd4059eead000000000000000000000000238f962e638ea58f4a7a5a6cc517733f02645e56000000000000000000000000000000000000000000000000000000000000000c574f524b494e475f5445535400000000000000000000000000000000000000000000000000000000000000000000000000000000000000000000000000000001000000000000000000000000afa9cf6c504ca060b31626879635c049e2de9e1c",
        "nonce": "0x152",
        "chainId": "0x46f"
      },
      "additionalContracts": [],
      "isFixedGasLimit": false
    },
    {
      "hash": "0xb98b44f180bb472b30b59db753d2c2ef1db07d5932f812f91cffc7d3ed588ac7",
      "transactionType": "CALL",
      "contractName": null,
      "contractAddress": "0xd336fb4dbfcb2a1dc06b1c7297a7b8bd4059eead",
      "function": "authorizeCircle(address)",
      "arguments": [
        "0x387B6478299d37f76667f4e56889278B85cc389d"
      ],
      "transaction": {
        "from": "0xafa9cf6c504ca060b31626879635c049e2de9e1c",
        "to": "0xd336fb4dbfcb2a1dc06b1c7297a7b8bd4059eead",
        "gas": "0xf8af",
        "value": "0x0",
        "input": "0x4a81067d000000000000000000000000387b6478299d37f76667f4e56889278b85cc389d",
        "nonce": "0x153",
        "chainId": "0x46f"
      },
      "additionalContracts": [],
      "isFixedGasLimit": false
    },
    {
      "hash": "0xa6fccccf8919e47764111136bb921dced1e200eaf86840ce3d5a016a420172f3",
      "transactionType": "CALL",
      "contractName": "LendingModuleSimplified",
      "contractAddress": "0x238f962e638ea58f4a7a5a6cc517733f02645e56",
      "function": "authorizeCircle(address)",
      "arguments": [
        "0x387B6478299d37f76667f4e56889278B85cc389d"
      ],
      "transaction": {
        "from": "0xafa9cf6c504ca060b31626879635c049e2de9e1c",
        "to": "0x238f962e638ea58f4a7a5a6cc517733f02645e56",
        "gas": "0x10742",
        "value": "0x0",
        "input": "0x4a81067d000000000000000000000000387b6478299d37f76667f4e56889278b85cc389d",
        "nonce": "0x154",
        "chainId": "0x46f"
      },
      "additionalContracts": [],
      "isFixedGasLimit": false
    },
    {
      "hash": "0x5b5e4dfbecb93d01dcfb52de0fcb3722030dbb9d10adfe648b2632437f021c75",
      "transactionType": "CALL",
      "contractName": null,
      "contractAddress": "0x387b6478299d37f76667f4e56889278b85cc389d",
      "function": "deposit()",
      "arguments": [],
      "transaction": {
        "from": "0xafa9cf6c504ca060b31626879635c049e2de9e1c",
        "to": "0x387b6478299d37f76667f4e56889278b85cc389d",
        "gas": "0x8f597",
        "value": "0x1b48eb57e000",
        "input": "0xd0e30db0",
        "nonce": "0x155",
        "chainId": "0x46f"
      },
      "additionalContracts": [],
      "isFixedGasLimit": false
    },
    {
      "hash": "0x2f9926d51ced9f5a31bb3f88be2d267135ea7378ca5d6b88e9dc50247bd57c54",
      "transactionType": "CALL",
      "contractName": null,
      "contractAddress": "0x387b6478299d37f76667f4e56889278b85cc389d",
      "function": "directLTVWithdraw(uint256)",
      "arguments": [
        "10000000000000"
      ],
      "transaction": {
        "from": "0xafa9cf6c504ca060b31626879635c049e2de9e1c",
        "to": "0x387b6478299d37f76667f4e56889278b85cc389d",
        "gas": "0xff83d",
        "value": "0x0",
        "input": "0xc0588014000000000000000000000000000000000000000000000000000009184e72a000",
        "nonce": "0x156",
        "chainId": "0x46f"
      },
      "additionalContracts": [],
      "isFixedGasLimit": false
    }
  ],
  "receipts": [
    {
      "status": "0x1",
      "cumulativeGasUsed": "0x81fef",
      "logs": [
        {
          "address": "0x238f962e638ea58f4a7a5a6cc517733f02645e56",
          "topics": [
            "0x3c5ad147104e56be34a9176a6692f7df8d2f4b29a5af06bc6b98970d329d6577"
          ],
          "data": "0x000000000000000000000000000000000000000000000000000000000000004000000000000000000000000000000000000000000000000000002d79883d2000000000000000000000000000000000000000000000000000000000000000001f4c656e64696e674d6f64756c65206465706c6f79656420776974682045544800",
          "blockHash": "0xf76430f49303cb3af346069c39abce4201a949bfbe82110cf942fb42b38786ad",
          "blockNumber": "0x12c1b61",
          "transactionHash": "0xb3bad46547417cc5cbcc630008448feeaaf29e991acfcd4da0e52eb29832ed9c",
          "transactionIndex": "0x1",
          "logIndex": "0x0",
          "removed": false
        }
      ],
      "logsBloom": "0x00000000000000000000000000000000000000000000000000000000000000000000000000000000000000000000000000000000000000000000000000000000000000000000000000000000000000000000008000000000000000000000000000000000000000000000000000000000000000000000000000000000000000000000020000000000000000000000000000000000000000400000000000000000000100000000000000000000000000000000000000000000000000000000000000000000000000000000000000000000000000000000000000010000000000000400000000000000000000000000000000000000000000000000000000000000",
      "type": "0x2",
      "transactionHash": "0xb3bad46547417cc5cbcc630008448feeaaf29e991acfcd4da0e52eb29832ed9c",
      "transactionIndex": "0x1",
      "blockHash": "0xf76430f49303cb3af346069c39abce4201a949bfbe82110cf942fb42b38786ad",
      "blockNumber": "0x12c1b61",
      "gasUsed": "0x76ba3",
      "effectiveGasPrice": "0x2b08",
      "from": "0xafa9cf6c504ca060b31626879635c049e2de9e1c",
      "to": null,
      "contractAddress": "0x238f962e638ea58f4a7a5a6cc517733f02645e56",
      "l1BaseFeeScalar": "0x90f6",
      "l1BlobBaseFee": "0x1",
      "l1BlobBaseFeeScalar": "0x125749",
      "l1Fee": "0x8145c611b3",
      "l1GasPrice": "0x2dba6263",
      "l1GasUsed": "0x4c2d"
    },
    {
      "status": "0x1",
      "cumulativeGasUsed": "0x9181b",
      "logs": [],
      "logsBloom": "0x00000000000000000000000000000000000000000000000000000000000000000000000000000000000000000000000000000000000000000000000000000000000000000000000000000000000000000000000000000000000000000000000000000000000000000000000000000000000000000000000000000000000000000000000000000000000000000000000000000000000000000000000000000000000000000000000000000000000000000000000000000000000000000000000000000000000000000000000000000000000000000000000000000000000000000000000000000000000000000000000000000000000000000000000000000000",
      "type": "0x2",
      "transactionHash": "0xbb804be637f8bd631200367d0e00c53ca9e411032d11b378d860f0f5f599a564",
      "transactionIndex": "0x2",
      "blockHash": "0xf76430f49303cb3af346069c39abce4201a949bfbe82110cf942fb42b38786ad",
      "blockNumber": "0x12c1b61",
      "gasUsed": "0xf82c",
      "effectiveGasPrice": "0x2b08",
      "from": "0xafa9cf6c504ca060b31626879635c049e2de9e1c",
      "to": "0x4e59b44847b379578588920ca78fbf26c0b4956c",
      "contractAddress": null,
      "l1BaseFeeScalar": "0x90f6",
      "l1BlobBaseFee": "0x1",
      "l1BlobBaseFeeScalar": "0x125749",
      "l1Fee": "0xdabbe5a26",
      "l1GasPrice": "0x2dba6263",
      "l1GasUsed": "0x80e"
    },
    {
      "status": "0x1",
      "cumulativeGasUsed": "0xb3bf3",
      "logs": [
        {
          "address": "0x387b6478299d37f76667f4e56889278b85cc389d",
          "topics": [
            "0xb251eb052afc73ffd02ffe85ad79990a8b3fed60d76dbc2fa2fdd7123dffd914",
            "0x000000000000000000000000afa9cf6c504ca060b31626879635c049e2de9e1c"
          ],
          "data": "0x",
          "blockHash": "0xf76430f49303cb3af346069c39abce4201a949bfbe82110cf942fb42b38786ad",
          "blockNumber": "0x12c1b61",
          "transactionHash": "0x01910913494850fca69fa539e9e89d863f05070f68e78d09e1158a0c959fc06f",
          "transactionIndex": "0x3",
          "logIndex": "0x1",
          "removed": false
        }
      ],
      "logsBloom": "0x00000400000000000000000000000000000000001000000000000000000000000000000000000000000000000000000000000000000000000000000000000000000000000000000000000000000000000000000000000000000000000200000000000000000000000000000000000000000004000010000000000000000000000000080000000000000000000000000000000000000000000000000000000000000000200000000000000100000000000000000020000000000000000000000000000000000000000000000000000000000000000000000000000000000000000000000000000000000000000000000000000000000000000000000000000000",
      "type": "0x2",
      "transactionHash": "0x01910913494850fca69fa539e9e89d863f05070f68e78d09e1158a0c959fc06f",
      "transactionIndex": "0x3",
      "blockHash": "0xf76430f49303cb3af346069c39abce4201a949bfbe82110cf942fb42b38786ad",
      "blockNumber": "0x12c1b61",
      "gasUsed": "0x223d8",
      "effectiveGasPrice": "0x2b08",
      "from": "0xafa9cf6c504ca060b31626879635c049e2de9e1c",
      "to": "0x387b6478299d37f76667f4e56889278b85cc389d",
      "contractAddress": null,
      "l1BaseFeeScalar": "0x90f6",
      "l1BlobBaseFee": "0x1",
      "l1BlobBaseFeeScalar": "0x125749",
      "l1Fee": "0x12d10d7ae0",
      "l1GasPrice": "0x2dba6263",
      "l1GasUsed": "0xb16"
    },
    {
      "status": "0x1",
      "cumulativeGasUsed": "0xbefff",
      "logs": [],
      "logsBloom": "0x00000000000000000000000000000000000000000000000000000000000000000000000000000000000000000000000000000000000000000000000000000000000000000000000000000000000000000000000000000000000000000000000000000000000000000000000000000000000000000000000000000000000000000000000000000000000000000000000000000000000000000000000000000000000000000000000000000000000000000000000000000000000000000000000000000000000000000000000000000000000000000000000000000000000000000000000000000000000000000000000000000000000000000000000000000000",
      "type": "0x2",
      "transactionHash": "0xb98b44f180bb472b30b59db753d2c2ef1db07d5932f812f91cffc7d3ed588ac7",
      "transactionIndex": "0x4",
      "blockHash": "0xf76430f49303cb3af346069c39abce4201a949bfbe82110cf942fb42b38786ad",
      "blockNumber": "0x12c1b61",
      "gasUsed": "0xb40c",
      "effectiveGasPrice": "0x2b08",
      "from": "0xafa9cf6c504ca060b31626879635c049e2de9e1c",
      "to": "0xd336fb4dbfcb2a1dc06b1c7297a7b8bd4059eead",
      "contractAddress": null,
      "l1BaseFeeScalar": "0x90f6",
      "l1BlobBaseFee": "0x1",
      "l1BlobBaseFeeScalar": "0x125749",
      "l1Fee": "0xa9b264703",
      "l1GasPrice": "0x2dba6263",
      "l1GasUsed": "0x640"
    },
    {
      "status": "0x1",
      "cumulativeGasUsed": "0xca401",
      "logs": [],
      "logsBloom": "0x00000000000000000000000000000000000000000000000000000000000000000000000000000000000000000000000000000000000000000000000000000000000000000000000000000000000000000000000000000000000000000000000000000000000000000000000000000000000000000000000000000000000000000000000000000000000000000000000000000000000000000000000000000000000000000000000000000000000000000000000000000000000000000000000000000000000000000000000000000000000000000000000000000000000000000000000000000000000000000000000000000000000000000000000000000000",
      "type": "0x2",
      "transactionHash": "0xa6fccccf8919e47764111136bb921dced1e200eaf86840ce3d5a016a420172f3",
      "transactionIndex": "0x5",
      "blockHash": "0xf76430f49303cb3af346069c39abce4201a949bfbe82110cf942fb42b38786ad",
      "blockNumber": "0x12c1b61",
      "gasUsed": "0xb402",
      "effectiveGasPrice": "0x2b08",
      "from": "0xafa9cf6c504ca060b31626879635c049e2de9e1c",
      "to": "0x238f962e638ea58f4a7a5a6cc517733f02645e56",
      "contractAddress": null,
      "l1BaseFeeScalar": "0x90f6",
      "l1BlobBaseFee": "0x1",
      "l1BlobBaseFeeScalar": "0x125749",
      "l1Fee": "0xa9b264703",
      "l1GasPrice": "0x2dba6263",
      "l1GasUsed": "0x640"
    },
    {
      "status": "0x1",
      "cumulativeGasUsed": "0x132086",
      "logs": [
        {
          "address": "0x4200000000000000000000000000000000000006",
          "topics": [
            "0xe1fffcc4923d04b559f4d29a8bfc6cda04eb5b0d3c460751c2402c5c5cc9109c",
            "0x000000000000000000000000387b6478299d37f76667f4e56889278b85cc389d"
          ],
          "data": "0x00000000000000000000000000000000000000000000000000001b48eb57e000",
          "blockHash": "0xf76430f49303cb3af346069c39abce4201a949bfbe82110cf942fb42b38786ad",
          "blockNumber": "0x12c1b61",
          "transactionHash": "0x5b5e4dfbecb93d01dcfb52de0fcb3722030dbb9d10adfe648b2632437f021c75",
          "transactionIndex": "0x6",
          "logIndex": "0x2",
          "removed": false
        },
        {
          "address": "0x4200000000000000000000000000000000000006",
          "topics": [
            "0x8c5be1e5ebec7d5bd14f71427d1e84f3dd0314c0f7b2291e5b200ac8c7c3b925",
            "0x000000000000000000000000387b6478299d37f76667f4e56889278b85cc389d",
            "0x0000000000000000000000007cbaa98bd5e171a658fdf761ed1db33806a0d346"
          ],
          "data": "0x00000000000000000000000000000000000000000000000000001b48eb57e000",
          "blockHash": "0xf76430f49303cb3af346069c39abce4201a949bfbe82110cf942fb42b38786ad",
          "blockNumber": "0x12c1b61",
          "transactionHash": "0x5b5e4dfbecb93d01dcfb52de0fcb3722030dbb9d10adfe648b2632437f021c75",
          "transactionIndex": "0x6",
          "logIndex": "0x3",
          "removed": false
        },
        {
          "address": "0x7cbaa98bd5e171a658fdf761ed1db33806a0d346",
          "topics": [
            "0x15c027cc4fd826d986cad358803439f7326d3aa4ed969ff90dbee4bc150f68e9"
          ],
          "data": "0x000000000000000000000000000000000000000000000016ff4ae89033cd7ac6",
          "blockHash": "0xf76430f49303cb3af346069c39abce4201a949bfbe82110cf942fb42b38786ad",
          "blockNumber": "0x12c1b61",
          "transactionHash": "0x5b5e4dfbecb93d01dcfb52de0fcb3722030dbb9d10adfe648b2632437f021c75",
          "transactionIndex": "0x6",
          "logIndex": "0x4",
          "removed": false
        },
        {
          "address": "0x7cbaa98bd5e171a658fdf761ed1db33806a0d346",
          "topics": [
            "0x548669ea9bcc24888e6d74a69c9865fa98d795686853b8aa3eb87814261bbb71"
          ],
          "data": "0x0000000000000000000000000000000000000000000000000000000000000000",
          "blockHash": "0xf76430f49303cb3af346069c39abce4201a949bfbe82110cf942fb42b38786ad",
          "blockNumber": "0x12c1b61",
          "transactionHash": "0x5b5e4dfbecb93d01dcfb52de0fcb3722030dbb9d10adfe648b2632437f021c75",
          "transactionIndex": "0x6",
          "logIndex": "0x5",
          "removed": false
        },
        {
          "address": "0x7cbaa98bd5e171a658fdf761ed1db33806a0d346",
          "topics": [
            "0xddf252ad1be2c89b69c2b068fc378daa952ba7f163c4a11628f55a4df523b3ef",
            "0x0000000000000000000000000000000000000000000000000000000000000000",
            "0x00000000000000000000000093db2e90f8b2b073010b425f9350202330bd923e"
          ],
          "data": "0x00000000000000000000000000000000000000000000000000007eb6cc31558b",
          "blockHash": "0xf76430f49303cb3af346069c39abce4201a949bfbe82110cf942fb42b38786ad",
          "blockNumber": "0x12c1b61",
          "transactionHash": "0x5b5e4dfbecb93d01dcfb52de0fcb3722030dbb9d10adfe648b2632437f021c75",
          "transactionIndex": "0x6",
          "logIndex": "0x6",
          "removed": false
        },
        {
          "address": "0x7cbaa98bd5e171a658fdf761ed1db33806a0d346",
          "topics": [
            "0xf66f28b40975dbb933913542c7e6a0f50a1d0f20aa74ea6e0efe65ab616323ec"
          ],
          "data": "0x000000000000000000000000000000000000000000000016ff4ae89033cd7ac600000000000000000000000000000000000000000000000000007eb6cc31558b",
          "blockHash": "0xf76430f49303cb3af346069c39abce4201a949bfbe82110cf942fb42b38786ad",
          "blockNumber": "0x12c1b61",
          "transactionHash": "0x5b5e4dfbecb93d01dcfb52de0fcb3722030dbb9d10adfe648b2632437f021c75",
          "transactionIndex": "0x6",
          "logIndex": "0x7",
          "removed": false
        },
        {
          "address": "0x4200000000000000000000000000000000000006",
          "topics": [
            "0xddf252ad1be2c89b69c2b068fc378daa952ba7f163c4a11628f55a4df523b3ef",
            "0x000000000000000000000000387b6478299d37f76667f4e56889278b85cc389d",
            "0x0000000000000000000000007cbaa98bd5e171a658fdf761ed1db33806a0d346"
          ],
          "data": "0x00000000000000000000000000000000000000000000000000001b48eb57e000",
          "blockHash": "0xf76430f49303cb3af346069c39abce4201a949bfbe82110cf942fb42b38786ad",
          "blockNumber": "0x12c1b61",
          "transactionHash": "0x5b5e4dfbecb93d01dcfb52de0fcb3722030dbb9d10adfe648b2632437f021c75",
          "transactionIndex": "0x6",
          "logIndex": "0x8",
          "removed": false
        },
        {
          "address": "0x7cbaa98bd5e171a658fdf761ed1db33806a0d346",
          "topics": [
            "0xddf252ad1be2c89b69c2b068fc378daa952ba7f163c4a11628f55a4df523b3ef",
            "0x0000000000000000000000000000000000000000000000000000000000000000",
            "0x000000000000000000000000387b6478299d37f76667f4e56889278b85cc389d"
          ],
          "data": "0x00000000000000000000000000000000000000000000000000001b42551dfd05",
          "blockHash": "0xf76430f49303cb3af346069c39abce4201a949bfbe82110cf942fb42b38786ad",
          "blockNumber": "0x12c1b61",
          "transactionHash": "0x5b5e4dfbecb93d01dcfb52de0fcb3722030dbb9d10adfe648b2632437f021c75",
          "transactionIndex": "0x6",
          "logIndex": "0x9",
          "removed": false
        },
        {
          "address": "0x7cbaa98bd5e171a658fdf761ed1db33806a0d346",
          "topics": [
            "0xdcbc1c05240f31ff3ad067ef1ee35ce4997762752e3a095284754544f4c709d7",
            "0x000000000000000000000000387b6478299d37f76667f4e56889278b85cc389d",
            "0x000000000000000000000000387b6478299d37f76667f4e56889278b85cc389d"
          ],
          "data": "0x00000000000000000000000000000000000000000000000000001b48eb57e00000000000000000000000000000000000000000000000000000001b42551dfd05",
          "blockHash": "0xf76430f49303cb3af346069c39abce4201a949bfbe82110cf942fb42b38786ad",
          "blockNumber": "0x12c1b61",
          "transactionHash": "0x5b5e4dfbecb93d01dcfb52de0fcb3722030dbb9d10adfe648b2632437f021c75",
          "transactionIndex": "0x6",
          "logIndex": "0xa",
          "removed": false
        },
        {
          "address": "0x5576629f21d528a8c3e06c338dda907b94563902",
          "topics": [
            "0x7120161a7b3d31251e01294ab351ef15a41b91659a36032e4641bb89b121e321",
            "0xaf10335b50689207d1fd37afd98e87aa0eb209c9074d8655642636223cc5f3a0"
          ],
          "data": "0x00000000000000000000000000000000000000000000000000000000156c3a88000000000000000000000000000000000000000000000000000000001636bc4f",
          "blockHash": "0xf76430f49303cb3af346069c39abce4201a949bfbe82110cf942fb42b38786ad",
          "blockNumber": "0x12c1b61",
          "transactionHash": "0x5b5e4dfbecb93d01dcfb52de0fcb3722030dbb9d10adfe648b2632437f021c75",
          "transactionIndex": "0x6",
          "logIndex": "0xb",
          "removed": false
        },
        {
          "address": "0x00cd58deebd7a2f1c55daec715faf8aed5b27bf8",
          "topics": [
            "0x9d9bd501d0657d7dfe415f779a620a62b78bc508ddc0891fbbd8b7ac0f8fce87",
            "0xaf10335b50689207d1fd37afd98e87aa0eb209c9074d8655642636223cc5f3a0"
          ],
          "data": "0x00000000000000000000000000000000000000000000000000000000156c3a8800000000000000000000000000000000000000000000000000027a2b1518dfce0000000000000000000000000000000000000000000000000000000000000000",
          "blockHash": "0xf76430f49303cb3af346069c39abce4201a949bfbe82110cf942fb42b38786ad",
          "blockNumber": "0x12c1b61",
          "transactionHash": "0x5b5e4dfbecb93d01dcfb52de0fcb3722030dbb9d10adfe648b2632437f021c75",
          "transactionIndex": "0x6",
          "logIndex": "0xc",
          "removed": false
        },
        {
          "address": "0x00cd58deebd7a2f1c55daec715faf8aed5b27bf8",
          "topics": [
            "0xedf8870433c83823eb071d3df1caa8d008f12f6440918c20d75a3602cda30fe0",
            "0xaf10335b50689207d1fd37afd98e87aa0eb209c9074d8655642636223cc5f3a0",
            "0x0000000000000000000000007cbaa98bd5e171a658fdf761ed1db33806a0d346",
            "0x0000000000000000000000007cbaa98bd5e171a658fdf761ed1db33806a0d346"
          ],
          "data": "0x00000000000000000000000000000000000000000000000000001b48eb57e0000000000000000000000000000000000000000000000000019fd6e0d0bb99e5a3",
          "blockHash": "0xf76430f49303cb3af346069c39abce4201a949bfbe82110cf942fb42b38786ad",
          "blockNumber": "0x12c1b61",
          "transactionHash": "0x5b5e4dfbecb93d01dcfb52de0fcb3722030dbb9d10adfe648b2632437f021c75",
          "transactionIndex": "0x6",
          "logIndex": "0xd",
          "removed": false
        },
        {
          "address": "0x4200000000000000000000000000000000000006",
          "topics": [
            "0xddf252ad1be2c89b69c2b068fc378daa952ba7f163c4a11628f55a4df523b3ef",
            "0x0000000000000000000000007cbaa98bd5e171a658fdf761ed1db33806a0d346",
            "0x00000000000000000000000000cd58deebd7a2f1c55daec715faf8aed5b27bf8"
          ],
          "data": "0x00000000000000000000000000000000000000000000000000001b48eb57e000",
          "blockHash": "0xf76430f49303cb3af346069c39abce4201a949bfbe82110cf942fb42b38786ad",
          "blockNumber": "0x12c1b61",
          "transactionHash": "0x5b5e4dfbecb93d01dcfb52de0fcb3722030dbb9d10adfe648b2632437f021c75",
          "transactionIndex": "0x6",
          "logIndex": "0xe",
          "removed": false
        },
        {
          "address": "0x7cbaa98bd5e171a658fdf761ed1db33806a0d346",
          "topics": [
            "0x15c027cc4fd826d986cad358803439f7326d3aa4ed969ff90dbee4bc150f68e9"
          ],
          "data": "0x000000000000000000000000000000000000000000000016ff4b03d91f255ac6",
          "blockHash": "0xf76430f49303cb3af346069c39abce4201a949bfbe82110cf942fb42b38786ad",
          "blockNumber": "0x12c1b61",
          "transactionHash": "0x5b5e4dfbecb93d01dcfb52de0fcb3722030dbb9d10adfe648b2632437f021c75",
          "transactionIndex": "0x6",
          "logIndex": "0xf",
          "removed": false
        },
        {
          "address": "0x387b6478299d37f76667f4e56889278b85cc389d",
          "topics": [
            "0x90890809c654f11d6e72a28fa60149770a0d11ec6c92319d6ceb2bb0a4ea1a15",
            "0x000000000000000000000000afa9cf6c504ca060b31626879635c049e2de9e1c"
          ],
          "data": "0x00000000000000000000000000000000000000000000000000001b48eb57e00000000000000000000000000000000000000000000000000000001b42551dfd05",
          "blockHash": "0xf76430f49303cb3af346069c39abce4201a949bfbe82110cf942fb42b38786ad",
          "blockNumber": "0x12c1b61",
          "transactionHash": "0x5b5e4dfbecb93d01dcfb52de0fcb3722030dbb9d10adfe648b2632437f021c75",
          "transactionIndex": "0x6",
          "logIndex": "0x10",
          "removed": false
        }
      ],
      "logsBloom": "0x00000080000000000000000000000020000000001400000000040000080000002000400000000000000000100000000008000000000008000000004020a04000000000400000400000400008800000000000010800000000000000088200000000000000020002000000800000001800000000000014000000000010000200001108000000000000002000000000000000000001002020000020000000000400020000200020001000000100000000000000100024000000000000000000000000000042000080000000000000000000080000000008000000000020008020404010000000000000000000000001000100000000400000400000002000080000",
      "type": "0x2",
      "transactionHash": "0x5b5e4dfbecb93d01dcfb52de0fcb3722030dbb9d10adfe648b2632437f021c75",
      "transactionIndex": "0x6",
      "blockHash": "0xf76430f49303cb3af346069c39abce4201a949bfbe82110cf942fb42b38786ad",
      "blockNumber": "0x12c1b61",
      "gasUsed": "0x67c85",
      "effectiveGasPrice": "0x2b08",
      "from": "0xafa9cf6c504ca060b31626879635c049e2de9e1c",
      "to": "0x387b6478299d37f76667f4e56889278b85cc389d",
      "contractAddress": null,
      "l1BaseFeeScalar": "0x90f6",
      "l1BlobBaseFee": "0x1",
      "l1BlobBaseFeeScalar": "0x125749",
      "l1Fee": "0xa9b264703",
      "l1GasPrice": "0x2dba6263",
      "l1GasUsed": "0x640"
    },
    {
      "status": "0x1",
      "cumulativeGasUsed": "0x1e0be7",
      "logs": [
        {
          "address": "0x7cbaa98bd5e171a658fdf761ed1db33806a0d346",
          "topics": [
            "0x15c027cc4fd826d986cad358803439f7326d3aa4ed969ff90dbee4bc150f68e9"
          ],
          "data": "0x000000000000000000000000000000000000000000000016ff4b03d91f255ac6",
          "blockHash": "0xf76430f49303cb3af346069c39abce4201a949bfbe82110cf942fb42b38786ad",
          "blockNumber": "0x12c1b61",
          "transactionHash": "0x2f9926d51ced9f5a31bb3f88be2d267135ea7378ca5d6b88e9dc50247bd57c54",
          "transactionIndex": "0x7",
          "logIndex": "0x11",
          "removed": false
        },
        {
          "address": "0x7cbaa98bd5e171a658fdf761ed1db33806a0d346",
          "topics": [
            "0x548669ea9bcc24888e6d74a69c9865fa98d795686853b8aa3eb87814261bbb71"
          ],
          "data": "0x0000000000000000000000000000000000000000000000000000000000000000",
          "blockHash": "0xf76430f49303cb3af346069c39abce4201a949bfbe82110cf942fb42b38786ad",
          "blockNumber": "0x12c1b61",
          "transactionHash": "0x2f9926d51ced9f5a31bb3f88be2d267135ea7378ca5d6b88e9dc50247bd57c54",
          "transactionIndex": "0x7",
          "logIndex": "0x12",
          "removed": false
        },
        {
          "address": "0x7cbaa98bd5e171a658fdf761ed1db33806a0d346",
          "topics": [
            "0xf66f28b40975dbb933913542c7e6a0f50a1d0f20aa74ea6e0efe65ab616323ec"
          ],
          "data": "0x000000000000000000000000000000000000000000000016ff4b03d91f255ac60000000000000000000000000000000000000000000000000000000000000000",
          "blockHash": "0xf76430f49303cb3af346069c39abce4201a949bfbe82110cf942fb42b38786ad",
          "blockNumber": "0x12c1b61",
          "transactionHash": "0x2f9926d51ced9f5a31bb3f88be2d267135ea7378ca5d6b88e9dc50247bd57c54",
          "transactionIndex": "0x7",
          "logIndex": "0x13",
          "removed": false
        },
        {
          "address": "0x7cbaa98bd5e171a658fdf761ed1db33806a0d346",
          "topics": [
            "0x15c027cc4fd826d986cad358803439f7326d3aa4ed969ff90dbee4bc150f68e9"
          ],
          "data": "0x000000000000000000000000000000000000000000000016ff4af925f007e9d6",
          "blockHash": "0xf76430f49303cb3af346069c39abce4201a949bfbe82110cf942fb42b38786ad",
          "blockNumber": "0x12c1b61",
          "transactionHash": "0x2f9926d51ced9f5a31bb3f88be2d267135ea7378ca5d6b88e9dc50247bd57c54",
          "transactionIndex": "0x7",
          "logIndex": "0x14",
          "removed": false
        },
        {
          "address": "0x5576629f21d528a8c3e06c338dda907b94563902",
          "topics": [
            "0x7120161a7b3d31251e01294ab351ef15a41b91659a36032e4641bb89b121e321",
            "0x39a5802740c0719cca89e306c46fc836cd339ae0c60c1a6c0094a57d2763c39c"
          ],
          "data": "0x000000000000000000000000000000000000000000000000000000000078f6970000000000000000000000000000000000000000000000000000000001e3da5f",
          "blockHash": "0xf76430f49303cb3af346069c39abce4201a949bfbe82110cf942fb42b38786ad",
          "blockNumber": "0x12c1b61",
          "transactionHash": "0x2f9926d51ced9f5a31bb3f88be2d267135ea7378ca5d6b88e9dc50247bd57c54",
          "transactionIndex": "0x7",
          "logIndex": "0x15",
          "removed": false
        },
        {
          "address": "0x00cd58deebd7a2f1c55daec715faf8aed5b27bf8",
          "topics": [
            "0x9d9bd501d0657d7dfe415f779a620a62b78bc508ddc0891fbbd8b7ac0f8fce87",
            "0x39a5802740c0719cca89e306c46fc836cd339ae0c60c1a6c0094a57d2763c39c"
          ],
          "data": "0x000000000000000000000000000000000000000000000000000000000078f69700000000000000000000000000000000000000000000000000000000000000000000000000000000000000000000000000000000000000000000000000000000",
          "blockHash": "0xf76430f49303cb3af346069c39abce4201a949bfbe82110cf942fb42b38786ad",
          "blockNumber": "0x12c1b61",
          "transactionHash": "0x2f9926d51ced9f5a31bb3f88be2d267135ea7378ca5d6b88e9dc50247bd57c54",
          "transactionIndex": "0x7",
          "logIndex": "0x16",
          "removed": false
        },
        {
          "address": "0x5576629f21d528a8c3e06c338dda907b94563902",
          "topics": [
            "0x7120161a7b3d31251e01294ab351ef15a41b91659a36032e4641bb89b121e321",
            "0xe7a59f459606e84d8bc439d2783d47bec98efd8760436d9fff19ddc14fa10a98"
          ],
          "data": "0x000000000000000000000000000000000000000000000000000000000078f6970000000000000000000000000000000000000000000000000000000001e3da5f",
          "blockHash": "0xf76430f49303cb3af346069c39abce4201a949bfbe82110cf942fb42b38786ad",
          "blockNumber": "0x12c1b61",
          "transactionHash": "0x2f9926d51ced9f5a31bb3f88be2d267135ea7378ca5d6b88e9dc50247bd57c54",
          "transactionIndex": "0x7",
          "logIndex": "0x17",
          "removed": false
        },
        {
          "address": "0x00cd58deebd7a2f1c55daec715faf8aed5b27bf8",
          "topics": [
            "0x9d9bd501d0657d7dfe415f779a620a62b78bc508ddc0891fbbd8b7ac0f8fce87",
            "0xe7a59f459606e84d8bc439d2783d47bec98efd8760436d9fff19ddc14fa10a98"
          ],
          "data": "0x000000000000000000000000000000000000000000000000000000000078f69700000000000000000000000000000000000000000000000000000000000000000000000000000000000000000000000000000000000000000000000000000000",
          "blockHash": "0xf76430f49303cb3af346069c39abce4201a949bfbe82110cf942fb42b38786ad",
          "blockNumber": "0x12c1b61",
          "transactionHash": "0x2f9926d51ced9f5a31bb3f88be2d267135ea7378ca5d6b88e9dc50247bd57c54",
          "transactionIndex": "0x7",
          "logIndex": "0x18",
          "removed": false
        },
        {
          "address": "0x00cd58deebd7a2f1c55daec715faf8aed5b27bf8",
          "topics": [
            "0xa56fc0ad5702ec05ce63666221f796fb62437c32db1aa1aa075fc6484cf58fbf",
            "0xaf10335b50689207d1fd37afd98e87aa0eb209c9074d8655642636223cc5f3a0",
            "0x0000000000000000000000007cbaa98bd5e171a658fdf761ed1db33806a0d346",
            "0x0000000000000000000000007cbaa98bd5e171a658fdf761ed1db33806a0d346"
          ],
          "data": "0x0000000000000000000000007cbaa98bd5e171a658fdf761ed1db33806a0d34600000000000000000000000000000000000000000000000000000ab32f1d70f0000000000000000000000000000000000000000000000000a31302d45d976b5d",
          "blockHash": "0xf76430f49303cb3af346069c39abce4201a949bfbe82110cf942fb42b38786ad",
          "blockNumber": "0x12c1b61",
          "transactionHash": "0x2f9926d51ced9f5a31bb3f88be2d267135ea7378ca5d6b88e9dc50247bd57c54",
          "transactionIndex": "0x7",
          "logIndex": "0x19",
          "removed": false
        },
        {
          "address": "0x4200000000000000000000000000000000000006",
          "topics": [
            "0xddf252ad1be2c89b69c2b068fc378daa952ba7f163c4a11628f55a4df523b3ef",
            "0x00000000000000000000000000cd58deebd7a2f1c55daec715faf8aed5b27bf8",
            "0x0000000000000000000000007cbaa98bd5e171a658fdf761ed1db33806a0d346"
          ],
          "data": "0x00000000000000000000000000000000000000000000000000000ab32f1d70f0",
          "blockHash": "0xf76430f49303cb3af346069c39abce4201a949bfbe82110cf942fb42b38786ad",
          "blockNumber": "0x12c1b61",
          "transactionHash": "0x2f9926d51ced9f5a31bb3f88be2d267135ea7378ca5d6b88e9dc50247bd57c54",
          "transactionIndex": "0x7",
          "logIndex": "0x1a",
          "removed": false
        },
        {
          "address": "0x7cbaa98bd5e171a658fdf761ed1db33806a0d346",
          "topics": [
            "0xddf252ad1be2c89b69c2b068fc378daa952ba7f163c4a11628f55a4df523b3ef",
            "0x000000000000000000000000387b6478299d37f76667f4e56889278b85cc389d",
            "0x0000000000000000000000000000000000000000000000000000000000000000"
          ],
          "data": "0x00000000000000000000000000000000000000000000000000000ab099d99066",
          "blockHash": "0xf76430f49303cb3af346069c39abce4201a949bfbe82110cf942fb42b38786ad",
          "blockNumber": "0x12c1b61",
          "transactionHash": "0x2f9926d51ced9f5a31bb3f88be2d267135ea7378ca5d6b88e9dc50247bd57c54",
          "transactionIndex": "0x7",
          "logIndex": "0x1b",
          "removed": false
        },
        {
          "address": "0x4200000000000000000000000000000000000006",
          "topics": [
            "0xddf252ad1be2c89b69c2b068fc378daa952ba7f163c4a11628f55a4df523b3ef",
            "0x0000000000000000000000007cbaa98bd5e171a658fdf761ed1db33806a0d346",
            "0x000000000000000000000000387b6478299d37f76667f4e56889278b85cc389d"
          ],
          "data": "0x00000000000000000000000000000000000000000000000000000ab32f1d70f0",
          "blockHash": "0xf76430f49303cb3af346069c39abce4201a949bfbe82110cf942fb42b38786ad",
          "blockNumber": "0x12c1b61",
          "transactionHash": "0x2f9926d51ced9f5a31bb3f88be2d267135ea7378ca5d6b88e9dc50247bd57c54",
          "transactionIndex": "0x7",
          "logIndex": "0x1c",
          "removed": false
        },
        {
          "address": "0x7cbaa98bd5e171a658fdf761ed1db33806a0d346",
          "topics": [
            "0xfbde797d201c681b91056529119e0b02407c7bb96a4a2c75c01fc9667232c8db",
            "0x000000000000000000000000387b6478299d37f76667f4e56889278b85cc389d",
            "0x000000000000000000000000387b6478299d37f76667f4e56889278b85cc389d",
            "0x000000000000000000000000387b6478299d37f76667f4e56889278b85cc389d"
          ],
          "data": "0x00000000000000000000000000000000000000000000000000000ab32f1d70f000000000000000000000000000000000000000000000000000000ab099d99066",
          "blockHash": "0xf76430f49303cb3af346069c39abce4201a949bfbe82110cf942fb42b38786ad",
          "blockNumber": "0x12c1b61",
          "transactionHash": "0x2f9926d51ced9f5a31bb3f88be2d267135ea7378ca5d6b88e9dc50247bd57c54",
          "transactionIndex": "0x7",
          "logIndex": "0x1d",
          "removed": false
        },
        {
          "address": "0x4200000000000000000000000000000000000006",
          "topics": [
            "0x8c5be1e5ebec7d5bd14f71427d1e84f3dd0314c0f7b2291e5b200ac8c7c3b925",
            "0x000000000000000000000000387b6478299d37f76667f4e56889278b85cc389d",
            "0x000000000000000000000000d336fb4dbfcb2a1dc06b1c7297a7b8bd4059eead"
          ],
          "data": "0x00000000000000000000000000000000000000000000000000000ab32f1d70f0",
          "blockHash": "0xf76430f49303cb3af346069c39abce4201a949bfbe82110cf942fb42b38786ad",
          "blockNumber": "0x12c1b61",
          "transactionHash": "0x2f9926d51ced9f5a31bb3f88be2d267135ea7378ca5d6b88e9dc50247bd57c54",
          "transactionIndex": "0x7",
          "logIndex": "0x1e",
          "removed": false
        },
        {
          "address": "0x4200000000000000000000000000000000000006",
          "topics": [
            "0xddf252ad1be2c89b69c2b068fc378daa952ba7f163c4a11628f55a4df523b3ef",
            "0x000000000000000000000000387b6478299d37f76667f4e56889278b85cc389d",
            "0x000000000000000000000000d336fb4dbfcb2a1dc06b1c7297a7b8bd4059eead"
          ],
          "data": "0x00000000000000000000000000000000000000000000000000000ab32f1d70f0",
          "blockHash": "0xf76430f49303cb3af346069c39abce4201a949bfbe82110cf942fb42b38786ad",
          "blockNumber": "0x12c1b61",
          "transactionHash": "0x2f9926d51ced9f5a31bb3f88be2d267135ea7378ca5d6b88e9dc50247bd57c54",
          "transactionIndex": "0x7",
          "logIndex": "0x1f",
          "removed": false
        },
        {
          "address": "0x76d8de471f54aaa87784119c60df1bbfc852c415",
          "topics": [
            "0xddf252ad1be2c89b69c2b068fc378daa952ba7f163c4a11628f55a4df523b3ef",
            "0x0000000000000000000000009c69e0b64a63aa7daa0b5dc61df3cc77ea05bcb3",
            "0x000000000000000000000000d336fb4dbfcb2a1dc06b1c7297a7b8bd4059eead"
          ],
          "data": "0x000000000000000000000000000000000000000000000000000008e429fedcbe",
          "blockHash": "0xf76430f49303cb3af346069c39abce4201a949bfbe82110cf942fb42b38786ad",
          "blockNumber": "0x12c1b61",
          "transactionHash": "0x2f9926d51ced9f5a31bb3f88be2d267135ea7378ca5d6b88e9dc50247bd57c54",
          "transactionIndex": "0x7",
          "logIndex": "0x20",
          "removed": false
        },
        {
          "address": "0x4200000000000000000000000000000000000006",
          "topics": [
            "0xddf252ad1be2c89b69c2b068fc378daa952ba7f163c4a11628f55a4df523b3ef",
            "0x000000000000000000000000d336fb4dbfcb2a1dc06b1c7297a7b8bd4059eead",
            "0x0000000000000000000000009c69e0b64a63aa7daa0b5dc61df3cc77ea05bcb3"
          ],
          "data": "0x00000000000000000000000000000000000000000000000000000ab32f1d70f0",
          "blockHash": "0xf76430f49303cb3af346069c39abce4201a949bfbe82110cf942fb42b38786ad",
          "blockNumber": "0x12c1b61",
          "transactionHash": "0x2f9926d51ced9f5a31bb3f88be2d267135ea7378ca5d6b88e9dc50247bd57c54",
          "transactionIndex": "0x7",
          "logIndex": "0x21",
          "removed": false
        },
        {
          "address": "0x9c69e0b64a63aa7daa0b5dc61df3cc77ea05bcb3",
          "topics": [
            "0xc42079f94a6350d7e6235f29174924f928cc2ac818eb64fed8004e115fbcca67",
            "0x000000000000000000000000d336fb4dbfcb2a1dc06b1c7297a7b8bd4059eead",
            "0x000000000000000000000000d336fb4dbfcb2a1dc06b1c7297a7b8bd4059eead"
          ],
          "data": "0x00000000000000000000000000000000000000000000000000000ab32f1d70f0fffffffffffffffffffffffffffffffffffffffffffffffffffff71bd60123420000000000000000000000000000000000000000e962c8d76ad1753e84fb6fd000000000000000000000000000000000000000000000ff167ec91406efd1a350fffffffffffffffffffffffffffffffffffffffffffffffffffffffffffff8c6",
          "blockHash": "0xf76430f49303cb3af346069c39abce4201a949bfbe82110cf942fb42b38786ad",
          "blockNumber": "0x12c1b61",
          "transactionHash": "0x2f9926d51ced9f5a31bb3f88be2d267135ea7378ca5d6b88e9dc50247bd57c54",
          "transactionIndex": "0x7",
          "logIndex": "0x22",
          "removed": false
        },
        {
          "address": "0x76d8de471f54aaa87784119c60df1bbfc852c415",
          "topics": [
            "0xddf252ad1be2c89b69c2b068fc378daa952ba7f163c4a11628f55a4df523b3ef",
            "0x000000000000000000000000d336fb4dbfcb2a1dc06b1c7297a7b8bd4059eead",
            "0x000000000000000000000000387b6478299d37f76667f4e56889278b85cc389d"
          ],
          "data": "0x000000000000000000000000000000000000000000000000000008e429fedcbe",
          "blockHash": "0xf76430f49303cb3af346069c39abce4201a949bfbe82110cf942fb42b38786ad",
          "blockNumber": "0x12c1b61",
          "transactionHash": "0x2f9926d51ced9f5a31bb3f88be2d267135ea7378ca5d6b88e9dc50247bd57c54",
          "transactionIndex": "0x7",
          "logIndex": "0x23",
          "removed": false
        },
        {
          "address": "0xd336fb4dbfcb2a1dc06b1c7297a7b8bd4059eead",
          "topics": [
            "0x4f73e5828387c436ef01a51b03853873e76d7a5551556837d452cbeb6f285cb5"
          ],
          "data": "0x00000000000000000000000000000000000000000000000000000ab32f1d70f0000000000000000000000000000000000000000000000000000008e429fedcbe",
          "blockHash": "0xf76430f49303cb3af346069c39abce4201a949bfbe82110cf942fb42b38786ad",
          "blockNumber": "0x12c1b61",
          "transactionHash": "0x2f9926d51ced9f5a31bb3f88be2d267135ea7378ca5d6b88e9dc50247bd57c54",
          "transactionIndex": "0x7",
          "logIndex": "0x24",
          "removed": false
        },
        {
          "address": "0x76d8de471f54aaa87784119c60df1bbfc852c415",
          "topics": [
            "0x8c5be1e5ebec7d5bd14f71427d1e84f3dd0314c0f7b2291e5b200ac8c7c3b925",
            "0x000000000000000000000000387b6478299d37f76667f4e56889278b85cc389d",
            "0x000000000000000000000000238f962e638ea58f4a7a5a6cc517733f02645e56"
          ],
          "data": "0x000000000000000000000000000000000000000000000000000008e429fedcbe",
          "blockHash": "0xf76430f49303cb3af346069c39abce4201a949bfbe82110cf942fb42b38786ad",
          "blockNumber": "0x12c1b61",
          "transactionHash": "0x2f9926d51ced9f5a31bb3f88be2d267135ea7378ca5d6b88e9dc50247bd57c54",
          "transactionIndex": "0x7",
          "logIndex": "0x25",
          "removed": false
        },
        {
          "address": "0x238f962e638ea58f4a7a5a6cc517733f02645e56",
          "topics": [
            "0x3c5ad147104e56be34a9176a6692f7df8d2f4b29a5af06bc6b98970d329d6577"
          ],
          "data": "0x0000000000000000000000000000000000000000000000000000000000000040000000000000000000000000000000000000000000000000000009184e72a0000000000000000000000000000000000000000000000000000000000000000020737570706c79436f6c6c61746572616c416e64426f72726f772063616c6c6564",
          "blockHash": "0xf76430f49303cb3af346069c39abce4201a949bfbe82110cf942fb42b38786ad",
          "blockNumber": "0x12c1b61",
          "transactionHash": "0x2f9926d51ced9f5a31bb3f88be2d267135ea7378ca5d6b88e9dc50247bd57c54",
          "transactionIndex": "0x7",
          "logIndex": "0x26",
          "removed": false
        },
        {
          "address": "0x238f962e638ea58f4a7a5a6cc517733f02645e56",
          "topics": [
            "0x3c5ad147104e56be34a9176a6692f7df8d2f4b29a5af06bc6b98970d329d6577"
          ],
          "data": "0x0000000000000000000000000000000000000000000000000000000000000040000000000000000000000000afa9cf6c504ca060b31626879635c049e2de9e1c0000000000000000000000000000000000000000000000000000000000000010426f72726f776572206164647265737300000000000000000000000000000000",
          "blockHash": "0xf76430f49303cb3af346069c39abce4201a949bfbe82110cf942fb42b38786ad",
          "blockNumber": "0x12c1b61",
          "transactionHash": "0x2f9926d51ced9f5a31bb3f88be2d267135ea7378ca5d6b88e9dc50247bd57c54",
          "transactionIndex": "0x7",
          "logIndex": "0x27",
          "removed": false
        },
        {
          "address": "0x238f962e638ea58f4a7a5a6cc517733f02645e56",
          "topics": [
            "0x3c5ad147104e56be34a9176a6692f7df8d2f4b29a5af06bc6b98970d329d6577"
          ],
          "data": "0x000000000000000000000000000000000000000000000000000000000000004000000000000000000000000000000000000000000000000000002d79883d20000000000000000000000000000000000000000000000000000000000000000014436f6e7472616374204554482062616c616e6365000000000000000000000000",
          "blockHash": "0xf76430f49303cb3af346069c39abce4201a949bfbe82110cf942fb42b38786ad",
          "blockNumber": "0x12c1b61",
          "transactionHash": "0x2f9926d51ced9f5a31bb3f88be2d267135ea7378ca5d6b88e9dc50247bd57c54",
          "transactionIndex": "0x7",
          "logIndex": "0x28",
          "removed": false
        },
        {
          "address": "0x76d8de471f54aaa87784119c60df1bbfc852c415",
          "topics": [
            "0x8c5be1e5ebec7d5bd14f71427d1e84f3dd0314c0f7b2291e5b200ac8c7c3b925",
            "0x000000000000000000000000387b6478299d37f76667f4e56889278b85cc389d",
            "0x000000000000000000000000238f962e638ea58f4a7a5a6cc517733f02645e56"
          ],
          "data": "0x0000000000000000000000000000000000000000000000000000000000000000",
          "blockHash": "0xf76430f49303cb3af346069c39abce4201a949bfbe82110cf942fb42b38786ad",
          "blockNumber": "0x12c1b61",
          "transactionHash": "0x2f9926d51ced9f5a31bb3f88be2d267135ea7378ca5d6b88e9dc50247bd57c54",
          "transactionIndex": "0x7",
          "logIndex": "0x29",
          "removed": false
        },
        {
          "address": "0x76d8de471f54aaa87784119c60df1bbfc852c415",
          "topics": [
            "0xddf252ad1be2c89b69c2b068fc378daa952ba7f163c4a11628f55a4df523b3ef",
            "0x000000000000000000000000387b6478299d37f76667f4e56889278b85cc389d",
            "0x000000000000000000000000238f962e638ea58f4a7a5a6cc517733f02645e56"
          ],
          "data": "0x000000000000000000000000000000000000000000000000000008e429fedcbe",
          "blockHash": "0xf76430f49303cb3af346069c39abce4201a949bfbe82110cf942fb42b38786ad",
          "blockNumber": "0x12c1b61",
          "transactionHash": "0x2f9926d51ced9f5a31bb3f88be2d267135ea7378ca5d6b88e9dc50247bd57c54",
          "transactionIndex": "0x7",
          "logIndex": "0x2a",
          "removed": false
        },
        {
          "address": "0x238f962e638ea58f4a7a5a6cc517733f02645e56",
          "topics": [
            "0x3c5ad147104e56be34a9176a6692f7df8d2f4b29a5af06bc6b98970d329d6577"
          ],
          "data": "0x0000000000000000000000000000000000000000000000000000000000000040000000000000000000000000000000000000000000000000000008e429fedcbe0000000000000000000000000000000000000000000000000000000000000012777374455448207472616e736665727265640000000000000000000000000000",
          "blockHash": "0xf76430f49303cb3af346069c39abce4201a949bfbe82110cf942fb42b38786ad",
          "blockNumber": "0x12c1b61",
          "transactionHash": "0x2f9926d51ced9f5a31bb3f88be2d267135ea7378ca5d6b88e9dc50247bd57c54",
          "transactionIndex": "0x7",
          "logIndex": "0x2b",
          "removed": false
        },
        {
          "address": "0x238f962e638ea58f4a7a5a6cc517733f02645e56",
          "topics": [
            "0x3c5ad147104e56be34a9176a6692f7df8d2f4b29a5af06bc6b98970d329d6577"
          ],
          "data": "0x0000000000000000000000000000000000000000000000000000000000000040000000000000000000000000000000000000000000000000000009184e72a000000000000000000000000000000000000000000000000000000000000000001753656e64696e672045544820746f20626f72726f776572000000000000000000",
          "blockHash": "0xf76430f49303cb3af346069c39abce4201a949bfbe82110cf942fb42b38786ad",
          "blockNumber": "0x12c1b61",
          "transactionHash": "0x2f9926d51ced9f5a31bb3f88be2d267135ea7378ca5d6b88e9dc50247bd57c54",
          "transactionIndex": "0x7",
          "logIndex": "0x2c",
          "removed": false
        },
        {
          "address": "0x238f962e638ea58f4a7a5a6cc517733f02645e56",
          "topics": [
            "0xbb949ed3b2032cdcc299b87fdf9b6ffc926c78e704c08da2ae56b4f1fdca9f2d"
          ],
          "data": "0x000000000000000000000000afa9cf6c504ca060b31626879635c049e2de9e1c000000000000000000000000000000000000000000000000000009184e72a0000000000000000000000000000000000000000000000000000000000000000001",
          "blockHash": "0xf76430f49303cb3af346069c39abce4201a949bfbe82110cf942fb42b38786ad",
          "blockNumber": "0x12c1b61",
          "transactionHash": "0x2f9926d51ced9f5a31bb3f88be2d267135ea7378ca5d6b88e9dc50247bd57c54",
          "transactionIndex": "0x7",
          "logIndex": "0x2d",
          "removed": false
        },
        {
          "address": "0x238f962e638ea58f4a7a5a6cc517733f02645e56",
          "topics": [
            "0x3c5ad147104e56be34a9176a6692f7df8d2f4b29a5af06bc6b98970d329d6577"
          ],
          "data": "0x0000000000000000000000000000000000000000000000000000000000000040000000000000000000000000000000000000000000000000000009184e72a00000000000000000000000000000000000000000000000000000000000000000154554482073656e74207375636365737366756c6c790000000000000000000000",
          "blockHash": "0xf76430f49303cb3af346069c39abce4201a949bfbe82110cf942fb42b38786ad",
          "blockNumber": "0x12c1b61",
          "transactionHash": "0x2f9926d51ced9f5a31bb3f88be2d267135ea7378ca5d6b88e9dc50247bd57c54",
          "transactionIndex": "0x7",
          "logIndex": "0x2e",
          "removed": false
        },
        {
          "address": "0x387b6478299d37f76667f4e56889278b85cc389d",
          "topics": [
            "0xbba88c1e49240c20a1d39cb8fde6b32c6731a6e105afe2e83b197721eb804ab0",
            "0x266b1d602a8deae06c3035f6186c5488712364447e71d12ba9cc3ab901edd3c2",
            "0x0000000000000000000000000000000000000000000000000000000000000000",
            "0x000000000000000000000000afa9cf6c504ca060b31626879635c049e2de9e1c"
          ],
          "data": "0x000000000000000000000000000000000000000000000000000009184e72a000",
          "blockHash": "0xf76430f49303cb3af346069c39abce4201a949bfbe82110cf942fb42b38786ad",
          "blockNumber": "0x12c1b61",
          "transactionHash": "0x2f9926d51ced9f5a31bb3f88be2d267135ea7378ca5d6b88e9dc50247bd57c54",
          "transactionIndex": "0x7",
          "logIndex": "0x2f",
          "removed": false
        }
      ],
      "logsBloom": "0x00000280000000400000000000000820000002005000104000040000080010000000400000000000000000100000000000000000000028000000000020a04000000000000000400800400808000000800000019000000000000000080200000000002000520002000004800000001804008000000010800010000010000a00009108020000000000002000000000000000000100002020400020000800040402020100200020001000000100080020020000100024000000000000000000000000020042000000000010000000000000080000400000008000010020008220004410000000040000000000000001021100000000000000000000002081080200",
      "type": "0x2",
      "transactionHash": "0x2f9926d51ced9f5a31bb3f88be2d267135ea7378ca5d6b88e9dc50247bd57c54",
      "transactionIndex": "0x7",
      "blockHash": "0xf76430f49303cb3af346069c39abce4201a949bfbe82110cf942fb42b38786ad",
      "blockNumber": "0x12c1b61",
      "gasUsed": "0xaeb61",
      "effectiveGasPrice": "0x2b08",
      "from": "0xafa9cf6c504ca060b31626879635c049e2de9e1c",
      "to": "0x387b6478299d37f76667f4e56889278b85cc389d",
      "contractAddress": null,
      "l1BaseFeeScalar": "0x90f6",
      "l1BlobBaseFee": "0x1",
      "l1BlobBaseFeeScalar": "0x125749",
      "l1Fee": "0xa9b264703",
      "l1GasPrice": "0x2dba6263",
      "l1GasUsed": "0x640"
    }
  ],
  "libraries": [],
  "pending": [],
  "returns": {},
  "timestamp": 1754064411,
  "chain": 1135,
  "commit": "4809a7c"
}