{
  "transactions": [
    {
      "hash": "0x4b73b18a8b5db775f0c5556df94ab8b644dbfdfbb11fa8c121776d34cc212515",
      "transactionType": "CREATE",
      "contractName": "LendingModuleIndustryStandard",
      "contractAddress": "0xee10ae12bbd1498a874774c89a377d97f3c0e27b",
      "function": null,
      "arguments": null,
      "transaction": {
        "from": "0xafa9cf6c504ca060b31626879635c049e2de9e1c",
        "gas": "0xff8a8",
        "value": "0x0",
        "input": "0x60e060405234801561000f575f80fd5b5073420000000000000000000000000000000000000660808181527376d8de471f54aaa87784119c60df1bbfc852c41560a081815272cd58deebd7a2f1c55daec715faf8aed5b27bf860c052600680546001600160a01b0319908116331790915560408051928301815285835260208301849052737a378060a8a1fc5861d58bfd1a58581ca11ca70c908301819052735576629f21d528a8c3e06c338dda907b9456390260608401819052670d1d507e40be8000939095018390525f8054831690961790955560018054821690931790925560028054831690941790935560038054909116909117905560045560805160a05160c051610b2861014f5f395f81816102550152818161038401528181610481015281816106d1015261078901525f8181610114015261064701525f818160a3015261081f0152610b285ff3fe608060405260043610610087575f3560e01c80636e8ad2aa116100575780636e8ad2aa146101745780637b9e68f2146101885780638da5cb5b146101f857806390c0d59614610217578063d8fbc83314610244575f80fd5b80633fc8cef3146100925780634a81067d146100e25780634aa07e6414610103578063536fff6c14610136575f80fd5b3661008e57005b5f80fd5b34801561009d575f80fd5b506100c57f000000000000000000000000000000000000000000000000000000000000000081565b6040516001600160a01b0390911681526020015b60405180910390f35b3480156100ed575f80fd5b506101016100fc3660046109a5565b610277565b005b34801561010e575f80fd5b506100c57f000000000000000000000000000000000000000000000000000000000000000081565b348015610141575f80fd5b506101646101503660046109a5565b60056020525f908152604090205460ff1681565b60405190151581526020016100d9565b34801561017f575f80fd5b5061010161031c565b348015610193575f80fd5b505f546001546002546003546004546101bd946001600160a01b0390811694811693811692169085565b604080516001600160a01b0396871681529486166020860152928516928401929092529092166060820152608081019190915260a0016100d9565b348015610203575f80fd5b506006546100c5906001600160a01b031681565b348015610222575f80fd5b506102366102313660046109c5565b610419565b6040519081526020016100d9565b34801561024f575f80fd5b506100c57f000000000000000000000000000000000000000000000000000000000000000081565b6006546001600160a01b031633146102c35760405162461bcd60e51b815260206004820152600a60248201526927b7363c9037bbb732b960b11b60448201526064015b60405180910390fd5b6001600160a01b0381165f81815260056020908152604091829020805460ff1916600117905590519182527fc0a811b2657f7446c56553fd1c0f9b1cb496d15cb7584d71ad735d84d3827d73910160405180910390a150565b335f9081526005602052604090205460ff166103695760405162461bcd60e51b815260206004820152600c60248201526b155b985d5d1a1bdc9a5e995960a21b60448201526064016102ba565b6040516207767560ed1b8152306004820152600160248201527f00000000000000000000000000000000000000000000000000000000000000006001600160a01b03169063eecea000906044015f604051808303815f87803b1580156103cd575f80fd5b505af11580156103df573d5f803e3d5ffd5b50506040513381527f7056f984ceb229f35946a46851deb027eef38318906f48970c05beb680843b9f9250602001905060405180910390a1565b335f9081526005602052604081205460ff166104665760405162461bcd60e51b815260206004820152600c60248201526b155b985d5d1a1bdc9a5e995960a21b60448201526064016102ba565b6040516332f256cf60e11b81523360048201523060248201527f00000000000000000000000000000000000000000000000000000000000000006001600160a01b0316906365e4ad9e90604401602060405180830381865afa1580156104ce573d5f803e3d5ffd5b505050506040513d601f19601f820116820180604052508101906104f291906109f7565b61055b5760405162461bcd60e51b815260206004820152603460248201527f436972636c65206d75737420617574686f72697a65206c656e64696e67206d6f604482015273191d5b19481a5b88135bdc9c1a1bc8199a5c9cdd60621b60648201526084016102ba565b6040516323b872dd60e01b8152336004820152306024820152604481018590527376d8de471f54aaa87784119c60df1bbfc852c415906323b872dd906064016020604051808303815f875af11580156105b6573d5f803e3d5ffd5b505050506040513d601f19601f820116820180604052508101906105da91906109f7565b6106185760405162461bcd60e51b815260206004820152600f60248201526e151c985b9cd9995c8819985a5b1959608a1b60448201526064016102ba565b60405163095ea7b360e01b815272cd58deebd7a2f1c55daec715faf8aed5b27bf86004820152602481018590527f00000000000000000000000000000000000000000000000000000000000000006001600160a01b03169063095ea7b3906044016020604051808303815f875af1158015610695573d5f803e3d5ffd5b505050506040513d601f19601f820116820180604052508101906106b991906109f7565b5060405163238d657960e01b81526001600160a01b037f0000000000000000000000000000000000000000000000000000000000000000169063238d65799061070a905f9088903390600401610a54565b5f604051808303815f87803b158015610721575f80fd5b505af1158015610733573d5f803e3d5ffd5b5050604080518781523360208201527fc746ea777b1da0310da2ae713c73990a15d4b72d2e723fcb283b8b9e81f79d80935001905060405180910390a16040516350d8cd4b60e01b81525f906001600160a01b037f000000000000000000000000000000000000000000000000000000000000000016906350d8cd4b906107c69084908890829033903090600401610a94565b60408051808303815f875af11580156107e1573d5f803e3d5ffd5b505050506040513d601f19601f820116820180604052508101906108059190610ad0565b50604051632e1a7d4d60e01b8152600481018290529091507f00000000000000000000000000000000000000000000000000000000000000006001600160a01b031690632e1a7d4d906024015f604051808303815f87803b158015610868575f80fd5b505af115801561087a573d5f803e3d5ffd5b505050505f836001600160a01b0316826040515f6040518083038185875af1925050503d805f81146108c7576040519150601f19603f3d011682016040523d82523d5f602084013e6108cc565b606091505b50509050806109135760405162461bcd60e51b8152602060048201526013602482015272115512081d1c985b9cd9995c8819985a5b1959606a1b60448201526064016102ba565b604080518381526001600160a01b03861660208201527f6e02acee5001c9c48e033cce6e7193e2717a4dc1d239424dcf41e995471f6385910160405180910390a160408051336020820152429181019190915260600160405160208183030381529060405280519060200120925050509392505050565b80356001600160a01b03811681146109a0575f80fd5b919050565b5f602082840312156109b5575f80fd5b6109be8261098a565b9392505050565b5f805f606084860312156109d7575f80fd5b83359250602084013591506109ee6040850161098a565b90509250925092565b5f60208284031215610a07575f80fd5b815180151581146109be575f80fd5b80546001600160a01b039081168352600182015481166020840152600282015481166040840152600382015416606083015260040154608090910152565b5f610100610a628387610a16565b60a0830194909452506001600160a01b039190911660c082015260e081018290525f9181019190915261012001919050565b6101208101610aa38288610a16565b60a082019590955260c08101939093526001600160a01b0391821660e08401521661010090910152919050565b5f8060408385031215610ae1575f80fd5b50508051602090910151909290915056fea2646970667358221220110fac04ef368f43b0027d8c212007127389a831701fc68ac37f70ad518c9dde64736f6c63430008140033",
        "nonce": "0x139",
        "chainId": "0x46f"
      },
      "additionalContracts": [],
      "isFixedGasLimit": false
    },
    {
      "hash": "0x73402f2995fb80e8e3de1e3529ec9bb395390b8b971610f2ee248d62b7de0553",
      "transactionType": "CREATE2",
      "contractName": null,
      "contractAddress": "0xef00a3f980971c2b962b987e81c382d9b255a3a3",
      "function": null,
      "arguments": null,
      "transaction": {
        "from": "0xafa9cf6c504ca060b31626879635c049e2de9e1c",
        "to": "0x4e59b44847b379578588920ca78fbf26c0b4956c",
        "gas": "0x156b9",
        "value": "0x0",
        "input": "0xc4c735514a50725ec44d7cc48bad74c1295f5433057e6c6a3d3fa2d0b11123ee3d602d80600a3d3981f3363d3d373d3d3d363d73b5fe149c80235fab970358543eece1c800fdca645af43d82803e903d91602b57fd5bf3",
        "nonce": "0x13a",
        "chainId": "0x46f"
      },
      "additionalContracts": [],
      "isFixedGasLimit": false
    },
    {
      "hash": "0x89db9a5b00b4dce06012b3ce3888c57b101a945a53d0fbb927416d5e47c5f4bd",
      "transactionType": "CALL",
      "contractName": null,
      "contractAddress": "0xef00a3f980971c2b962b987e81c382d9b255a3a3",
      "function": "initialize(string,address[],address,address,address)",
      "arguments": [
        "MORPHO_AUTH_TEST",
        "[0xAFA9CF6c504Ca060B31626879635c049E2De9E1c]",
        "0x68Dc6FeBA312BF9B7BfBe096EA5e7ccb61a522dE",
        "0xd336fB4dbFCB2a1Dc06b1c7297a7B8bD4059EeaD",
        "0xeE10ae12bBd1498A874774c89A377D97F3C0e27B"
      ],
      "transaction": {
        "from": "0xafa9cf6c504ca060b31626879635c049e2de9e1c",
        "to": "0xef00a3f980971c2b962b987e81c382d9b255a3a3",
        "gas": "0x3cb62",
        "value": "0x0",
        "input": "0xe821fd2f00000000000000000000000000000000000000000000000000000000000000a000000000000000000000000000000000000000000000000000000000000000e000000000000000000000000068dc6feba312bf9b7bfbe096ea5e7ccb61a522de000000000000000000000000d336fb4dbfcb2a1dc06b1c7297a7b8bd4059eead000000000000000000000000ee10ae12bbd1498a874774c89a377d97f3c0e27b00000000000000000000000000000000000000000000000000000000000000104d4f5250484f5f415554485f54455354000000000000000000000000000000000000000000000000000000000000000000000000000000000000000000000001000000000000000000000000afa9cf6c504ca060b31626879635c049e2de9e1c",
        "nonce": "0x13b",
        "chainId": "0x46f"
      },
      "additionalContracts": [],
      "isFixedGasLimit": false
    },
    {
      "hash": "0xc997a1494d13f3a7d168a7921a18a49aeb11f67f1285250411f768c49d9104f6",
      "transactionType": "CALL",
      "contractName": null,
      "contractAddress": "0xd336fb4dbfcb2a1dc06b1c7297a7b8bd4059eead",
      "function": "authorizeCircle(address)",
      "arguments": [
        "0xeF00a3F980971C2B962B987e81C382d9b255a3A3"
      ],
      "transaction": {
        "from": "0xafa9cf6c504ca060b31626879635c049e2de9e1c",
        "to": "0xd336fb4dbfcb2a1dc06b1c7297a7b8bd4059eead",
        "gas": "0xf8a0",
        "value": "0x0",
        "input": "0x4a81067d000000000000000000000000ef00a3f980971c2b962b987e81c382d9b255a3a3",
        "nonce": "0x13c",
        "chainId": "0x46f"
      },
      "additionalContracts": [],
      "isFixedGasLimit": false
    },
    {
      "hash": "0x121964d3e6642e68ff5aab7101e574660d8e21c430fc14a07923e5dbb115726f",
      "transactionType": "CALL",
      "contractName": "LendingModuleIndustryStandard",
      "contractAddress": "0xee10ae12bbd1498a874774c89a377d97f3c0e27b",
      "function": "authorizeCircle(address)",
      "arguments": [
        "0xeF00a3F980971C2B962B987e81C382d9b255a3A3"
      ],
      "transaction": {
        "from": "0xafa9cf6c504ca060b31626879635c049e2de9e1c",
        "to": "0xee10ae12bbd1498a874774c89a377d97f3c0e27b",
        "gas": "0x10d6c",
        "value": "0x0",
        "input": "0x4a81067d000000000000000000000000ef00a3f980971c2b962b987e81c382d9b255a3a3",
        "nonce": "0x13d",
        "chainId": "0x46f"
      },
      "additionalContracts": [],
      "isFixedGasLimit": false
    },
    {
      "hash": "0xe8d336fa5f60254462214c52191472a7455eb21ce0062f5adfedf10adcae347e",
      "transactionType": "CALL",
      "contractName": null,
      "contractAddress": "0xef00a3f980971c2b962b987e81c382d9b255a3a3",
      "function": "deposit()",
      "arguments": [],
      "transaction": {
        "from": "0xafa9cf6c504ca060b31626879635c049e2de9e1c",
        "to": "0xef00a3f980971c2b962b987e81c382d9b255a3a3",
        "gas": "0x97c70",
        "value": "0x38d7ea4c68000",
        "input": "0xd0e30db0",
        "nonce": "0x13e",
        "chainId": "0x46f"
      },
      "additionalContracts": [],
      "isFixedGasLimit": false
    },
    {
      "hash": "0x6a168fd088d095245486e12b535d693a861038d49953fe119a45433643d7710c",
      "transactionType": "CALL",
      "contractName": null,
      "contractAddress": "0xef00a3f980971c2b962b987e81c382d9b255a3a3",
      "function": "directLTVWithdraw(uint256)",
      "arguments": [
        "799246742283841"
      ],
      "transaction": {
        "from": "0xafa9cf6c504ca060b31626879635c049e2de9e1c",
        "to": "0xef00a3f980971c2b962b987e81c382d9b255a3a3",
        "gas": "0x1258de",
        "value": "0x0",
        "input": "0xc05880140000000000000000000000000000000000000000000000000002d6e922296641",
        "nonce": "0x13f",
        "chainId": "0x46f"
      },
      "additionalContracts": [],
      "isFixedGasLimit": false
    }
  ],
  "receipts": [
    {
      "status": "0x1",
      "cumulativeGasUsed": "0x112971",
      "logs": [],
      "logsBloom": "0x00000000000000000000000000000000000000000000000000000000000000000000000000000000000000000000000000000000000000000000000000000000000000000000000000000000000000000000000000000000000000000000000000000000000000000000000000000000000000000000000000000000000000000000000000000000000000000000000000000000000000000000000000000000000000000000000000000000000000000000000000000000000000000000000000000000000000000000000000000000000000000000000000000000000000000000000000000000000000000000000000000000000000000000000000000000",
      "type": "0x2",
      "transactionHash": "0x4b73b18a8b5db775f0c5556df94ab8b644dbfdfbb11fa8c121776d34cc212515",
      "transactionIndex": "0x3",
      "blockHash": "0xe40a537d5f43a50d3d24dfc2896a1cf5591ab330e77edb9b81ab9f0de648e8ca",
      "blockNumber": "0x12c101d",
      "gasUsed": "0xc491f",
      "effectiveGasPrice": "0xf4637",
      "from": "0xafa9cf6c504ca060b31626879635c049e2de9e1c",
      "to": null,
      "contractAddress": "0xee10ae12bbd1498a874774c89a377d97f3c0e27b",
      "l1BaseFeeScalar": "0x90f6",
      "l1BlobBaseFee": "0x1",
      "l1BlobBaseFeeScalar": "0x125749",
      "l1Fee": "0x1ec63aaeaaa",
      "l1GasPrice": "0x764fae22",
      "l1GasUsed": "0x7025"
    },
    {
      "status": "0x1",
      "cumulativeGasUsed": "0x122191",
      "logs": [],
      "logsBloom": "0x00000000000000000000000000000000000000000000000000000000000000000000000000000000000000000000000000000000000000000000000000000000000000000000000000000000000000000000000000000000000000000000000000000000000000000000000000000000000000000000000000000000000000000000000000000000000000000000000000000000000000000000000000000000000000000000000000000000000000000000000000000000000000000000000000000000000000000000000000000000000000000000000000000000000000000000000000000000000000000000000000000000000000000000000000000000",
      "type": "0x2",
      "transactionHash": "0x73402f2995fb80e8e3de1e3529ec9bb395390b8b971610f2ee248d62b7de0553",
      "transactionIndex": "0x4",
      "blockHash": "0xe40a537d5f43a50d3d24dfc2896a1cf5591ab330e77edb9b81ab9f0de648e8ca",
      "blockNumber": "0x12c101d",
      "gasUsed": "0xf820",
      "effectiveGasPrice": "0xf4637",
      "from": "0xafa9cf6c504ca060b31626879635c049e2de9e1c",
      "to": "0x4e59b44847b379578588920ca78fbf26c0b4956c",
      "contractAddress": null,
      "l1BaseFeeScalar": "0x90f6",
      "l1BlobBaseFee": "0x1",
      "l1BlobBaseFeeScalar": "0x125749",
      "l1Fee": "0x23d4568da8",
      "l1GasPrice": "0x764fae22",
      "l1GasUsed": "0x829"
    },
    {
      "status": "0x1",
      "cumulativeGasUsed": "0x14b9c3",
      "logs": [
        {
          "address": "0xef00a3f980971c2b962b987e81c382d9b255a3a3",
          "topics": [
            "0xb251eb052afc73ffd02ffe85ad79990a8b3fed60d76dbc2fa2fdd7123dffd914",
            "0x000000000000000000000000afa9cf6c504ca060b31626879635c049e2de9e1c"
          ],
          "data": "0x",
          "blockHash": "0xe40a537d5f43a50d3d24dfc2896a1cf5591ab330e77edb9b81ab9f0de648e8ca",
          "blockNumber": "0x12c101d",
          "transactionHash": "0x89db9a5b00b4dce06012b3ce3888c57b101a945a53d0fbb927416d5e47c5f4bd",
          "transactionIndex": "0x5",
          "logIndex": "0x7",
          "removed": false
        },
        {
          "address": "0x00cd58deebd7a2f1c55daec715faf8aed5b27bf8",
          "topics": [
            "0xd5e969f01efe921d3f766bdebad25f0a05e3f237311f56482bf132d0326309c0",
            "0x000000000000000000000000ef00a3f980971c2b962b987e81c382d9b255a3a3",
            "0x000000000000000000000000ef00a3f980971c2b962b987e81c382d9b255a3a3",
            "0x000000000000000000000000ee10ae12bbd1498a874774c89a377d97f3c0e27b"
          ],
          "data": "0x0000000000000000000000000000000000000000000000000000000000000001",
          "blockHash": "0xe40a537d5f43a50d3d24dfc2896a1cf5591ab330e77edb9b81ab9f0de648e8ca",
          "blockNumber": "0x12c101d",
          "transactionHash": "0x89db9a5b00b4dce06012b3ce3888c57b101a945a53d0fbb927416d5e47c5f4bd",
          "transactionIndex": "0x5",
          "logIndex": "0x8",
          "removed": false
        },
        {
          "address": "0xef00a3f980971c2b962b987e81c382d9b255a3a3",
          "topics": [
            "0x57071b304b0e56e7c632994efcae29f832926363a0d594a096592f1e02bb91e1",
            "0x000000000000000000000000ee10ae12bbd1498a874774c89a377d97f3c0e27b"
          ],
          "data": "0x",
          "blockHash": "0xe40a537d5f43a50d3d24dfc2896a1cf5591ab330e77edb9b81ab9f0de648e8ca",
          "blockNumber": "0x12c101d",
          "transactionHash": "0x89db9a5b00b4dce06012b3ce3888c57b101a945a53d0fbb927416d5e47c5f4bd",
          "transactionIndex": "0x5",
          "logIndex": "0x9",
          "removed": false
        }
      ],
      "logsBloom": "0x00000500000000000000002000000000000000000000000000000000000000080000000000000000000000000000000000000000000000000000000000000000000000400000000000400000000000000000000800000000000000000000000000000000000000000000204000000100000004000000000000000000000000000000080000000000000000000000000000000000000020020002000000000000000000200000001000000100000000000000000020000000000000000000100000000000400000000000000000000080000000000000000000000000000000000000040000000000000000000000000000100000000000000000000000000000",
      "type": "0x2",
      "transactionHash": "0x89db9a5b00b4dce06012b3ce3888c57b101a945a53d0fbb927416d5e47c5f4bd",
      "transactionIndex": "0x5",
      "blockHash": "0xe40a537d5f43a50d3d24dfc2896a1cf5591ab330e77edb9b81ab9f0de648e8ca",
      "blockNumber": "0x12c101d",
      "gasUsed": "0x29832",
      "effectiveGasPrice": "0xf4637",
      "from": "0xafa9cf6c504ca060b31626879635c049e2de9e1c",
      "to": "0xef00a3f980971c2b962b987e81c382d9b255a3a3",
      "contractAddress": null,
      "l1BaseFeeScalar": "0x90f6",
      "l1BlobBaseFee": "0x1",
      "l1BlobBaseFeeScalar": "0x125749",
      "l1Fee": "0x320fa2acdf",
      "l1GasPrice": "0x764fae22",
      "l1GasUsed": "0xb66"
    },
    {
      "status": "0x1",
      "cumulativeGasUsed": "0x156dc3",
      "logs": [],
      "logsBloom": "0x00000000000000000000000000000000000000000000000000000000000000000000000000000000000000000000000000000000000000000000000000000000000000000000000000000000000000000000000000000000000000000000000000000000000000000000000000000000000000000000000000000000000000000000000000000000000000000000000000000000000000000000000000000000000000000000000000000000000000000000000000000000000000000000000000000000000000000000000000000000000000000000000000000000000000000000000000000000000000000000000000000000000000000000000000000000",
      "type": "0x2",
      "transactionHash": "0xc997a1494d13f3a7d168a7921a18a49aeb11f67f1285250411f768c49d9104f6",
      "transactionIndex": "0x6",
      "blockHash": "0xe40a537d5f43a50d3d24dfc2896a1cf5591ab330e77edb9b81ab9f0de648e8ca",
      "blockNumber": "0x12c101d",
      "gasUsed": "0xb400",
      "effectiveGasPrice": "0xf4637",
      "from": "0xafa9cf6c504ca060b31626879635c049e2de9e1c",
      "to": "0xd336fb4dbfcb2a1dc06b1c7297a7b8bd4059eead",
      "contractAddress": null,
      "l1BaseFeeScalar": "0x90f6",
      "l1BlobBaseFee": "0x1",
      "l1BlobBaseFeeScalar": "0x125749",
      "l1Fee": "0x1b70d94d40",
      "l1GasPrice": "0x764fae22",
      "l1GasUsed": "0x640"
    },
    {
      "status": "0x1",
      "cumulativeGasUsed": "0x1625fc",
      "logs": [
        {
          "address": "0xee10ae12bbd1498a874774c89a377d97f3c0e27b",
          "topics": [
            "0xc0a811b2657f7446c56553fd1c0f9b1cb496d15cb7584d71ad735d84d3827d73"
          ],
          "data": "0x000000000000000000000000ef00a3f980971c2b962b987e81c382d9b255a3a3",
          "blockHash": "0xe40a537d5f43a50d3d24dfc2896a1cf5591ab330e77edb9b81ab9f0de648e8ca",
          "blockNumber": "0x12c101d",
          "transactionHash": "0x121964d3e6642e68ff5aab7101e574660d8e21c430fc14a07923e5dbb115726f",
          "transactionIndex": "0x7",
          "logIndex": "0xa",
          "removed": false
        }
      ],
      "logsBloom": "0x00000000000000000000000000000000000000000000000000000000000000000000000000000000000000000000000000000000000000000000040000000000000000000000000000000010000000000400001000000000000000000000200000000000000000000000000000000000000000000000000000000000000000000000000000000000000000000000000000000000000000000000000000000000000000000000000000000000000000000000000000000000000000000000000000000000000000000000000000000000000000000000000000000000000000000000000000000001000000000000000000000000000000000000000000000000",
      "type": "0x2",
      "transactionHash": "0x121964d3e6642e68ff5aab7101e574660d8e21c430fc14a07923e5dbb115726f",
      "transactionIndex": "0x7",
      "blockHash": "0xe40a537d5f43a50d3d24dfc2896a1cf5591ab330e77edb9b81ab9f0de648e8ca",
      "blockNumber": "0x12c101d",
      "gasUsed": "0xb839",
      "effectiveGasPrice": "0xf4637",
      "from": "0xafa9cf6c504ca060b31626879635c049e2de9e1c",
      "to": "0xee10ae12bbd1498a874774c89a377d97f3c0e27b",
      "contractAddress": null,
      "l1BaseFeeScalar": "0x90f6",
      "l1BlobBaseFee": "0x1",
      "l1BlobBaseFeeScalar": "0x125749",
      "l1Fee": "0x1b70d94d40",
      "l1GasPrice": "0x764fae22",
      "l1GasUsed": "0x640"
    },
    {
      "status": "0x1",
      "cumulativeGasUsed": "0x1ca275",
      "logs": [
        {
          "address": "0x4200000000000000000000000000000000000006",
          "topics": [
            "0xe1fffcc4923d04b559f4d29a8bfc6cda04eb5b0d3c460751c2402c5c5cc9109c",
            "0x000000000000000000000000ef00a3f980971c2b962b987e81c382d9b255a3a3"
          ],
          "data": "0x00000000000000000000000000000000000000000000000000038d7ea4c68000",
          "blockHash": "0xe40a537d5f43a50d3d24dfc2896a1cf5591ab330e77edb9b81ab9f0de648e8ca",
          "blockNumber": "0x12c101d",
          "transactionHash": "0xe8d336fa5f60254462214c52191472a7455eb21ce0062f5adfedf10adcae347e",
          "transactionIndex": "0x8",
          "logIndex": "0xb",
          "removed": false
        },
        {
          "address": "0x4200000000000000000000000000000000000006",
          "topics": [
            "0x8c5be1e5ebec7d5bd14f71427d1e84f3dd0314c0f7b2291e5b200ac8c7c3b925",
            "0x000000000000000000000000ef00a3f980971c2b962b987e81c382d9b255a3a3",
            "0x0000000000000000000000007cbaa98bd5e171a658fdf761ed1db33806a0d346"
          ],
          "data": "0x00000000000000000000000000000000000000000000000000038d7ea4c68000",
          "blockHash": "0xe40a537d5f43a50d3d24dfc2896a1cf5591ab330e77edb9b81ab9f0de648e8ca",
          "blockNumber": "0x12c101d",
          "transactionHash": "0xe8d336fa5f60254462214c52191472a7455eb21ce0062f5adfedf10adcae347e",
          "transactionIndex": "0x8",
          "logIndex": "0xc",
          "removed": false
        },
        {
          "address": "0x7cbaa98bd5e171a658fdf761ed1db33806a0d346",
          "topics": [
            "0x15c027cc4fd826d986cad358803439f7326d3aa4ed969ff90dbee4bc150f68e9"
          ],
          "data": "0x000000000000000000000000000000000000000000000016ff44d16b9797f546",
          "blockHash": "0xe40a537d5f43a50d3d24dfc2896a1cf5591ab330e77edb9b81ab9f0de648e8ca",
          "blockNumber": "0x12c101d",
          "transactionHash": "0xe8d336fa5f60254462214c52191472a7455eb21ce0062f5adfedf10adcae347e",
          "transactionIndex": "0x8",
          "logIndex": "0xd",
          "removed": false
        },
        {
          "address": "0x7cbaa98bd5e171a658fdf761ed1db33806a0d346",
          "topics": [
            "0x548669ea9bcc24888e6d74a69c9865fa98d795686853b8aa3eb87814261bbb71"
          ],
          "data": "0x0000000000000000000000000000000000000000000000000000000000000000",
          "blockHash": "0xe40a537d5f43a50d3d24dfc2896a1cf5591ab330e77edb9b81ab9f0de648e8ca",
          "blockNumber": "0x12c101d",
          "transactionHash": "0xe8d336fa5f60254462214c52191472a7455eb21ce0062f5adfedf10adcae347e",
          "transactionIndex": "0x8",
          "logIndex": "0xe",
          "removed": false
        },
        {
          "address": "0x7cbaa98bd5e171a658fdf761ed1db33806a0d346",
          "topics": [
            "0xddf252ad1be2c89b69c2b068fc378daa952ba7f163c4a11628f55a4df523b3ef",
            "0x0000000000000000000000000000000000000000000000000000000000000000",
            "0x00000000000000000000000093db2e90f8b2b073010b425f9350202330bd923e"
          ],
          "data": "0x0000000000000000000000000000000000000000000000000001b90ef87cf6ad",
          "blockHash": "0xe40a537d5f43a50d3d24dfc2896a1cf5591ab330e77edb9b81ab9f0de648e8ca",
          "blockNumber": "0x12c101d",
          "transactionHash": "0xe8d336fa5f60254462214c52191472a7455eb21ce0062f5adfedf10adcae347e",
          "transactionIndex": "0x8",
          "logIndex": "0xf",
          "removed": false
        },
        {
          "address": "0x7cbaa98bd5e171a658fdf761ed1db33806a0d346",
          "topics": [
            "0xf66f28b40975dbb933913542c7e6a0f50a1d0f20aa74ea6e0efe65ab616323ec"
          ],
          "data": "0x000000000000000000000000000000000000000000000016ff44d16b9797f5460000000000000000000000000000000000000000000000000001b90ef87cf6ad",
          "blockHash": "0xe40a537d5f43a50d3d24dfc2896a1cf5591ab330e77edb9b81ab9f0de648e8ca",
          "blockNumber": "0x12c101d",
          "transactionHash": "0xe8d336fa5f60254462214c52191472a7455eb21ce0062f5adfedf10adcae347e",
          "transactionIndex": "0x8",
          "logIndex": "0x10",
          "removed": false
        },
        {
          "address": "0x4200000000000000000000000000000000000006",
          "topics": [
            "0xddf252ad1be2c89b69c2b068fc378daa952ba7f163c4a11628f55a4df523b3ef",
            "0x000000000000000000000000ef00a3f980971c2b962b987e81c382d9b255a3a3",
            "0x0000000000000000000000007cbaa98bd5e171a658fdf761ed1db33806a0d346"
          ],
          "data": "0x00000000000000000000000000000000000000000000000000038d7ea4c68000",
          "blockHash": "0xe40a537d5f43a50d3d24dfc2896a1cf5591ab330e77edb9b81ab9f0de648e8ca",
          "blockNumber": "0x12c101d",
          "transactionHash": "0xe8d336fa5f60254462214c52191472a7455eb21ce0062f5adfedf10adcae347e",
          "transactionIndex": "0x8",
          "logIndex": "0x11",
          "removed": false
        },
        {
          "address": "0x7cbaa98bd5e171a658fdf761ed1db33806a0d346",
          "topics": [
            "0xddf252ad1be2c89b69c2b068fc378daa952ba7f163c4a11628f55a4df523b3ef",
            "0x0000000000000000000000000000000000000000000000000000000000000000",
            "0x000000000000000000000000ef00a3f980971c2b962b987e81c382d9b255a3a3"
          ],
          "data": "0x00000000000000000000000000000000000000000000000000038ca369e154a8",
          "blockHash": "0xe40a537d5f43a50d3d24dfc2896a1cf5591ab330e77edb9b81ab9f0de648e8ca",
          "blockNumber": "0x12c101d",
          "transactionHash": "0xe8d336fa5f60254462214c52191472a7455eb21ce0062f5adfedf10adcae347e",
          "transactionIndex": "0x8",
          "logIndex": "0x12",
          "removed": false
        },
        {
          "address": "0x7cbaa98bd5e171a658fdf761ed1db33806a0d346",
          "topics": [
            "0xdcbc1c05240f31ff3ad067ef1ee35ce4997762752e3a095284754544f4c709d7",
            "0x000000000000000000000000ef00a3f980971c2b962b987e81c382d9b255a3a3",
            "0x000000000000000000000000ef00a3f980971c2b962b987e81c382d9b255a3a3"
          ],
          "data": "0x00000000000000000000000000000000000000000000000000038d7ea4c6800000000000000000000000000000000000000000000000000000038ca369e154a8",
          "blockHash": "0xe40a537d5f43a50d3d24dfc2896a1cf5591ab330e77edb9b81ab9f0de648e8ca",
          "blockNumber": "0x12c101d",
          "transactionHash": "0xe8d336fa5f60254462214c52191472a7455eb21ce0062f5adfedf10adcae347e",
          "transactionIndex": "0x8",
          "logIndex": "0x13",
          "removed": false
        },
        {
          "address": "0x5576629f21d528a8c3e06c338dda907b94563902",
          "topics": [
            "0x7120161a7b3d31251e01294ab351ef15a41b91659a36032e4641bb89b121e321",
            "0xaf10335b50689207d1fd37afd98e87aa0eb209c9074d8655642636223cc5f3a0"
          ],
          "data": "0x00000000000000000000000000000000000000000000000000000000156dd055000000000000000000000000000000000000000000000000000000001639380b",
          "blockHash": "0xe40a537d5f43a50d3d24dfc2896a1cf5591ab330e77edb9b81ab9f0de648e8ca",
          "blockNumber": "0x12c101d",
          "transactionHash": "0xe8d336fa5f60254462214c52191472a7455eb21ce0062f5adfedf10adcae347e",
          "transactionIndex": "0x8",
          "logIndex": "0x14",
          "removed": false
        },
        {
          "address": "0x00cd58deebd7a2f1c55daec715faf8aed5b27bf8",
          "topics": [
            "0x9d9bd501d0657d7dfe415f779a620a62b78bc508ddc0891fbbd8b7ac0f8fce87",
            "0xaf10335b50689207d1fd37afd98e87aa0eb209c9074d8655642636223cc5f3a0"
          ],
          "data": "0x00000000000000000000000000000000000000000000000000000000156dd0550000000000000000000000000000000000000000000000000000afb4b178cf740000000000000000000000000000000000000000000000000000000000000000",
          "blockHash": "0xe40a537d5f43a50d3d24dfc2896a1cf5591ab330e77edb9b81ab9f0de648e8ca",
          "blockNumber": "0x12c101d",
          "transactionHash": "0xe8d336fa5f60254462214c52191472a7455eb21ce0062f5adfedf10adcae347e",
          "transactionIndex": "0x8",
          "logIndex": "0x15",
          "removed": false
        },
        {
          "address": "0x00cd58deebd7a2f1c55daec715faf8aed5b27bf8",
          "topics": [
            "0xedf8870433c83823eb071d3df1caa8d008f12f6440918c20d75a3602cda30fe0",
            "0xaf10335b50689207d1fd37afd98e87aa0eb209c9074d8655642636223cc5f3a0",
            "0x0000000000000000000000007cbaa98bd5e171a658fdf761ed1db33806a0d346",
            "0x0000000000000000000000007cbaa98bd5e171a658fdf761ed1db33806a0d346"
          ],
          "data": "0x00000000000000000000000000000000000000000000000000038d7ea4c6800000000000000000000000000000000000000000000000003625563e89be4679b9",
          "blockHash": "0xe40a537d5f43a50d3d24dfc2896a1cf5591ab330e77edb9b81ab9f0de648e8ca",
          "blockNumber": "0x12c101d",
          "transactionHash": "0xe8d336fa5f60254462214c52191472a7455eb21ce0062f5adfedf10adcae347e",
          "transactionIndex": "0x8",
          "logIndex": "0x16",
          "removed": false
        },
        {
          "address": "0x4200000000000000000000000000000000000006",
          "topics": [
            "0xddf252ad1be2c89b69c2b068fc378daa952ba7f163c4a11628f55a4df523b3ef",
            "0x0000000000000000000000007cbaa98bd5e171a658fdf761ed1db33806a0d346",
            "0x00000000000000000000000000cd58deebd7a2f1c55daec715faf8aed5b27bf8"
          ],
          "data": "0x00000000000000000000000000000000000000000000000000038d7ea4c68000",
          "blockHash": "0xe40a537d5f43a50d3d24dfc2896a1cf5591ab330e77edb9b81ab9f0de648e8ca",
          "blockNumber": "0x12c101d",
          "transactionHash": "0xe8d336fa5f60254462214c52191472a7455eb21ce0062f5adfedf10adcae347e",
          "transactionIndex": "0x8",
          "logIndex": "0x17",
          "removed": false
        },
        {
          "address": "0x7cbaa98bd5e171a658fdf761ed1db33806a0d346",
          "topics": [
            "0x15c027cc4fd826d986cad358803439f7326d3aa4ed969ff90dbee4bc150f68e9"
          ],
          "data": "0x000000000000000000000000000000000000000000000016ff485eea3c5e7546",
          "blockHash": "0xe40a537d5f43a50d3d24dfc2896a1cf5591ab330e77edb9b81ab9f0de648e8ca",
          "blockNumber": "0x12c101d",
          "transactionHash": "0xe8d336fa5f60254462214c52191472a7455eb21ce0062f5adfedf10adcae347e",
          "transactionIndex": "0x8",
          "logIndex": "0x18",
          "removed": false
        },
        {
          "address": "0xef00a3f980971c2b962b987e81c382d9b255a3a3",
          "topics": [
            "0x73a19dd210f1a7f902193214c0ee91dd35ee5b4d920cba8d519eca65a7b488ca",
            "0x000000000000000000000000afa9cf6c504ca060b31626879635c049e2de9e1c"
          ],
          "data": "0x00000000000000000000000000000000000000000000000000038d7ea4c6800000000000000000000000000000000000000000000000000000038ca369e154a8",
          "blockHash": "0xe40a537d5f43a50d3d24dfc2896a1cf5591ab330e77edb9b81ab9f0de648e8ca",
          "blockNumber": "0x12c101d",
          "transactionHash": "0xe8d336fa5f60254462214c52191472a7455eb21ce0062f5adfedf10adcae347e",
          "transactionIndex": "0x8",
          "logIndex": "0x19",
          "removed": false
        }
      ],
      "logsBloom": "0x00000080000000000000000000000020000000000000000000040000080000002000400000000000000900100000000000000000000008000000004020a04000000000400000400000400008800000000000010800000000000000088000000000000000020002000000804000000800000000000004000000000010000200001108000000000000002000000000000000000001002020020020000000000400020000200020001000000100000000002000100024000000000000000000100000000042400080000000000000000000080000000008000000000020008020404010000000000000000000000001000000100000000000400000000000080000",
      "type": "0x2",
      "transactionHash": "0xe8d336fa5f60254462214c52191472a7455eb21ce0062f5adfedf10adcae347e",
      "transactionIndex": "0x8",
      "blockHash": "0xe40a537d5f43a50d3d24dfc2896a1cf5591ab330e77edb9b81ab9f0de648e8ca",
      "blockNumber": "0x12c101d",
      "gasUsed": "0x67c79",
      "effectiveGasPrice": "0xf4637",
      "from": "0xafa9cf6c504ca060b31626879635c049e2de9e1c",
      "to": "0xef00a3f980971c2b962b987e81c382d9b255a3a3",
      "contractAddress": null,
      "l1BaseFeeScalar": "0x90f6",
      "l1BlobBaseFee": "0x1",
      "l1BlobBaseFeeScalar": "0x125749",
      "l1Fee": "0x1b70d94d40",
      "l1GasPrice": "0x764fae22",
      "l1GasUsed": "0x640"
    },
    {
      "status": "0x1",
      "cumulativeGasUsed": "0x292dfe",
      "logs": [
        {
          "address": "0x7cbaa98bd5e171a658fdf761ed1db33806a0d346",
          "topics": [
            "0x15c027cc4fd826d986cad358803439f7326d3aa4ed969ff90dbee4bc150f68e9"
          ],
          "data": "0x000000000000000000000000000000000000000000000016ff485eea3c5e7546",
          "blockHash": "0xe40a537d5f43a50d3d24dfc2896a1cf5591ab330e77edb9b81ab9f0de648e8ca",
          "blockNumber": "0x12c101d",
          "transactionHash": "0x6a168fd088d095245486e12b535d693a861038d49953fe119a45433643d7710c",
          "transactionIndex": "0x9",
          "logIndex": "0x1a",
          "removed": false
        },
        {
          "address": "0x7cbaa98bd5e171a658fdf761ed1db33806a0d346",
          "topics": [
            "0x548669ea9bcc24888e6d74a69c9865fa98d795686853b8aa3eb87814261bbb71"
          ],
          "data": "0x0000000000000000000000000000000000000000000000000000000000000000",
          "blockHash": "0xe40a537d5f43a50d3d24dfc2896a1cf5591ab330e77edb9b81ab9f0de648e8ca",
          "blockNumber": "0x12c101d",
          "transactionHash": "0x6a168fd088d095245486e12b535d693a861038d49953fe119a45433643d7710c",
          "transactionIndex": "0x9",
          "logIndex": "0x1b",
          "removed": false
        },
        {
          "address": "0x7cbaa98bd5e171a658fdf761ed1db33806a0d346",
          "topics": [
            "0xf66f28b40975dbb933913542c7e6a0f50a1d0f20aa74ea6e0efe65ab616323ec"
          ],
          "data": "0x000000000000000000000000000000000000000000000016ff485eea3c5e75460000000000000000000000000000000000000000000000000000000000000000",
          "blockHash": "0xe40a537d5f43a50d3d24dfc2896a1cf5591ab330e77edb9b81ab9f0de648e8ca",
          "blockNumber": "0x12c101d",
          "transactionHash": "0x6a168fd088d095245486e12b535d693a861038d49953fe119a45433643d7710c",
          "transactionIndex": "0x9",
          "logIndex": "0x1c",
          "removed": false
        },
        {
          "address": "0x7cbaa98bd5e171a658fdf761ed1db33806a0d346",
          "topics": [
            "0x15c027cc4fd826d986cad358803439f7326d3aa4ed969ff90dbee4bc150f68e9"
          ],
          "data": "0x000000000000000000000000000000000000000000000016ff4507b9d7f18482",
          "blockHash": "0xe40a537d5f43a50d3d24dfc2896a1cf5591ab330e77edb9b81ab9f0de648e8ca",
          "blockNumber": "0x12c101d",
          "transactionHash": "0x6a168fd088d095245486e12b535d693a861038d49953fe119a45433643d7710c",
          "transactionIndex": "0x9",
          "logIndex": "0x1d",
          "removed": false
        },
        {
          "address": "0x5576629f21d528a8c3e06c338dda907b94563902",
          "topics": [
            "0x7120161a7b3d31251e01294ab351ef15a41b91659a36032e4641bb89b121e321",
            "0x39a5802740c0719cca89e306c46fc836cd339ae0c60c1a6c0094a57d2763c39c"
          ],
          "data": "0x000000000000000000000000000000000000000000000000000000000078f6970000000000000000000000000000000000000000000000000000000001e3da5f",
          "blockHash": "0xe40a537d5f43a50d3d24dfc2896a1cf5591ab330e77edb9b81ab9f0de648e8ca",
          "blockNumber": "0x12c101d",
          "transactionHash": "0x6a168fd088d095245486e12b535d693a861038d49953fe119a45433643d7710c",
          "transactionIndex": "0x9",
          "logIndex": "0x1e",
          "removed": false
        },
        {
          "address": "0x00cd58deebd7a2f1c55daec715faf8aed5b27bf8",
          "topics": [
            "0x9d9bd501d0657d7dfe415f779a620a62b78bc508ddc0891fbbd8b7ac0f8fce87",
            "0x39a5802740c0719cca89e306c46fc836cd339ae0c60c1a6c0094a57d2763c39c"
          ],
          "data": "0x000000000000000000000000000000000000000000000000000000000078f69700000000000000000000000000000000000000000000000000000000000000000000000000000000000000000000000000000000000000000000000000000000",
          "blockHash": "0xe40a537d5f43a50d3d24dfc2896a1cf5591ab330e77edb9b81ab9f0de648e8ca",
          "blockNumber": "0x12c101d",
          "transactionHash": "0x6a168fd088d095245486e12b535d693a861038d49953fe119a45433643d7710c",
          "transactionIndex": "0x9",
          "logIndex": "0x1f",
          "removed": false
        },
        {
          "address": "0x5576629f21d528a8c3e06c338dda907b94563902",
          "topics": [
            "0x7120161a7b3d31251e01294ab351ef15a41b91659a36032e4641bb89b121e321",
            "0xe7a59f459606e84d8bc439d2783d47bec98efd8760436d9fff19ddc14fa10a98"
          ],
          "data": "0x000000000000000000000000000000000000000000000000000000000078f6970000000000000000000000000000000000000000000000000000000001e3da5f",
          "blockHash": "0xe40a537d5f43a50d3d24dfc2896a1cf5591ab330e77edb9b81ab9f0de648e8ca",
          "blockNumber": "0x12c101d",
          "transactionHash": "0x6a168fd088d095245486e12b535d693a861038d49953fe119a45433643d7710c",
          "transactionIndex": "0x9",
          "logIndex": "0x20",
          "removed": false
        },
        {
          "address": "0x00cd58deebd7a2f1c55daec715faf8aed5b27bf8",
          "topics": [
            "0x9d9bd501d0657d7dfe415f779a620a62b78bc508ddc0891fbbd8b7ac0f8fce87",
            "0xe7a59f459606e84d8bc439d2783d47bec98efd8760436d9fff19ddc14fa10a98"
          ],
          "data": "0x000000000000000000000000000000000000000000000000000000000078f69700000000000000000000000000000000000000000000000000000000000000000000000000000000000000000000000000000000000000000000000000000000",
          "blockHash": "0xe40a537d5f43a50d3d24dfc2896a1cf5591ab330e77edb9b81ab9f0de648e8ca",
          "blockNumber": "0x12c101d",
          "transactionHash": "0x6a168fd088d095245486e12b535d693a861038d49953fe119a45433643d7710c",
          "transactionIndex": "0x9",
          "logIndex": "0x21",
          "removed": false
        },
        {
          "address": "0x00cd58deebd7a2f1c55daec715faf8aed5b27bf8",
          "topics": [
            "0xa56fc0ad5702ec05ce63666221f796fb62437c32db1aa1aa075fc6484cf58fbf",
            "0xaf10335b50689207d1fd37afd98e87aa0eb209c9074d8655642636223cc5f3a0",
            "0x0000000000000000000000007cbaa98bd5e171a658fdf761ed1db33806a0d346",
            "0x0000000000000000000000007cbaa98bd5e171a658fdf761ed1db33806a0d346"
          ],
          "data": "0x0000000000000000000000007cbaa98bd5e171a658fdf761ed1db33806a0d34600000000000000000000000000000000000000000000000000035730646cf0c4000000000000000000000000000000000000000000000032e9ae2fceaa038828",
          "blockHash": "0xe40a537d5f43a50d3d24dfc2896a1cf5591ab330e77edb9b81ab9f0de648e8ca",
          "blockNumber": "0x12c101d",
          "transactionHash": "0x6a168fd088d095245486e12b535d693a861038d49953fe119a45433643d7710c",
          "transactionIndex": "0x9",
          "logIndex": "0x22",
          "removed": false
        },
        {
          "address": "0x4200000000000000000000000000000000000006",
          "topics": [
            "0xddf252ad1be2c89b69c2b068fc378daa952ba7f163c4a11628f55a4df523b3ef",
            "0x00000000000000000000000000cd58deebd7a2f1c55daec715faf8aed5b27bf8",
            "0x0000000000000000000000007cbaa98bd5e171a658fdf761ed1db33806a0d346"
          ],
          "data": "0x00000000000000000000000000000000000000000000000000035730646cf0c4",
          "blockHash": "0xe40a537d5f43a50d3d24dfc2896a1cf5591ab330e77edb9b81ab9f0de648e8ca",
          "blockNumber": "0x12c101d",
          "transactionHash": "0x6a168fd088d095245486e12b535d693a861038d49953fe119a45433643d7710c",
          "transactionIndex": "0x9",
          "logIndex": "0x23",
          "removed": false
        },
        {
          "address": "0x7cbaa98bd5e171a658fdf761ed1db33806a0d346",
          "topics": [
            "0xddf252ad1be2c89b69c2b068fc378daa952ba7f163c4a11628f55a4df523b3ef",
            "0x000000000000000000000000ef00a3f980971c2b962b987e81c382d9b255a3a3",
            "0x0000000000000000000000000000000000000000000000000000000000000000"
          ],
          "data": "0x00000000000000000000000000000000000000000000000000035662409cc846",
          "blockHash": "0xe40a537d5f43a50d3d24dfc2896a1cf5591ab330e77edb9b81ab9f0de648e8ca",
          "blockNumber": "0x12c101d",
          "transactionHash": "0x6a168fd088d095245486e12b535d693a861038d49953fe119a45433643d7710c",
          "transactionIndex": "0x9",
          "logIndex": "0x24",
          "removed": false
        },
        {
          "address": "0x4200000000000000000000000000000000000006",
          "topics": [
            "0xddf252ad1be2c89b69c2b068fc378daa952ba7f163c4a11628f55a4df523b3ef",
            "0x0000000000000000000000007cbaa98bd5e171a658fdf761ed1db33806a0d346",
            "0x000000000000000000000000ef00a3f980971c2b962b987e81c382d9b255a3a3"
          ],
          "data": "0x00000000000000000000000000000000000000000000000000035730646cf0c4",
          "blockHash": "0xe40a537d5f43a50d3d24dfc2896a1cf5591ab330e77edb9b81ab9f0de648e8ca",
          "blockNumber": "0x12c101d",
          "transactionHash": "0x6a168fd088d095245486e12b535d693a861038d49953fe119a45433643d7710c",
          "transactionIndex": "0x9",
          "logIndex": "0x25",
          "removed": false
        },
        {
          "address": "0x7cbaa98bd5e171a658fdf761ed1db33806a0d346",
          "topics": [
            "0xfbde797d201c681b91056529119e0b02407c7bb96a4a2c75c01fc9667232c8db",
            "0x000000000000000000000000ef00a3f980971c2b962b987e81c382d9b255a3a3",
            "0x000000000000000000000000ef00a3f980971c2b962b987e81c382d9b255a3a3",
            "0x000000000000000000000000ef00a3f980971c2b962b987e81c382d9b255a3a3"
          ],
          "data": "0x00000000000000000000000000000000000000000000000000035730646cf0c400000000000000000000000000000000000000000000000000035662409cc846",
          "blockHash": "0xe40a537d5f43a50d3d24dfc2896a1cf5591ab330e77edb9b81ab9f0de648e8ca",
          "blockNumber": "0x12c101d",
          "transactionHash": "0x6a168fd088d095245486e12b535d693a861038d49953fe119a45433643d7710c",
          "transactionIndex": "0x9",
          "logIndex": "0x26",
          "removed": false
        },
        {
          "address": "0x4200000000000000000000000000000000000006",
          "topics": [
            "0x8c5be1e5ebec7d5bd14f71427d1e84f3dd0314c0f7b2291e5b200ac8c7c3b925",
            "0x000000000000000000000000ef00a3f980971c2b962b987e81c382d9b255a3a3",
            "0x000000000000000000000000d336fb4dbfcb2a1dc06b1c7297a7b8bd4059eead"
          ],
          "data": "0x00000000000000000000000000000000000000000000000000035730646cf0c4",
          "blockHash": "0xe40a537d5f43a50d3d24dfc2896a1cf5591ab330e77edb9b81ab9f0de648e8ca",
          "blockNumber": "0x12c101d",
          "transactionHash": "0x6a168fd088d095245486e12b535d693a861038d49953fe119a45433643d7710c",
          "transactionIndex": "0x9",
          "logIndex": "0x27",
          "removed": false
        },
        {
          "address": "0x4200000000000000000000000000000000000006",
          "topics": [
            "0xddf252ad1be2c89b69c2b068fc378daa952ba7f163c4a11628f55a4df523b3ef",
            "0x000000000000000000000000ef00a3f980971c2b962b987e81c382d9b255a3a3",
            "0x000000000000000000000000d336fb4dbfcb2a1dc06b1c7297a7b8bd4059eead"
          ],
          "data": "0x00000000000000000000000000000000000000000000000000035730646cf0c4",
          "blockHash": "0xe40a537d5f43a50d3d24dfc2896a1cf5591ab330e77edb9b81ab9f0de648e8ca",
          "blockNumber": "0x12c101d",
          "transactionHash": "0x6a168fd088d095245486e12b535d693a861038d49953fe119a45433643d7710c",
          "transactionIndex": "0x9",
          "logIndex": "0x28",
          "removed": false
        },
        {
          "address": "0x76d8de471f54aaa87784119c60df1bbfc852c415",
          "topics": [
            "0xddf252ad1be2c89b69c2b068fc378daa952ba7f163c4a11628f55a4df523b3ef",
            "0x0000000000000000000000009c69e0b64a63aa7daa0b5dc61df3cc77ea05bcb3",
            "0x000000000000000000000000d336fb4dbfcb2a1dc06b1c7297a7b8bd4059eead"
          ],
          "data": "0x0000000000000000000000000000000000000000000000000002c6a2d199170b",
          "blockHash": "0xe40a537d5f43a50d3d24dfc2896a1cf5591ab330e77edb9b81ab9f0de648e8ca",
          "blockNumber": "0x12c101d",
          "transactionHash": "0x6a168fd088d095245486e12b535d693a861038d49953fe119a45433643d7710c",
          "transactionIndex": "0x9",
          "logIndex": "0x29",
          "removed": false
        },
        {
          "address": "0x4200000000000000000000000000000000000006",
          "topics": [
            "0xddf252ad1be2c89b69c2b068fc378daa952ba7f163c4a11628f55a4df523b3ef",
            "0x000000000000000000000000d336fb4dbfcb2a1dc06b1c7297a7b8bd4059eead",
            "0x0000000000000000000000009c69e0b64a63aa7daa0b5dc61df3cc77ea05bcb3"
          ],
          "data": "0x00000000000000000000000000000000000000000000000000035730646cf0c4",
          "blockHash": "0xe40a537d5f43a50d3d24dfc2896a1cf5591ab330e77edb9b81ab9f0de648e8ca",
          "blockNumber": "0x12c101d",
          "transactionHash": "0x6a168fd088d095245486e12b535d693a861038d49953fe119a45433643d7710c",
          "transactionIndex": "0x9",
          "logIndex": "0x2a",
          "removed": false
        },
        {
          "address": "0x9c69e0b64a63aa7daa0b5dc61df3cc77ea05bcb3",
          "topics": [
            "0xc42079f94a6350d7e6235f29174924f928cc2ac818eb64fed8004e115fbcca67",
            "0x000000000000000000000000d336fb4dbfcb2a1dc06b1c7297a7b8bd4059eead",
            "0x000000000000000000000000d336fb4dbfcb2a1dc06b1c7297a7b8bd4059eead"
          ],
          "data": "0x00000000000000000000000000000000000000000000000000035730646cf0c4fffffffffffffffffffffffffffffffffffffffffffffffffffd395d2e66e8f50000000000000000000000000000000000000000e962f92296d9209acc21bd7900000000000000000000000000000000000000000000ff167ec91406efd1a350fffffffffffffffffffffffffffffffffffffffffffffffffffffffffffff8c6",
          "blockHash": "0xe40a537d5f43a50d3d24dfc2896a1cf5591ab330e77edb9b81ab9f0de648e8ca",
          "blockNumber": "0x12c101d",
          "transactionHash": "0x6a168fd088d095245486e12b535d693a861038d49953fe119a45433643d7710c",
          "transactionIndex": "0x9",
          "logIndex": "0x2b",
          "removed": false
        },
        {
          "address": "0x76d8de471f54aaa87784119c60df1bbfc852c415",
          "topics": [
            "0xddf252ad1be2c89b69c2b068fc378daa952ba7f163c4a11628f55a4df523b3ef",
            "0x000000000000000000000000d336fb4dbfcb2a1dc06b1c7297a7b8bd4059eead",
            "0x000000000000000000000000ef00a3f980971c2b962b987e81c382d9b255a3a3"
          ],
          "data": "0x0000000000000000000000000000000000000000000000000002c6a2d199170b",
          "blockHash": "0xe40a537d5f43a50d3d24dfc2896a1cf5591ab330e77edb9b81ab9f0de648e8ca",
          "blockNumber": "0x12c101d",
          "transactionHash": "0x6a168fd088d095245486e12b535d693a861038d49953fe119a45433643d7710c",
          "transactionIndex": "0x9",
          "logIndex": "0x2c",
          "removed": false
        },
        {
          "address": "0xd336fb4dbfcb2a1dc06b1c7297a7b8bd4059eead",
          "topics": [
            "0x4f73e5828387c436ef01a51b03853873e76d7a5551556837d452cbeb6f285cb5"
          ],
          "data": "0x00000000000000000000000000000000000000000000000000035730646cf0c40000000000000000000000000000000000000000000000000002c6a2d199170b",
          "blockHash": "0xe40a537d5f43a50d3d24dfc2896a1cf5591ab330e77edb9b81ab9f0de648e8ca",
          "blockNumber": "0x12c101d",
          "transactionHash": "0x6a168fd088d095245486e12b535d693a861038d49953fe119a45433643d7710c",
          "transactionIndex": "0x9",
          "logIndex": "0x2d",
          "removed": false
        },
        {
          "address": "0x76d8de471f54aaa87784119c60df1bbfc852c415",
          "topics": [
            "0x8c5be1e5ebec7d5bd14f71427d1e84f3dd0314c0f7b2291e5b200ac8c7c3b925",
            "0x000000000000000000000000ef00a3f980971c2b962b987e81c382d9b255a3a3",
            "0x000000000000000000000000ee10ae12bbd1498a874774c89a377d97f3c0e27b"
          ],
          "data": "0x0000000000000000000000000000000000000000000000000002c6a2d199170b",
          "blockHash": "0xe40a537d5f43a50d3d24dfc2896a1cf5591ab330e77edb9b81ab9f0de648e8ca",
          "blockNumber": "0x12c101d",
          "transactionHash": "0x6a168fd088d095245486e12b535d693a861038d49953fe119a45433643d7710c",
          "transactionIndex": "0x9",
          "logIndex": "0x2e",
          "removed": false
        },
        {
          "address": "0x76d8de471f54aaa87784119c60df1bbfc852c415",
          "topics": [
            "0x8c5be1e5ebec7d5bd14f71427d1e84f3dd0314c0f7b2291e5b200ac8c7c3b925",
            "0x000000000000000000000000ef00a3f980971c2b962b987e81c382d9b255a3a3",
            "0x000000000000000000000000ee10ae12bbd1498a874774c89a377d97f3c0e27b"
          ],
          "data": "0x0000000000000000000000000000000000000000000000000000000000000000",
          "blockHash": "0xe40a537d5f43a50d3d24dfc2896a1cf5591ab330e77edb9b81ab9f0de648e8ca",
          "blockNumber": "0x12c101d",
          "transactionHash": "0x6a168fd088d095245486e12b535d693a861038d49953fe119a45433643d7710c",
          "transactionIndex": "0x9",
          "logIndex": "0x2f",
          "removed": false
        },
        {
          "address": "0x76d8de471f54aaa87784119c60df1bbfc852c415",
          "topics": [
            "0xddf252ad1be2c89b69c2b068fc378daa952ba7f163c4a11628f55a4df523b3ef",
            "0x000000000000000000000000ef00a3f980971c2b962b987e81c382d9b255a3a3",
            "0x000000000000000000000000ee10ae12bbd1498a874774c89a377d97f3c0e27b"
          ],
          "data": "0x0000000000000000000000000000000000000000000000000002c6a2d199170b",
          "blockHash": "0xe40a537d5f43a50d3d24dfc2896a1cf5591ab330e77edb9b81ab9f0de648e8ca",
          "blockNumber": "0x12c101d",
          "transactionHash": "0x6a168fd088d095245486e12b535d693a861038d49953fe119a45433643d7710c",
          "transactionIndex": "0x9",
          "logIndex": "0x30",
          "removed": false
        },
        {
          "address": "0x76d8de471f54aaa87784119c60df1bbfc852c415",
          "topics": [
            "0x8c5be1e5ebec7d5bd14f71427d1e84f3dd0314c0f7b2291e5b200ac8c7c3b925",
            "0x000000000000000000000000ee10ae12bbd1498a874774c89a377d97f3c0e27b",
            "0x00000000000000000000000000cd58deebd7a2f1c55daec715faf8aed5b27bf8"
          ],
          "data": "0x0000000000000000000000000000000000000000000000000002c6a2d199170b",
          "blockHash": "0xe40a537d5f43a50d3d24dfc2896a1cf5591ab330e77edb9b81ab9f0de648e8ca",
          "blockNumber": "0x12c101d",
          "transactionHash": "0x6a168fd088d095245486e12b535d693a861038d49953fe119a45433643d7710c",
          "transactionIndex": "0x9",
          "logIndex": "0x31",
          "removed": false
        },
        {
          "address": "0x00cd58deebd7a2f1c55daec715faf8aed5b27bf8",
          "topics": [
            "0xa3b9472a1399e17e123f3c2e6586c23e504184d504de59cdaa2b375e880c6184",
            "0xaf10335b50689207d1fd37afd98e87aa0eb209c9074d8655642636223cc5f3a0",
            "0x000000000000000000000000ee10ae12bbd1498a874774c89a377d97f3c0e27b",
            "0x000000000000000000000000ef00a3f980971c2b962b987e81c382d9b255a3a3"
          ],
          "data": "0x0000000000000000000000000000000000000000000000000002c6a2d199170b",
          "blockHash": "0xe40a537d5f43a50d3d24dfc2896a1cf5591ab330e77edb9b81ab9f0de648e8ca",
          "blockNumber": "0x12c101d",
          "transactionHash": "0x6a168fd088d095245486e12b535d693a861038d49953fe119a45433643d7710c",
          "transactionIndex": "0x9",
          "logIndex": "0x32",
          "removed": false
        },
        {
          "address": "0x76d8de471f54aaa87784119c60df1bbfc852c415",
          "topics": [
            "0x8c5be1e5ebec7d5bd14f71427d1e84f3dd0314c0f7b2291e5b200ac8c7c3b925",
            "0x000000000000000000000000ee10ae12bbd1498a874774c89a377d97f3c0e27b",
            "0x00000000000000000000000000cd58deebd7a2f1c55daec715faf8aed5b27bf8"
          ],
          "data": "0x0000000000000000000000000000000000000000000000000000000000000000",
          "blockHash": "0xe40a537d5f43a50d3d24dfc2896a1cf5591ab330e77edb9b81ab9f0de648e8ca",
          "blockNumber": "0x12c101d",
          "transactionHash": "0x6a168fd088d095245486e12b535d693a861038d49953fe119a45433643d7710c",
          "transactionIndex": "0x9",
          "logIndex": "0x33",
          "removed": false
        },
        {
          "address": "0x76d8de471f54aaa87784119c60df1bbfc852c415",
          "topics": [
            "0xddf252ad1be2c89b69c2b068fc378daa952ba7f163c4a11628f55a4df523b3ef",
            "0x000000000000000000000000ee10ae12bbd1498a874774c89a377d97f3c0e27b",
            "0x00000000000000000000000000cd58deebd7a2f1c55daec715faf8aed5b27bf8"
          ],
          "data": "0x0000000000000000000000000000000000000000000000000002c6a2d199170b",
          "blockHash": "0xe40a537d5f43a50d3d24dfc2896a1cf5591ab330e77edb9b81ab9f0de648e8ca",
          "blockNumber": "0x12c101d",
          "transactionHash": "0x6a168fd088d095245486e12b535d693a861038d49953fe119a45433643d7710c",
          "transactionIndex": "0x9",
          "logIndex": "0x34",
          "removed": false
        },
        {
          "address": "0xee10ae12bbd1498a874774c89a377d97f3c0e27b",
          "topics": [
            "0xc746ea777b1da0310da2ae713c73990a15d4b72d2e723fcb283b8b9e81f79d80"
          ],
          "data": "0x0000000000000000000000000000000000000000000000000002c6a2d199170b000000000000000000000000ef00a3f980971c2b962b987e81c382d9b255a3a3",
          "blockHash": "0xe40a537d5f43a50d3d24dfc2896a1cf5591ab330e77edb9b81ab9f0de648e8ca",
          "blockNumber": "0x12c101d",
          "transactionHash": "0x6a168fd088d095245486e12b535d693a861038d49953fe119a45433643d7710c",
          "transactionIndex": "0x9",
          "logIndex": "0x35",
          "removed": false
        },
        {
          "address": "0x00cd58deebd7a2f1c55daec715faf8aed5b27bf8",
          "topics": [
            "0x570954540bed6b1304a87dfe815a5eda4a648f7097a16240dcd85c9b5fd42a43",
            "0xaf10335b50689207d1fd37afd98e87aa0eb209c9074d8655642636223cc5f3a0",
            "0x000000000000000000000000ef00a3f980971c2b962b987e81c382d9b255a3a3",
            "0x000000000000000000000000ee10ae12bbd1498a874774c89a377d97f3c0e27b"
          ],
          "data": "0x000000000000000000000000ee10ae12bbd1498a874774c89a377d97f3c0e27b0000000000000000000000000000000000000000000000000002d6e92229664100000000000000000000000000000000000000000000002b4550c320d81e87db",
          "blockHash": "0xe40a537d5f43a50d3d24dfc2896a1cf5591ab330e77edb9b81ab9f0de648e8ca",
          "blockNumber": "0x12c101d",
          "transactionHash": "0x6a168fd088d095245486e12b535d693a861038d49953fe119a45433643d7710c",
          "transactionIndex": "0x9",
          "logIndex": "0x36",
          "removed": false
        },
        {
          "address": "0x4200000000000000000000000000000000000006",
          "topics": [
            "0xddf252ad1be2c89b69c2b068fc378daa952ba7f163c4a11628f55a4df523b3ef",
            "0x00000000000000000000000000cd58deebd7a2f1c55daec715faf8aed5b27bf8",
            "0x000000000000000000000000ee10ae12bbd1498a874774c89a377d97f3c0e27b"
          ],
          "data": "0x0000000000000000000000000000000000000000000000000002d6e922296641",
          "blockHash": "0xe40a537d5f43a50d3d24dfc2896a1cf5591ab330e77edb9b81ab9f0de648e8ca",
          "blockNumber": "0x12c101d",
          "transactionHash": "0x6a168fd088d095245486e12b535d693a861038d49953fe119a45433643d7710c",
          "transactionIndex": "0x9",
          "logIndex": "0x37",
          "removed": false
        },
        {
          "address": "0x4200000000000000000000000000000000000006",
          "topics": [
            "0x7fcf532c15f0a6db0bd6d0e038bea71d30d808c7d98cb3bf7268a95bf5081b65",
            "0x000000000000000000000000ee10ae12bbd1498a874774c89a377d97f3c0e27b"
          ],
          "data": "0x0000000000000000000000000000000000000000000000000002d6e922296641",
          "blockHash": "0xe40a537d5f43a50d3d24dfc2896a1cf5591ab330e77edb9b81ab9f0de648e8ca",
          "blockNumber": "0x12c101d",
          "transactionHash": "0x6a168fd088d095245486e12b535d693a861038d49953fe119a45433643d7710c",
          "transactionIndex": "0x9",
          "logIndex": "0x38",
          "removed": false
        },
        {
          "address": "0xee10ae12bbd1498a874774c89a377d97f3c0e27b",
          "topics": [
            "0x6e02acee5001c9c48e033cce6e7193e2717a4dc1d239424dcf41e995471f6385"
          ],
          "data": "0x0000000000000000000000000000000000000000000000000002d6e922296641000000000000000000000000afa9cf6c504ca060b31626879635c049e2de9e1c",
          "blockHash": "0xe40a537d5f43a50d3d24dfc2896a1cf5591ab330e77edb9b81ab9f0de648e8ca",
          "blockNumber": "0x12c101d",
          "transactionHash": "0x6a168fd088d095245486e12b535d693a861038d49953fe119a45433643d7710c",
          "transactionIndex": "0x9",
          "logIndex": "0x39",
          "removed": false
        },
        {
          "address": "0xef00a3f980971c2b962b987e81c382d9b255a3a3",
          "topics": [
            "0xbba88c1e49240c20a1d39cb8fde6b32c6731a6e105afe2e83b197721eb804ab0",
            "0x0000000000000000000000000000000000000000000000000000000000000000",
            "0x205f62332c85805d8f52264c33513a1e63909f308677fc7a5ee8c166de9aa4f5",
            "0x000000000000000000000000afa9cf6c504ca060b31626879635c049e2de9e1c"
          ],
          "data": "0x0000000000000000000000000000000000000000000000000002d6e922296641",
          "blockHash": "0xe40a537d5f43a50d3d24dfc2896a1cf5591ab330e77edb9b81ab9f0de648e8ca",
          "blockNumber": "0x12c101d",
          "transactionHash": "0x6a168fd088d095245486e12b535d693a861038d49953fe119a45433643d7710c",
          "transactionIndex": "0x9",
          "logIndex": "0x3a",
          "removed": false
        }
      ],
      "logsBloom": "0x00000080000000400002000000100820020002004000104000040000080018080000400000000000000000100000000000000000000028000000040020a04000000000400000400800400808000000800400011000400000000000080000220000000000120002000004804000080904008000000000040010100010000a00009108008000000000002000000000000000000100002020020020000800040402020000200020001000000100080000020000100024000000000000000000100000020046400000000010000000000000080000400000008400000022008020004010044000000008000000000801221000100000000000000000000081080000",
      "type": "0x2",
      "transactionHash": "0x6a168fd088d095245486e12b535d693a861038d49953fe119a45433643d7710c",
      "transactionIndex": "0x9",
      "blockHash": "0xe40a537d5f43a50d3d24dfc2896a1cf5591ab330e77edb9b81ab9f0de648e8ca",
      "blockNumber": "0x12c101d",
      "gasUsed": "0xc8b89",
      "effectiveGasPrice": "0xf4637",
      "from": "0xafa9cf6c504ca060b31626879635c049e2de9e1c",
      "to": "0xef00a3f980971c2b962b987e81c382d9b255a3a3",
      "contractAddress": null,
      "l1BaseFeeScalar": "0x90f6",
      "l1BlobBaseFee": "0x1",
      "l1BlobBaseFeeScalar": "0x125749",
      "l1Fee": "0x1b70d94d40",
      "l1GasPrice": "0x764fae22",
      "l1GasUsed": "0x640"
    }
  ],
  "libraries": [],
  "pending": [],
  "returns": {},
  "timestamp": 1754058642,
  "chain": 1135,
  "commit": "4809a7c"
}