{
  "transactions": [
    {
      "hash": "0x457ce15387bbf77d2f56a1a65ffdd71ad141778f540bbfca5b0d860a5a3f0b76",
      "transactionType": "CALL",
      "contractName": null,
      "contractAddress": "0x95e4c63ee7e82b94d75ddbf858f0d2d0600fccdd",
      "function": "createCircle(string,address[])",
      "arguments": [
        "TESTFIX",
        "[0xAFA9CF6c504Ca060B31626879635c049E2De9E1c]"
      ],
      "transaction": {
        "from": "0xafa9cf6c504ca060b31626879635c049e2de9e1c",
        "to": "0x95e4c63ee7e82b94d75ddbf858f0d2d0600fccdd",
        "gas": "0xa0cc5",
        "value": "0x0",
        "input": "0xd1d4f3da00000000000000000000000000000000000000000000000000000000000000400000000000000000000000000000000000000000000000000000000000000080000000000000000000000000000000000000000000000000000000000000000754455354464958000000000000000000000000000000000000000000000000000000000000000000000000000000000000000000000000000000000000000001000000000000000000000000afa9cf6c504ca060b31626879635c049e2de9e1c",
        "nonce": "0x157",
        "chainId": "0x46f"
      },
      "additionalContracts": [
        {
          "transactionType": "CREATE2",
          "address": "0x0fcdc348635b161764a193f687705f96fbd5291f",
          "initCode": "0x3d602d80600a3d3981f3363d3d373d3d3d363d73763004ae80080c36ec99ec5f2dc3f2c260638a835af43d82803e903d91602b57fd5bf3"
        }
      ],
      "isFixedGasLimit": false
    },
    {
      "hash": "0x846de92b54182d169007d182ae91c5d8ea7f8b29dbd2a9b25eeb5a0639a69439",
      "transactionType": "CALL",
      "contractName": null,
      "contractAddress": "0xafa9cf6c504ca060b31626879635c049e2de9e1c",
      "function": null,
      "arguments": null,
      "transaction": {
        "from": "0xafa9cf6c504ca060b31626879635c049e2de9e1c",
        "to": "0xafa9cf6c504ca060b31626879635c049e2de9e1c",
        "gas": "0x714d",
        "value": "0x9184e72a000",
        "input": "0x",
        "nonce": "0x158",
        "chainId": "0x46f"
      },
      "additionalContracts": [],
      "isFixedGasLimit": false
    }
  ],
  "receipts": [
    {
      "status": "0x1",
      "cumulativeGasUsed": "0x81bb4",
      "logs": [
        {
          "address": "0xf452b3024d7b4754a1f6892c3f3cf7a25980efe7",
          "topics": [
            "0xb251eb052afc73ffd02ffe85ad79990a8b3fed60d76dbc2fa2fdd7123dffd914",
            "0x000000000000000000000000afa9cf6c504ca060b31626879635c049e2de9e1c"
          ],
          "data": "0x",
          "blockHash": "0x76cb1e16b2b64dcd3c839075a5e227156ec14ff4566986d2929a2f32254df932",
          "blockNumber": "0x12c1b9f",
          "transactionHash": "0x457ce15387bbf77d2f56a1a65ffdd71ad141778f540bbfca5b0d860a5a3f0b76",
          "transactionIndex": "0x1",
          "logIndex": "0x0",
          "removed": false
        },
        {
          "address": "0xf452b3024d7b4754a1f6892c3f3cf7a25980efe7",
          "topics": [
            "0xc7f505b2f371ae2175ee4913f4499e1f2633a7b5936321eed1cdaeb6115181d2"
          ],
          "data": "0x0000000000000000000000000000000000000000000000000000000000000001",
          "blockHash": "0x76cb1e16b2b64dcd3c839075a5e227156ec14ff4566986d2929a2f32254df932",
          "blockNumber": "0x12c1b9f",
          "transactionHash": "0x457ce15387bbf77d2f56a1a65ffdd71ad141778f540bbfca5b0d860a5a3f0b76",
          "transactionIndex": "0x1",
          "logIndex": "0x1",
          "removed": false
        },
        {
          "address": "0xf4b3da4676064d1a98de8e3759b9d0a1231835bc",
          "topics": [
            "0x82ca5d1c3e8b70d734650837732d4db8ca0877240d905a367d27cba08be3b87a",
            "0x000000000000000000000000f452b3024d7b4754a1f6892c3f3cf7a25980efe7",
            "0x00000000000000000000000095e4c63ee7e82b94d75ddbf858f0d2d0600fccdd"
          ],
          "data": "0x000000000000000000000000000000000000000000000000000000000000002000000000000000000000000000000000000000000000000000000000000000075445535446495800000000000000000000000000000000000000000000000000",
          "blockHash": "0x76cb1e16b2b64dcd3c839075a5e227156ec14ff4566986d2929a2f32254df932",
          "blockNumber": "0x12c1b9f",
          "transactionHash": "0x457ce15387bbf77d2f56a1a65ffdd71ad141778f540bbfca5b0d860a5a3f0b76",
          "transactionIndex": "0x1",
          "logIndex": "0x2",
          "removed": false
        },
        {
          "address": "0x95e4c63ee7e82b94d75ddbf858f0d2d0600fccdd",
          "topics": [
            "0x15e639cb5334ee5b47e49005d0ff7b1c2f39098dd2da49668b9085d0659757cc",
            "0x000000000000000000000000f452b3024d7b4754a1f6892c3f3cf7a25980efe7",
            "0x000000000000000000000000afa9cf6c504ca060b31626879635c049e2de9e1c"
          ],
          "data": "0x000000000000000000000000000000000000000000000000000000000000002000000000000000000000000000000000000000000000000000000000000000075445535446495800000000000000000000000000000000000000000000000000",
          "blockHash": "0x76cb1e16b2b64dcd3c839075a5e227156ec14ff4566986d2929a2f32254df932",
          "blockNumber": "0x12c1b9f",
          "transactionHash": "0x457ce15387bbf77d2f56a1a65ffdd71ad141778f540bbfca5b0d860a5a3f0b76",
          "transactionIndex": "0x1",
          "logIndex": "0x3",
          "removed": false
        }
      ],
      "logsBloom": "0x0000040000000000000000000000000000000000000020000000000000000000000000000000000000000000000400000800000000000000000000400000000000000000000000000000000400000004000000000000000000000000010000000000000000000000000000000000000000020c0000000000000000000800000000000800000800000008002000000200000000000000800000000000000000000000002000a000000000010000004000000000002008000000000000000000000000000000000000000000000000000000000000a004000000000000000000000008000000000000000000000000000000000000000000100000000000000000",
      "type": "0x2",
      "transactionHash": "0x457ce15387bbf77d2f56a1a65ffdd71ad141778f540bbfca5b0d860a5a3f0b76",
      "transactionIndex": "0x1",
      "blockHash": "0x76cb1e16b2b64dcd3c839075a5e227156ec14ff4566986d2929a2f32254df932",
      "blockNumber": "0x12c1b9f",
      "gasUsed": "0x746a4",
      "effectiveGasPrice": "0xf463a",
      "from": "0xafa9cf6c504ca060b31626879635c049e2de9e1c",
      "to": "0x95e4c63ee7e82b94d75ddbf858f0d2d0600fccdd",
      "contractAddress": null,
      "l1BaseFeeScalar": "0x90f6",
      "l1BlobBaseFee": "0x1",
      "l1BlobBaseFeeScalar": "0x125749",
      "l1Fee": "0xc3bf94be1",
      "l1GasPrice": "0x30d911f1",
      "l1GasUsed": "0x6bf"
    },
    {
      "status": "0x1",
      "cumulativeGasUsed": "0x86dbc",
      "logs": [],
      "logsBloom": "0x00000000000000000000000000000000000000000000000000000000000000000000000000000000000000000000000000000000000000000000000000000000000000000000000000000000000000000000000000000000000000000000000000000000000000000000000000000000000000000000000000000000000000000000000000000000000000000000000000000000000000000000000000000000000000000000000000000000000000000000000000000000000000000000000000000000000000000000000000000000000000000000000000000000000000000000000000000000000000000000000000000000000000000000000000000000",
      "type": "0x2",
      "transactionHash": "0x846de92b54182d169007d182ae91c5d8ea7f8b29dbd2a9b25eeb5a0639a69439",
      "transactionIndex": "0x2",
      "blockHash": "0x76cb1e16b2b64dcd3c839075a5e227156ec14ff4566986d2929a2f32254df932",
      "blockNumber": "0x12c1b9f",
      "gasUsed": "0x5208",
      "effectiveGasPrice": "0xf463a",
      "from": "0xafa9cf6c504ca060b31626879635c049e2de9e1c",
      "to": "0xafa9cf6c504ca060b31626879635c049e2de9e1c",
      "contractAddress": null,
      "l1BaseFeeScalar": "0x90f6",
      "l1BlobBaseFee": "0x1",
      "l1BlobBaseFeeScalar": "0x125749",
      "l1Fee": "0xb54650b09",
      "l1GasPrice": "0x30d911f1",
      "l1GasUsed": "0x640"
    }
  ],
  "libraries": [],
  "pending": [],
  "returns": {},
  "timestamp": 1754064534,
  "chain": 1135,
  "commit": "4809a7c"
}