{
  "transactions": [
    {
      "hash": "0x352f39003b8498c6a249ca19a907df88de20ad64b34c8b63f4c0a2583379e06e",
      "transactionType": "CALL",
      "contractName": null,
      "contractAddress": "0xd6967bd8ed4d4dab28b3b3f67d2c1b66633f9e09",
      "function": "createCircle(string,address[])",
      "arguments": [
        "FinalTest",
        "[0xAFA9CF6c504Ca060B31626879635c049E2De9E1c]"
      ],
      "transaction": {
        "from": "0xafa9cf6c504ca060b31626879635c049e2de9e1c",
        "to": "0xd6967bd8ed4d4dab28b3b3f67d2c1b66633f9e09",
        "gas": "0xa1be8",
        "value": "0x0",
        "input": "0xd1d4f3da00000000000000000000000000000000000000000000000000000000000000400000000000000000000000000000000000000000000000000000000000000080000000000000000000000000000000000000000000000000000000000000000946696e616c5465737400000000000000000000000000000000000000000000000000000000000000000000000000000000000000000000000000000000000001000000000000000000000000afa9cf6c504ca060b31626879635c049e2de9e1c",
        "nonce": "0xfe",
        "chainId": "0x46f"
      },
      "additionalContracts": [
        {
          "transactionType": "CREATE2",
          "address": "0xf8abfe91f9527ce99e9aaf18d1d9d8a50c36dce9",
          "initCode": "0x3d602d80600a3d3981f3363d3d373d3d3d363d73ccddb5f678c2794be86565bb955ddbfb388111f15af43d82803e903d91602b57fd5bf3"
        }
      ],
      "isFixedGasLimit": false
    }
  ],
  "receipts": [
    {
      "status": "0x1",
      "cumulativeGasUsed": "0xa21138",
      "logs": [
        {
          "address": "0x8585c2949ca69c0eaa28b8f80c2140b316e8e856",
          "topics": [
            "0xb251eb052afc73ffd02ffe85ad79990a8b3fed60d76dbc2fa2fdd7123dffd914",
            "0x000000000000000000000000afa9cf6c504ca060b31626879635c049e2de9e1c"
          ],
          "data": "0x",
          "blockHash": "0xae63fcd3d5b9a51c7b514aba092f6f7e6a2ed4cf91b134014b3f36a76ce3da65",
          "blockNumber": "0x12b8856",
          "transactionHash": "0x352f39003b8498c6a249ca19a907df88de20ad64b34c8b63f4c0a2583379e06e",
          "transactionIndex": "0xd",
          "logIndex": "0x1a",
          "removed": false
        },
        {
          "address": "0xf4b3da4676064d1a98de8e3759b9d0a1231835bc",
          "topics": [
            "0x82ca5d1c3e8b70d734650837732d4db8ca0877240d905a367d27cba08be3b87a",
            "0x0000000000000000000000008585c2949ca69c0eaa28b8f80c2140b316e8e856",
            "0x000000000000000000000000d6967bd8ed4d4dab28b3b3f67d2c1b66633f9e09"
          ],
          "data": "0x0000000000000000000000000000000000000000000000000000000000000020000000000000000000000000000000000000000000000000000000000000000946696e616c546573740000000000000000000000000000000000000000000000",
          "blockHash": "0xae63fcd3d5b9a51c7b514aba092f6f7e6a2ed4cf91b134014b3f36a76ce3da65",
          "blockNumber": "0x12b8856",
          "transactionHash": "0x352f39003b8498c6a249ca19a907df88de20ad64b34c8b63f4c0a2583379e06e",
          "transactionIndex": "0xd",
          "logIndex": "0x1b",
          "removed": false
        },
        {
          "address": "0xd6967bd8ed4d4dab28b3b3f67d2c1b66633f9e09",
          "topics": [
            "0x15e639cb5334ee5b47e49005d0ff7b1c2f39098dd2da49668b9085d0659757cc",
            "0x0000000000000000000000008585c2949ca69c0eaa28b8f80c2140b316e8e856",
            "0x000000000000000000000000afa9cf6c504ca060b31626879635c049e2de9e1c"
          ],
          "data": "0x0000000000000000000000000000000000000000000000000000000000000020000000000000000000000000000000000000000000000000000000000000000946696e616c546573740000000000000000000000000000000000000000000000",
          "blockHash": "0xae63fcd3d5b9a51c7b514aba092f6f7e6a2ed4cf91b134014b3f36a76ce3da65",
          "blockNumber": "0x12b8856",
          "transactionHash": "0x352f39003b8498c6a249ca19a907df88de20ad64b34c8b63f4c0a2583379e06e",
          "transactionIndex": "0xd",
          "logIndex": "0x1c",
          "removed": false
        }
      ],
      "logsBloom": "0x00000400000000000000008000000000000000000000000000000000000010000000000000000000000000000000000008000000000020000000000000000000000200000000000000000004000000040000000000000000000000000000200000000000000000000000000000000000000004000000000000080000080000000000880000080000000000000000000000000000000000000000000010000000000000200080000000000100000000000000000020080000000000000000000000010000000000000000000000000000000000009000000000400000000000000000000000000000000000000000000000000000000000100000000000000000",
      "type": "0x2",
      "transactionHash": "0x352f39003b8498c6a249ca19a907df88de20ad64b34c8b63f4c0a2583379e06e",
      "transactionIndex": "0xd",
      "blockHash": "0xae63fcd3d5b9a51c7b514aba092f6f7e6a2ed4cf91b134014b3f36a76ce3da65",
      "blockNumber": "0x12b8856",
      "gasUsed": "0x6e983",
      "effectiveGasPrice": "0x3bca",
      "from": "0xafa9cf6c504ca060b31626879635c049e2de9e1c",
      "to": "0xd6967bd8ed4d4dab28b3b3f67d2c1b66633f9e09",
      "contractAddress": null,
      "l1BaseFeeScalar": "0x90f6",
      "l1BlobBaseFee": "0x1",
      "l1BlobBaseFeeScalar": "0x125749",
      "l1Fee": "0xba0916c1a",
      "l1GasPrice": "0x2ec95cb4",
      "l1GasUsed": "0x6b2"
    }
  ],
  "libraries": [],
  "pending": [],
  "returns": {},
  "timestamp": 1753989124,
  "chain": 1135,
  "commit": "4809a7c"
}