{
  "transactions": [
    {
      "hash": "0x989a46a95006218ae7d5d1b100786b4b82784d3d2e4bbe028e42b421af946eaa",
      "transactionType": "CREATE",
      "contractName": "SwapModuleIndustryStandardV2",
      "contractAddress": "0x1e394c5740f3b04b4a930ec843a43d1d49ddbd2a",
      "function": null,
      "arguments": null,
      "transaction": {
        "from": "0xafa9cf6c504ca060b31626879635c049e2de9e1c",
        "gas": "0xbc318",
        "value": "0x0",
        "input": "0x60e060405234801561000f575f80fd5b507342000000000000000000000000000000000000066080527376d8de471f54aaa87784119c60df1bbfc852c41560a052739c69e0b64a63aa7daa0b5dc61df3cc77ea05bcb360c052600180546001600160a01b0319163317905560805160a05160c05161095e6100bc5f395f8181608e015261041501525f818161010e0152818161034e01528181610499015261057101525f818160d20152818161028701526106f5015261095e5ff3fe608060405234801561000f575f80fd5b5060043610610085575f3560e01c8063536fff6c11610058578063536fff6c146101305780638da5cb5b14610162578063eb84d05a14610175578063fa461e3314610196575f80fd5b806316f0115b146100895780633fc8cef3146100cd5780634a81067d146100f45780634aa07e6414610109575b5f80fd5b6100b07f000000000000000000000000000000000000000000000000000000000000000081565b6040516001600160a01b0390911681526020015b60405180910390f35b6100b07f000000000000000000000000000000000000000000000000000000000000000081565b6101076101023660046107bf565b6101a9565b005b6100b07f000000000000000000000000000000000000000000000000000000000000000081565b61015261013e3660046107bf565b5f6020819052908152604090205460ff1681565b60405190151581526020016100c4565b6001546100b0906001600160a01b031681565b6101886101833660046107ec565b610218565b6040519081526020016100c4565b6101076101a4366004610803565b610662565b6001546001600160a01b031633146101f55760405162461bcd60e51b815260206004820152600a60248201526927b7363c9037bbb732b960b11b60448201526064015b60405180910390fd5b6001600160a01b03165f908152602081905260409020805460ff19166001179055565b335f9081526020819052604081205460ff166102655760405162461bcd60e51b815260206004820152600c60248201526b155b985d5d1a1bdc9a5e995960a21b60448201526064016101ec565b6040516323b872dd60e01b8152336004820152306024820152604481018390527f00000000000000000000000000000000000000000000000000000000000000006001600160a01b0316906323b872dd906064016020604051808303815f875af11580156102d5573d5f803e3d5ffd5b505050506040513d601f19601f820116820180604052508101906102f9919061087c565b6103375760405162461bcd60e51b815260206004820152600f60248201526e151c985b9cd9995c8819985a5b1959608a1b60448201526064016101ec565b6040516370a0823160e01b81523060048201525f907f00000000000000000000000000000000000000000000000000000000000000006001600160a01b0316906370a0823190602401602060405180830381865afa15801561039b573d5f803e3d5ffd5b505050506040513d601f19601f820116820180604052508101906103bf919061089b565b90505f6103d26401000276a360016108c6565b604051630251596160e31b815230600482015260016024820152604481018690526001600160a01b03808316606483015260a060848301525f60a48301529192507f00000000000000000000000000000000000000000000000000000000000000009091169063128acb089060c40160408051808303815f875af115801561045c573d5f803e3d5ffd5b505050506040513d601f19601f8201168201806040525081019061048091906108ed565b50506040516370a0823160e01b81523060048201525f907f00000000000000000000000000000000000000000000000000000000000000006001600160a01b0316906370a0823190602401602060405180830381865afa1580156104e6573d5f803e3d5ffd5b505050506040513d601f19601f8201168201806040525081019061050a919061089b565b9050610516838261090f565b93505f84116105555760405162461bcd60e51b815260206004820152600b60248201526a14ddd85c0819985a5b195960aa1b60448201526064016101ec565b60405163a9059cbb60e01b8152336004820152602481018590527f00000000000000000000000000000000000000000000000000000000000000006001600160a01b03169063a9059cbb906044016020604051808303815f875af11580156105bf573d5f803e3d5ffd5b505050506040513d601f19601f820116820180604052508101906105e3919061087c565b6106215760405162461bcd60e51b815260206004820152600f60248201526e151c985b9cd9995c8819985a5b1959608a1b60448201526064016101ec565b60408051868152602081018690527f4f73e5828387c436ef01a51b03853873e76d7a5551556837d452cbeb6f285cb5910160405180910390a1505050919050565b33739c69e0b64a63aa7daa0b5dc61df3cc77ea05bcb3146106bd5760405162461bcd60e51b8152602060048201526015602482015274556e617574686f72697a65642063616c6c6261636b60581b60448201526064016101ec565b5f8413156107695760405163a9059cbb60e01b8152739c69e0b64a63aa7daa0b5dc61df3cc77ea05bcb36004820152602481018590527f00000000000000000000000000000000000000000000000000000000000000006001600160a01b03169063a9059cbb906044016020604051808303815f875af1158015610743573d5f803e3d5ffd5b505050506040513d601f19601f82011682018060405250810190610767919061087c565b505b5f8313156107b95760405162461bcd60e51b815260206004820152601760248201527f556e657870656374656420616d6f756e743144656c746100000000000000000060448201526064016101ec565b50505050565b5f602082840312156107cf575f80fd5b81356001600160a01b03811681146107e5575f80fd5b9392505050565b5f602082840312156107fc575f80fd5b5035919050565b5f805f8060608587031215610816575f80fd5b8435935060208501359250604085013567ffffffffffffffff8082111561083b575f80fd5b818701915087601f83011261084e575f80fd5b81358181111561085c575f80fd5b88602082850101111561086d575f80fd5b95989497505060200194505050565b5f6020828403121561088c575f80fd5b815180151581146107e5575f80fd5b5f602082840312156108ab575f80fd5b5051919050565b634e487b7160e01b5f52601160045260245ffd5b6001600160a01b038181168382160190808211156108e6576108e66108b2565b5092915050565b5f80604083850312156108fe575f80fd5b505080516020909101519092909150565b81810381811115610922576109226108b2565b9291505056fea2646970667358221220a2266c9b4871ec0fdd809bddbc76bbab4842ae67862124d73530d586f4443ff464736f6c63430008140033",
        "nonce": "0x179",
        "chainId": "0x46f"
      },
      "additionalContracts": [],
      "isFixedGasLimit": false
    },
    {
      "hash": "0x3d614b274cd19e9d8abd64918d2a3993a0655a94b2990e31777d60176e8395f6",
      "transactionType": "CALL",
      "contractName": "SwapModuleIndustryStandardV2",
      "contractAddress": "0x1e394c5740f3b04b4a930ec843a43d1d49ddbd2a",
      "function": "authorizeCircle(address)",
      "arguments": [
        "0xAFA9CF6c504Ca060B31626879635c049E2De9E1c"
      ],
      "transaction": {
        "from": "0xafa9cf6c504ca060b31626879635c049e2de9e1c",
        "to": "0x1e394c5740f3b04b4a930ec843a43d1d49ddbd2a",
        "gas": "0xf8af",
        "value": "0x0",
        "input": "0x4a81067d000000000000000000000000afa9cf6c504ca060b31626879635c049e2de9e1c",
        "nonce": "0x17a",
        "chainId": "0x46f"
      },
      "additionalContracts": [],
      "isFixedGasLimit": false
    },
    {
      "hash": "0x51dcb84af1c34896c70aa355b90fb4b4cd57d477a646154790a7dc15722a6322",
      "transactionType": "CALL",
      "contractName": null,
      "contractAddress": "0x4200000000000000000000000000000000000006",
      "function": "approve(address,uint256)",
      "arguments": [
        "0x1E394C5740f3b04b4a930EC843a43d1d49Ddbd2A",
        "10000000000000"
      ],
      "transaction": {
        "from": "0xafa9cf6c504ca060b31626879635c049e2de9e1c",
        "to": "0x4200000000000000000000000000000000000006",
        "gas": "0x106e6",
        "value": "0x0",
        "input": "0x095ea7b30000000000000000000000001e394c5740f3b04b4a930ec843a43d1d49ddbd2a000000000000000000000000000000000000000000000000000009184e72a000",
        "nonce": "0x17b",
        "chainId": "0x46f"
      },
      "additionalContracts": [],
      "isFixedGasLimit": false
    },
    {
      "hash": "0xb4c4686c264689b1b04f3a74aff94fef040459f6cf7a4fb0cc0695c8808c4c13",
      "transactionType": "CALL",
      "contractName": "SwapModuleIndustryStandardV2",
      "contractAddress": "0x1e394c5740f3b04b4a930ec843a43d1d49ddbd2a",
      "function": "swapWETHToWstETH(uint256)",
      "arguments": [
        "10000000000000"
      ],
      "transaction": {
        "from": "0xafa9cf6c504ca060b31626879635c049e2de9e1c",
        "to": "0x1e394c5740f3b04b4a930ec843a43d1d49ddbd2a",
        "gas": "0x3748c",
        "value": "0x0",
        "input": "0xeb84d05a000000000000000000000000000000000000000000000000000009184e72a000",
        "nonce": "0x17c",
        "chainId": "0x46f"
      },
      "additionalContracts": [],
      "isFixedGasLimit": false
    }
  ],
  "receipts": [
    {
      "status": "0x1",
      "cumulativeGasUsed": "0x9c086",
      "logs": [],
      "logsBloom": "0x00000000000000000000000000000000000000000000000000000000000000000000000000000000000000000000000000000000000000000000000000000000000000000000000000000000000000000000000000000000000000000000000000000000000000000000000000000000000000000000000000000000000000000000000000000000000000000000000000000000000000000000000000000000000000000000000000000000000000000000000000000000000000000000000000000000000000000000000000000000000000000000000000000000000000000000000000000000000000000000000000000000000000000000000000000000",
      "type": "0x2",
      "transactionHash": "0x989a46a95006218ae7d5d1b100786b4b82784d3d2e4bbe028e42b421af946eaa",
      "transactionIndex": "0x1",
      "blockHash": "0xbde2d1cf0b78b199b499e95fa0dcd80e15ab60c9d72258e26041cadbaa771a47",
      "blockNumber": "0x12d159d",
      "gasUsed": "0x90c3a",
      "effectiveGasPrice": "0xf4637",
      "from": "0xafa9cf6c504ca060b31626879635c049e2de9e1c",
      "to": null,
      "contractAddress": "0x1e394c5740f3b04b4a930ec843a43d1d49ddbd2a",
      "l1BaseFeeScalar": "0x90f6",
      "l1BlobBaseFee": "0x1",
      "l1BlobBaseFeeScalar": "0x125749",
      "l1Fee": "0x35907ec740",
      "l1GasPrice": "0x11f91c63",
      "l1GasUsed": "0x504f"
    },
    {
      "status": "0x1",
      "cumulativeGasUsed": "0xa7492",
      "logs": [],
      "logsBloom": "0x00000000000000000000000000000000000000000000000000000000000000000000000000000000000000000000000000000000000000000000000000000000000000000000000000000000000000000000000000000000000000000000000000000000000000000000000000000000000000000000000000000000000000000000000000000000000000000000000000000000000000000000000000000000000000000000000000000000000000000000000000000000000000000000000000000000000000000000000000000000000000000000000000000000000000000000000000000000000000000000000000000000000000000000000000000000",
      "type": "0x2",
      "transactionHash": "0x3d614b274cd19e9d8abd64918d2a3993a0655a94b2990e31777d60176e8395f6",
      "transactionIndex": "0x2",
      "blockHash": "0xbde2d1cf0b78b199b499e95fa0dcd80e15ab60c9d72258e26041cadbaa771a47",
      "blockNumber": "0x12d159d",
      "gasUsed": "0xb40c",
      "effectiveGasPrice": "0xf4637",
      "from": "0xafa9cf6c504ca060b31626879635c049e2de9e1c",
      "to": "0x1e394c5740f3b04b4a930ec843a43d1d49ddbd2a",
      "contractAddress": null,
      "l1BaseFeeScalar": "0x90f6",
      "l1BlobBaseFee": "0x1",
      "l1BlobBaseFeeScalar": "0x125749",
      "l1Fee": "0x42b2b8fd0",
      "l1GasPrice": "0x11f91c63",
      "l1GasUsed": "0x640"
    },
    {
      "status": "0x1",
      "cumulativeGasUsed": "0xb2855",
      "logs": [
        {
          "address": "0x4200000000000000000000000000000000000006",
          "topics": [
            "0x8c5be1e5ebec7d5bd14f71427d1e84f3dd0314c0f7b2291e5b200ac8c7c3b925",
            "0x000000000000000000000000afa9cf6c504ca060b31626879635c049e2de9e1c",
            "0x0000000000000000000000001e394c5740f3b04b4a930ec843a43d1d49ddbd2a"
          ],
          "data": "0x000000000000000000000000000000000000000000000000000009184e72a000",
          "blockHash": "0xbde2d1cf0b78b199b499e95fa0dcd80e15ab60c9d72258e26041cadbaa771a47",
          "blockNumber": "0x12d159d",
          "transactionHash": "0x51dcb84af1c34896c70aa355b90fb4b4cd57d477a646154790a7dc15722a6322",
          "transactionIndex": "0x3",
          "logIndex": "0x0",
          "removed": false
        }
      ],
      "logsBloom": "0x00000000000000000000000000000000000000000000000000040000000000000000000000000000000000100000000000000000000000000000000000200000000000000000000000000000000010000000000000000000000000000000000000000000000000010000000000000000000000000000000000000000000000000000000000000000000000000000000000000000002000000000000000000000020000200000000000000100000000000000000020000000000000000000000000000000000000000000000008000000000000000000000000000000000000000010000000000000000000000000000000000000000000000000000000000000",
      "type": "0x2",
      "transactionHash": "0x51dcb84af1c34896c70aa355b90fb4b4cd57d477a646154790a7dc15722a6322",
      "transactionIndex": "0x3",
      "blockHash": "0xbde2d1cf0b78b199b499e95fa0dcd80e15ab60c9d72258e26041cadbaa771a47",
      "blockNumber": "0x12d159d",
      "gasUsed": "0xb3c3",
      "effectiveGasPrice": "0xf4637",
      "from": "0xafa9cf6c504ca060b31626879635c049e2de9e1c",
      "to": "0x4200000000000000000000000000000000000006",
      "contractAddress": null,
      "l1BaseFeeScalar": "0x90f6",
      "l1BlobBaseFee": "0x1",
      "l1BlobBaseFeeScalar": "0x125749",
      "l1Fee": "0x42b2b8fd0",
      "l1GasPrice": "0x11f91c63",
      "l1GasUsed": "0x640"
    },
    {
      "status": "0x1",
      "cumulativeGasUsed": "0xda8bb",
      "logs": [
        {
          "address": "0x4200000000000000000000000000000000000006",
          "topics": [
            "0xddf252ad1be2c89b69c2b068fc378daa952ba7f163c4a11628f55a4df523b3ef",
            "0x000000000000000000000000afa9cf6c504ca060b31626879635c049e2de9e1c",
            "0x0000000000000000000000001e394c5740f3b04b4a930ec843a43d1d49ddbd2a"
          ],
          "data": "0x000000000000000000000000000000000000000000000000000009184e72a000",
          "blockHash": "0xbde2d1cf0b78b199b499e95fa0dcd80e15ab60c9d72258e26041cadbaa771a47",
          "blockNumber": "0x12d159d",
          "transactionHash": "0xb4c4686c264689b1b04f3a74aff94fef040459f6cf7a4fb0cc0695c8808c4c13",
          "transactionIndex": "0x4",
          "logIndex": "0x1",
          "removed": false
        },
        {
          "address": "0x76d8de471f54aaa87784119c60df1bbfc852c415",
          "topics": [
            "0xddf252ad1be2c89b69c2b068fc378daa952ba7f163c4a11628f55a4df523b3ef",
            "0x0000000000000000000000009c69e0b64a63aa7daa0b5dc61df3cc77ea05bcb3",
            "0x0000000000000000000000001e394c5740f3b04b4a930ec843a43d1d49ddbd2a"
          ],
          "data": "0x0000000000000000000000000000000000000000000000000000078df09a3a72",
          "blockHash": "0xbde2d1cf0b78b199b499e95fa0dcd80e15ab60c9d72258e26041cadbaa771a47",
          "blockNumber": "0x12d159d",
          "transactionHash": "0xb4c4686c264689b1b04f3a74aff94fef040459f6cf7a4fb0cc0695c8808c4c13",
          "transactionIndex": "0x4",
          "logIndex": "0x2",
          "removed": false
        },
        {
          "address": "0x4200000000000000000000000000000000000006",
          "topics": [
            "0xddf252ad1be2c89b69c2b068fc378daa952ba7f163c4a11628f55a4df523b3ef",
            "0x0000000000000000000000001e394c5740f3b04b4a930ec843a43d1d49ddbd2a",
            "0x0000000000000000000000009c69e0b64a63aa7daa0b5dc61df3cc77ea05bcb3"
          ],
          "data": "0x000000000000000000000000000000000000000000000000000009184e72a000",
          "blockHash": "0xbde2d1cf0b78b199b499e95fa0dcd80e15ab60c9d72258e26041cadbaa771a47",
          "blockNumber": "0x12d159d",
          "transactionHash": "0xb4c4686c264689b1b04f3a74aff94fef040459f6cf7a4fb0cc0695c8808c4c13",
          "transactionIndex": "0x4",
          "logIndex": "0x3",
          "removed": false
        },
        {
          "address": "0x9c69e0b64a63aa7daa0b5dc61df3cc77ea05bcb3",
          "topics": [
            "0xc42079f94a6350d7e6235f29174924f928cc2ac818eb64fed8004e115fbcca67",
            "0x0000000000000000000000001e394c5740f3b04b4a930ec843a43d1d49ddbd2a",
            "0x0000000000000000000000001e394c5740f3b04b4a930ec843a43d1d49ddbd2a"
          ],
          "data": "0x000000000000000000000000000000000000000000000000000009184e72a000fffffffffffffffffffffffffffffffffffffffffffffffffffff8720f65c58e0000000000000000000000000000000000000000e9566fef848fbdd08f0400d3000000000000000000000000000000000000000000008b7219541fc27a801b77fffffffffffffffffffffffffffffffffffffffffffffffffffffffffffff8c2",
          "blockHash": "0xbde2d1cf0b78b199b499e95fa0dcd80e15ab60c9d72258e26041cadbaa771a47",
          "blockNumber": "0x12d159d",
          "transactionHash": "0xb4c4686c264689b1b04f3a74aff94fef040459f6cf7a4fb0cc0695c8808c4c13",
          "transactionIndex": "0x4",
          "logIndex": "0x4",
          "removed": false
        },
        {
          "address": "0x76d8de471f54aaa87784119c60df1bbfc852c415",
          "topics": [
            "0xddf252ad1be2c89b69c2b068fc378daa952ba7f163c4a11628f55a4df523b3ef",
            "0x0000000000000000000000001e394c5740f3b04b4a930ec843a43d1d49ddbd2a",
            "0x000000000000000000000000afa9cf6c504ca060b31626879635c049e2de9e1c"
          ],
          "data": "0x0000000000000000000000000000000000000000000000000000078df09a3a72",
          "blockHash": "0xbde2d1cf0b78b199b499e95fa0dcd80e15ab60c9d72258e26041cadbaa771a47",
          "blockNumber": "0x12d159d",
          "transactionHash": "0xb4c4686c264689b1b04f3a74aff94fef040459f6cf7a4fb0cc0695c8808c4c13",
          "transactionIndex": "0x4",
          "logIndex": "0x5",
          "removed": false
        },
        {
          "address": "0x1e394c5740f3b04b4a930ec843a43d1d49ddbd2a",
          "topics": [
            "0x4f73e5828387c436ef01a51b03853873e76d7a5551556837d452cbeb6f285cb5"
          ],
          "data": "0x000000000000000000000000000000000000000000000000000009184e72a0000000000000000000000000000000000000000000000000000000078df09a3a72",
          "blockHash": "0xbde2d1cf0b78b199b499e95fa0dcd80e15ab60c9d72258e26041cadbaa771a47",
          "blockNumber": "0x12d159d",
          "transactionHash": "0xb4c4686c264689b1b04f3a74aff94fef040459f6cf7a4fb0cc0695c8808c4c13",
          "transactionIndex": "0x4",
          "logIndex": "0x6",
          "removed": false
        }
      ],
      "logsBloom": "0x00000000000000000000000000000800000000000000504000040000000000000000000000000000000000100000000000000000000020000000000000000000000000000000000800000808000010800000000000000000000000000000000000000000000000010004000000000004000000000000000000000010000800008000000000000000000000000000000000000000202000000000000000000000000000200000000000000100080000000000000021000000000000000000000000000002000000000000000008000000000000400000000000000000000000000000000000000000000000000000020000000000000000000000000080000000",
      "type": "0x2",
      "transactionHash": "0xb4c4686c264689b1b04f3a74aff94fef040459f6cf7a4fb0cc0695c8808c4c13",
      "transactionIndex": "0x4",
      "blockHash": "0xbde2d1cf0b78b199b499e95fa0dcd80e15ab60c9d72258e26041cadbaa771a47",
      "blockNumber": "0x12d159d",
      "gasUsed": "0x28066",
      "effectiveGasPrice": "0xf4637",
      "from": "0xafa9cf6c504ca060b31626879635c049e2de9e1c",
      "to": "0x1e394c5740f3b04b4a930ec843a43d1d49ddbd2a",
      "contractAddress": null,
      "l1BaseFeeScalar": "0x90f6",
      "l1BlobBaseFee": "0x1",
      "l1BlobBaseFeeScalar": "0x125749",
      "l1Fee": "0x42b2b8fd0",
      "l1GasPrice": "0x11f91c63",
      "l1GasUsed": "0x640"
    }
  ],
  "libraries": [],
  "pending": [],
  "returns": {},
  "timestamp": 1754192530,
  "chain": 1135,
  "commit": "c9aad40"
}