{
  "transactions": [
    {
      "hash": "0xc12dc8a3847a0317f9798ca6bc4091a82701bca37366737fa3470d9b224f6ff3",
      "transactionType": "CALL",
      "contractName": null,
      "contractAddress": "0x8d1c2d51c73368ae6d044f02bf10edc4e8fd1eba",
      "function": "registerCircle(address,string,address[])",
      "arguments": [
        "0x22Fb7A14F4eb65e333bB903247e5f97C192C98f4",
        "TestCircle2024",
        "[0xAFA9CF6c504Ca060B31626879635c049E2De9E1c]"
      ],
      "transaction": {
        "from": "0xafa9cf6c504ca060b31626879635c049e2de9e1c",
        "to": "0x8d1c2d51c73368ae6d044f02bf10edc4e8fd1eba",
        "gas": "0x36503",
        "value": "0x0",
        "input": "0x6393b4f400000000000000000000000022fb7a14f4eb65e333bb903247e5f97c192c98f4000000000000000000000000000000000000000000000000000000000000006000000000000000000000000000000000000000000000000000000000000000a0000000000000000000000000000000000000000000000000000000000000000e54657374436972636c65323032340000000000000000000000000000000000000000000000000000000000000000000000000000000000000000000000000001000000000000000000000000afa9cf6c504ca060b31626879635c049e2de9e1c",
        "nonce": "0x96",
        "chainId": "0x46f"
      },
      "additionalContracts": [],
      "isFixedGasLimit": false
    }
  ],
  "receipts": [
    {
      "status": "0x1",
      "cumulativeGasUsed": "0x32973",
      "logs": [
        {
          "address": "0x8d1c2d51c73368ae6d044f02bf10edc4e8fd1eba",
          "topics": [
            "0x82ca5d1c3e8b70d734650837732d4db8ca0877240d905a367d27cba08be3b87a",
            "0x00000000000000000000000022fb7a14f4eb65e333bb903247e5f97c192c98f4",
            "0x000000000000000000000000afa9cf6c504ca060b31626879635c049e2de9e1c"
          ],
          "data": "0x0000000000000000000000000000000000000000000000000000000000000020000000000000000000000000000000000000000000000000000000000000000e54657374436972636c6532303234000000000000000000000000000000000000",
          "blockHash": "0x1f6c5110232337a1def7af6d98c09904bf6f66ab507854afed0c8123010f6620",
          "blockNumber": "0x12ad4de",
          "transactionHash": "0xc12dc8a3847a0317f9798ca6bc4091a82701bca37366737fa3470d9b224f6ff3",
          "transactionIndex": "0x1",
          "logIndex": "0x0",
          "removed": false
        }
      ],
      "logsBloom": "0x00000000000000000000000010000000000200000000000000000000000000000000000000000000000000000000000000000000000000000000000000000000000000000000000000000000000000040000000000000000000000000000000000000000000000020000000000000000000000000000000000000000000000000000000000000000000000000000000000001000000000000000000000000000000000200080000000000100000000000000000020000000000000000000000000000000000000000000080000000000000000000000000000000000000000000000000000000000000000000000000000000000000000100000000000000020",
      "type": "0x2",
      "transactionHash": "0xc12dc8a3847a0317f9798ca6bc4091a82701bca37366737fa3470d9b224f6ff3",
      "transactionIndex": "0x1",
      "blockHash": "0x1f6c5110232337a1def7af6d98c09904bf6f66ab507854afed0c8123010f6620",
      "blockNumber": "0x12ad4de",
      "gasUsed": "0x27527",
      "effectiveGasPrice": "0xed107",
      "from": "0xafa9cf6c504ca060b31626879635c049e2de9e1c",
      "to": "0x8d1c2d51c73368ae6d044f02bf10edc4e8fd1eba",
      "contractAddress": null,
      "l1BaseFeeScalar": "0x90f6",
      "l1BlobBaseFee": "0x1",
      "l1BlobBaseFeeScalar": "0x125749",
      "l1Fee": "0x27e533d72c",
      "l1GasPrice": "0x7d507ce7",
      "l1GasUsed": "0x894"
    }
  ],
  "libraries": [],
  "pending": [],
  "returns": {},
  "timestamp": 1753897236,
  "chain": 1135,
  "commit": "4809a7c"
}