{
  "transactions": [
    {
      "hash": "0x9243e3ea87eaea2cb6fda57c25c78de040828ff26f4b971760addc5167f12142",
      "transactionType": "CALL",
      "contractName": null,
      "contractAddress": "0x1f8ca9330dbfb36059c91ac2e6a503c9f533da0d",
      "function": "createCircle(string,address[])",
      "arguments": [
        "DirectTest",
        "[0xAFA9CF6c504Ca060B31626879635c049E2De9E1c]"
      ],
      "transaction": {
        "from": "0xafa9cf6c504ca060b31626879635c049e2de9e1c",
        "to": "0x1f8ca9330dbfb36059c91ac2e6a503c9f533da0d",
        "gas": "0x98c75",
        "value": "0x0",
        "input": "0xd1d4f3da00000000000000000000000000000000000000000000000000000000000000400000000000000000000000000000000000000000000000000000000000000080000000000000000000000000000000000000000000000000000000000000000a44697265637454657374000000000000000000000000000000000000000000000000000000000000000000000000000000000000000000000000000000000001000000000000000000000000afa9cf6c504ca060b31626879635c049e2de9e1c",
        "nonce": "0xfb",
        "chainId": "0x46f"
      },
      "additionalContracts": [
        {
          "transactionType": "CREATE2",
          "address": "0x38ef05a1b841a1d4d99fafabd89a3bfc9c6490a2",
          "initCode": "0x3d602d80600a3d3981f3363d3d373d3d3d363d73377ff7f5c50f46f17955535b836958b04ab33ce45af43d82803e903d91602b57fd5bf3"
        }
      ],
      "isFixedGasLimit": false
    }
  ],
  "receipts": [
    {
      "status": "0x1",
      "cumulativeGasUsed": "0x79e0b",
      "logs": [
        {
          "address": "0x7d2b62e573965a9e347340ec458012588b0d91d7",
          "topics": [
            "0xb251eb052afc73ffd02ffe85ad79990a8b3fed60d76dbc2fa2fdd7123dffd914",
            "0x000000000000000000000000afa9cf6c504ca060b31626879635c049e2de9e1c"
          ],
          "data": "0x",
          "blockHash": "0x15545897327b72c055e9a81b5e808bde1a3d6ed14dfa607716b88ef720af0e59",
          "blockNumber": "0x12b8804",
          "transactionHash": "0x9243e3ea87eaea2cb6fda57c25c78de040828ff26f4b971760addc5167f12142",
          "transactionIndex": "0x1",
          "logIndex": "0x0",
          "removed": false
        },
        {
          "address": "0xf4b3da4676064d1a98de8e3759b9d0a1231835bc",
          "topics": [
            "0x82ca5d1c3e8b70d734650837732d4db8ca0877240d905a367d27cba08be3b87a",
            "0x0000000000000000000000007d2b62e573965a9e347340ec458012588b0d91d7",
            "0x0000000000000000000000001f8ca9330dbfb36059c91ac2e6a503c9f533da0d"
          ],
          "data": "0x0000000000000000000000000000000000000000000000000000000000000020000000000000000000000000000000000000000000000000000000000000000a4469726563745465737400000000000000000000000000000000000000000000",
          "blockHash": "0x15545897327b72c055e9a81b5e808bde1a3d6ed14dfa607716b88ef720af0e59",
          "blockNumber": "0x12b8804",
          "transactionHash": "0x9243e3ea87eaea2cb6fda57c25c78de040828ff26f4b971760addc5167f12142",
          "transactionIndex": "0x1",
          "logIndex": "0x1",
          "removed": false
        },
        {
          "address": "0x1f8ca9330dbfb36059c91ac2e6a503c9f533da0d",
          "topics": [
            "0x15e639cb5334ee5b47e49005d0ff7b1c2f39098dd2da49668b9085d0659757cc",
            "0x0000000000000000000000007d2b62e573965a9e347340ec458012588b0d91d7",
            "0x000000000000000000000000afa9cf6c504ca060b31626879635c049e2de9e1c"
          ],
          "data": "0x0000000000000000000000000000000000000000000000000000000000000020000000000000000000000000000000000000000000000000000000000000000a4469726563745465737400000000000000000000000000000000000000000000",
          "blockHash": "0x15545897327b72c055e9a81b5e808bde1a3d6ed14dfa607716b88ef720af0e59",
          "blockNumber": "0x12b8804",
          "transactionHash": "0x9243e3ea87eaea2cb6fda57c25c78de040828ff26f4b971760addc5167f12142",
          "transactionIndex": "0x1",
          "logIndex": "0x2",
          "removed": false
        }
      ],
      "logsBloom": "0x0000040000000000000000000000000000000000000000000000000000000000000000000000000010000000000000000800000000000000000000000000000000000000000000000000000400000204000000000000000000000000008000000000000000000000000000000000040000000400000000000000000008000000000008000008000000000000000000040000000000000000000000000000000000000020008000000000010000000000000000402008000000002000000000000400000004000000020000000000000000000000c000000000004000000000000000000000000000000000000000000000000000000000100000000000000000",
      "type": "0x2",
      "transactionHash": "0x9243e3ea87eaea2cb6fda57c25c78de040828ff26f4b971760addc5167f12142",
      "transactionIndex": "0x1",
      "blockHash": "0x15545897327b72c055e9a81b5e808bde1a3d6ed14dfa607716b88ef720af0e59",
      "blockNumber": "0x12b8804",
      "gasUsed": "0x6e9bf",
      "effectiveGasPrice": "0x7c765",
      "from": "0xafa9cf6c504ca060b31626879635c049e2de9e1c",
      "to": "0x1f8ca9330dbfb36059c91ac2e6a503c9f533da0d",
      "contractAddress": null,
      "l1BaseFeeScalar": "0x90f6",
      "l1BlobBaseFee": "0x1",
      "l1BlobBaseFeeScalar": "0x125749",
      "l1Fee": "0xc0509049f",
      "l1GasPrice": "0x2f42471b",
      "l1GasUsed": "0x6da"
    }
  ],
  "libraries": [],
  "pending": [],
  "returns": {},
  "timestamp": 1753988961,
  "chain": 1135,
  "commit": "4809a7c"
}